{"contracts/PuzzleNFT.sol":{"PuzzleNFT":{"abi":[{"inputs":[],"stateMutability":"nonpayable","type":"constructor"},{"anonymous":false,"inputs":[{"indexed":true,"internalType":"address","name":"owner","type":"address"},{"indexed":true,"internalType":"address","name":"approved","type":"address"},{"indexed":true,"internalType":"uint256","name":"tokenId","type":"uint256"}],"name":"Approval","type":"event"},{"anonymous":false,"inputs":[{"indexed":true,"internalType":"address","name":"owner","type":"address"},{"indexed":true,"internalType":"address","name":"operator","type":"address"},{"indexed":false,"internalType":"bool","name":"approved","type":"bool"}],"name":"ApprovalForAll","type":"event"},{"anonymous":false,"inputs":[{"indexed":false,"internalType":"string","name":"newBaseURI","type":"string"}],"name":"BaseURIUpdated","type":"event"},{"anonymous":false,"inputs":[{"indexed":false,"internalType":"uint256","name":"_fromTokenId","type":"uint256"},{"indexed":false,"internalType":"uint256","name":"_toTokenId","type":"uint256"}],"name":"BatchMetadataUpdate","type":"event"},{"anonymous":false,"inputs":[{"indexed":false,"internalType":"uint256","name":"_tokenId","type":"uint256"}],"name":"MetadataUpdate","type":"event"},{"anonymous":false,"inputs":[{"indexed":true,"internalType":"address","name":"previousOwner","type":"address"},{"indexed":true,"internalType":"address","name":"newOwner","type":"address"}],"name":"OwnershipTransferred","type":"event"},{"anonymous":false,"inputs":[{"indexed":true,"internalType":"uint256","name":"tokenId","type":"uint256"},{"indexed":true,"internalType":"address","name":"player","type":"address"}],"name":"PuzzleCompleted","type":"event"},{"anonymous":false,"inputs":[{"indexed":true,"internalType":"uint256","name":"tokenId","type":"uint256"},{"indexed":true,"internalType":"address","name":"creator","type":"address"},{"indexed":false,"internalType":"uint256","name":"gridSize","type":"uint256"}],"name":"PuzzleCreated","type":"event"},{"anonymous":false,"inputs":[{"indexed":true,"internalType":"uint256","name":"tokenId","type":"uint256"},{"indexed":false,"internalType":"bool","name":"locked","type":"bool"}],"name":"PuzzleLocked","type":"event"},{"anonymous":false,"inputs":[{"indexed":true,"internalType":"uint256","name":"tokenId","type":"uint256"},{"indexed":true,"internalType":"address","name":"player","type":"address"},{"indexed":false,"internalType":"uint256","name":"amount","type":"uint256"}],"name":"RewardClaimed","type":"event"},{"anonymous":false,"inputs":[{"indexed":true,"internalType":"address","name":"from","type":"address"},{"indexed":true,"internalType":"address","name":"to","type":"address"},{"indexed":true,"internalType":"uint256","name":"tokenId","type":"uint256"}],"name":"Transfer","type":"event"},{"anonymous":false,"inputs":[{"indexed":true,"internalType":"address","name":"account","type":"address"},{"indexed":false,"internalType":"bool","name":"whitelisted","type":"bool"}],"name":"WhitelistUpdated","type":"event"},{"inputs":[],"name":"MAX_PER_WALLET","outputs":[{"internalType":"uint256","name":"","type":"uint256"}],"stateMutability":"view","type":"function"},{"inputs":[],"name":"MINT_PRICE","outputs":[{"internalType":"uint256","name":"","type":"uint256"}],"stateMutability":"view","type":"function"},{"inputs":[{"internalType":"address","name":"to","type":"address"},{"internalType":"uint256","name":"tokenId","type":"uint256"}],"name":"approve","outputs":[],"stateMutability":"nonpayable","type":"function"},{"inputs":[{"internalType":"address","name":"owner","type":"address"}],"name":"balanceOf","outputs":[{"internalType":"uint256","name":"","type":"uint256"}],"stateMutability":"view","type":"function"},{"inputs":[{"internalType":"uint256","name":"tokenId","type":"uint256"},{"internalType":"address","name":"player","type":"address"}],"name":"checkPuzzleCompletion","outputs":[{"internalType":"bool","name":"","type":"bool"}],"stateMutability":"view","type":"function"},{"inputs":[{"internalType":"uint256","name":"originalTokenId","type":"uint256"}],"name":"checkPuzzleExists","outputs":[{"internalType":"bool","name":"","type":"bool"}],"stateMutability":"view","type":"function"},{"inputs":[{"internalType":"uint256","name":"tokenId","type":"uint256"},{"internalType":"string","name":"solution","type":"string"}],"name":"completePuzzle","outputs":[],"stateMutability":"nonpayable","type":"function"},{"inputs":[{"internalType":"uint256","name":"tokenId","type":"uint256"}],"name":"getApproved","outputs":[{"internalType":"address","name":"","type":"address"}],"stateMutability":"view","type":"function"},{"inputs":[{"internalType":"uint256","name":"tokenId","type":"uint256"}],"name":"getPuzzleDetails","outputs":[{"components":[{"internalType":"uint256","name":"gridSize","type":"uint256"},{"internalType":"string","name":"resolverHash","type":"string"},{"internalType":"address","name":"creator","type":"address"},{"internalType":"bool","name":"isLocked","type":"bool"},{"internalType":"uint256","name":"completionReward","type":"uint256"},{"internalType":"string","name":"contentHash","type":"string"}],"internalType":"struct PuzzleNFT.PuzzleData","name":"","type":"tuple"}],"stateMutability":"view","type":"function"},{"inputs":[{"internalType":"uint256","name":"","type":"uint256"},{"internalType":"address","name":"","type":"address"}],"name":"hasCompleted","outputs":[{"internalType":"bool","name":"","type":"bool"}],"stateMutability":"view","type":"function"},{"inputs":[{"internalType":"string","name":"","type":"string"}],"name":"hashToTokenId","outputs":[{"internalType":"uint256","name":"","type":"uint256"}],"stateMutability":"view","type":"function"},{"inputs":[{"internalType":"address","name":"owner","type":"address"},{"internalType":"address","name":"operator","type":"address"}],"name":"isApprovedForAll","outputs":[{"internalType":"bool","name":"","type":"bool"}],"stateMutability":"view","type":"function"},{"inputs":[],"name":"maxSupply","outputs":[{"internalType":"uint256","name":"","type":"uint256"}],"stateMutability":"view","type":"function"},{"inputs":[{"internalType":"address","name":"","type":"address"}],"name":"mintCount","outputs":[{"internalType":"uint256","name":"","type":"uint256"}],"stateMutability":"view","type":"function"},{"inputs":[{"internalType":"string","name":"metadataURI","type":"string"},{"internalType":"uint256","name":"gridSize","type":"uint256"},{"internalType":"string","name":"resolverHash","type":"string"},{"internalType":"string","name":"contentHash","type":"string"},{"internalType":"uint256","name":"completionReward","type":"uint256"},{"internalType":"uint256","name":"originalTokenId","type":"uint256"}],"name":"mintPuzzle","outputs":[],"stateMutability":"payable","type":"function"},{"inputs":[],"name":"mintingEnabled","outputs":[{"internalType":"bool","name":"","type":"bool"}],"stateMutability":"view","type":"function"},{"inputs":[],"name":"name","outputs":[{"internalType":"string","name":"","type":"string"}],"stateMutability":"view","type":"function"},{"inputs":[],"name":"owner","outputs":[{"internalType":"address","name":"","type":"address"}],"stateMutability":"view","type":"function"},{"inputs":[{"internalType":"uint256","name":"tokenId","type":"uint256"}],"name":"ownerOf","outputs":[{"internalType":"address","name":"","type":"address"}],"stateMutability":"view","type":"function"},{"inputs":[{"internalType":"uint256","name":"","type":"uint256"}],"name":"puzzleData","outputs":[{"internalType":"uint256","name":"gridSize","type":"uint256"},{"internalType":"string","name":"resolverHash","type":"string"},{"internalType":"address","name":"creator","type":"address"},{"internalType":"bool","name":"isLocked","type":"bool"},{"internalType":"uint256","name":"completionReward","type":"uint256"},{"internalType":"string","name":"contentHash","type":"string"}],"stateMutability":"view","type":"function"},{"inputs":[{"internalType":"uint256","name":"","type":"uint256"}],"name":"puzzleExists","outputs":[{"internalType":"bool","name":"","type":"bool"}],"stateMutability":"view","type":"function"},{"inputs":[],"name":"renounceOwnership","outputs":[],"stateMutability":"nonpayable","type":"function"},{"inputs":[{"internalType":"address","name":"from","type":"address"},{"internalType":"address","name":"to","type":"address"},{"internalType":"uint256","name":"tokenId","type":"uint256"}],"name":"safeTransferFrom","outputs":[],"stateMutability":"nonpayable","type":"function"},{"inputs":[{"internalType":"address","name":"from","type":"address"},{"internalType":"address","name":"to","type":"address"},{"internalType":"uint256","name":"tokenId","type":"uint256"},{"internalType":"bytes","name":"data","type":"bytes"}],"name":"safeTransferFrom","outputs":[],"stateMutability":"nonpayable","type":"function"},{"inputs":[{"internalType":"address","name":"operator","type":"address"},{"internalType":"bool","name":"approved","type":"bool"}],"name":"setApprovalForAll","outputs":[],"stateMutability":"nonpayable","type":"function"},{"inputs":[{"internalType":"uint256","name":"_maxSupply","type":"uint256"}],"name":"setMaxSupply","outputs":[],"stateMutability":"nonpayable","type":"function"},{"inputs":[{"internalType":"address","name":"account","type":"address"},{"internalType":"bool","name":"whitelisted","type":"bool"}],"name":"setWhitelist","outputs":[],"stateMutability":"nonpayable","type":"function"},{"inputs":[{"internalType":"bytes4","name":"interfaceId","type":"bytes4"}],"name":"supportsInterface","outputs":[{"internalType":"bool","name":"","type":"bool"}],"stateMutability":"view","type":"function"},{"inputs":[],"name":"symbol","outputs":[{"internalType":"string","name":"","type":"string"}],"stateMutability":"view","type":"function"},{"inputs":[],"name":"toggleMinting","outputs":[],"stateMutability":"nonpayable","type":"function"},{"inputs":[{"internalType":"uint256","name":"tokenId","type":"uint256"}],"name":"togglePuzzleLock","outputs":[],"stateMutability":"nonpayable","type":"function"},{"inputs":[{"internalType":"uint256","name":"index","type":"uint256"}],"name":"tokenByIndex","outputs":[{"internalType":"uint256","name":"","type":"uint256"}],"stateMutability":"view","type":"function"},{"inputs":[{"internalType":"address","name":"owner","type":"address"},{"internalType":"uint256","name":"index","type":"uint256"}],"name":"tokenOfOwnerByIndex","outputs":[{"internalType":"uint256","name":"","type":"uint256"}],"stateMutability":"view","type":"function"},{"inputs":[{"internalType":"uint256","name":"tokenId","type":"uint256"}],"name":"tokenURI","outputs":[{"internalType":"string","name":"","type":"string"}],"stateMutability":"view","type":"function"},{"inputs":[],"name":"totalSupply","outputs":[{"internalType":"uint256","name":"","type":"uint256"}],"stateMutability":"view","type":"function"},{"inputs":[{"internalType":"address","name":"from","type":"address"},{"internalType":"address","name":"to","type":"address"},{"internalType":"uint256","name":"tokenId","type":"uint256"}],"name":"transferFrom","outputs":[],"stateMutability":"nonpayable","type":"function"},{"inputs":[{"internalType":"address","name":"newOwner","type":"address"}],"name":"transferOwnership","outputs":[],"stateMutability":"nonpayable","type":"function"},{"inputs":[{"internalType":"address","name":"","type":"address"}],"name":"whitelist","outputs":[{"internalType":"bool","name":"","type":"bool"}],"stateMutability":"view","type":"function"},{"inputs":[],"name":"withdraw","outputs":[],"stateMutability":"nonpayable","type":"function"}],"evm":{"bytecode":{"linkReferences":{},"object":"60806040526127106014556001601560006101000a81548160ff0219169083151502179055503480156200003257600080fd5b506040518060400160405280601681526020017f496e7465726163746976652050757a7a6c65204e4654000000000000000000008152506040518060400160405280600681526020017f50555a5a4c4500000000000000000000000000000000000000000000000000008152508160009081620000b091906200043b565b508060019081620000c291906200043b565b5050506001600b81905550620000ed620000e1620000f360201b60201c565b620000fb60201b60201c565b62000522565b600033905090565b6000600c60009054906101000a900473ffffffffffffffffffffffffffffffffffffffff16905081600c60006101000a81548173ffffffffffffffffffffffffffffffffffffffff021916908373ffffffffffffffffffffffffffffffffffffffff1602179055508173ffffffffffffffffffffffffffffffffffffffff168173ffffffffffffffffffffffffffffffffffffffff167f8be0079c531659141344cd1fd0a4f28419497f9722a3daafe3b4186f6b6457e060405160405180910390a35050565b600081519050919050565b7f4e487b7100000000000000000000000000000000000000000000000000000000600052604160045260246000fd5b7f4e487b7100000000000000000000000000000000000000000000000000000000600052602260045260246000fd5b600060028204905060018216806200024357607f821691505b602082108103620002595762000258620001fb565b5b50919050565b60008190508160005260206000209050919050565b60006020601f8301049050919050565b600082821b905092915050565b600060088302620002c37fffffffffffffffffffffffffffffffffffffffffffffffffffffffffffffffff8262000284565b620002cf868362000284565b95508019841693508086168417925050509392505050565b6000819050919050565b6000819050919050565b60006200031c620003166200031084620002e7565b620002f1565b620002e7565b9050919050565b6000819050919050565b6200033883620002fb565b62000350620003478262000323565b84845462000291565b825550505050565b600090565b6200036762000358565b620003748184846200032d565b505050565b5b818110156200039c57620003906000826200035d565b6001810190506200037a565b5050565b601f821115620003eb57620003b5816200025f565b620003c08462000274565b81016020851015620003d0578190505b620003e8620003df8562000274565b83018262000379565b50505b505050565b600082821c905092915050565b60006200041060001984600802620003f0565b1980831691505092915050565b60006200042b8383620003fd565b9150826002028217905092915050565b6200044682620001c1565b67ffffffffffffffff811115620004625762000461620001cc565b5b6200046e82546200022a565b6200047b828285620003a0565b600060209050601f831160018114620004b357600084156200049e578287015190505b620004aa85826200041d565b8655506200051a565b601f198416620004c3866200025f565b60005b82811015620004ed57848901518255600182019150602085019450602081019050620004c6565b868310156200050d578489015162000509601f891682620003fd565b8355505b6001600288020188555050505b505050505050565b6156cb80620005326000396000f3fe6080604052600436106102305760003560e01c80637d55094d1161012e578063cf198afa116100ab578063f09f5cbb1161006f578063f09f5cbb14610891578063f28a1c5c146108ce578063f2fde38b146108f7578063f6d62d7e14610920578063f93965771461095d57610230565b8063cf198afa1461076d578063d5abeb01146107af578063d6b2ad97146107da578063e985e9c514610817578063ed9ec8881461085457610230565b80639fd6db12116100f25780639fd6db1214610688578063a22cb465146106b3578063b88d4fde146106dc578063c002d23d14610705578063c87b56dd1461073057610230565b80637d55094d146105a15780637f5c7437146105b85780638da5cb5b146105f557806395d89b41146106205780639b19251a1461064b57610230565b80633ccfd60b116101bc5780636352211e116101805780636352211e146104be5780636bed4d47146104fb5780636f8b44b01461052457806370a082311461054d578063715018a61461058a57610230565b80633ccfd60b146103fc57806342842e0e146104135780634f6ccce71461043c5780635087f6eb1461047957806353d6fd591461049557610230565b80630f2cdd6c116102035780630f2cdd6c1461030357806318160ddd1461032e57806323b872dd146103595780632f745c5914610382578063314f210f146103bf57610230565b806301ffc9a71461023557806306fdde0314610272578063081812fc1461029d578063095ea7b3146102da575b600080fd5b34801561024157600080fd5b5061025c6004803603810190610257919061395c565b61099a565b60405161026991906139a4565b60405180910390f35b34801561027e57600080fd5b506102876109ac565b6040516102949190613a4f565b60405180910390f35b3480156102a957600080fd5b506102c460048036038101906102bf9190613aa7565b610a3e565b6040516102d19190613b15565b60405180910390f35b3480156102e657600080fd5b5061030160048036038101906102fc9190613b5c565b610a84565b005b34801561030f57600080fd5b50610318610b9b565b6040516103259190613bab565b60405180910390f35b34801561033a57600080fd5b50610343610ba0565b6040516103509190613bab565b60405180910390f35b34801561036557600080fd5b50610380600480360381019061037b9190613bc6565b610bb1565b005b34801561038e57600080fd5b506103a960048036038101906103a49190613b5c565b610c11565b6040516103b69190613bab565b60405180910390f35b3480156103cb57600080fd5b506103e660048036038101906103e19190613c19565b610cb6565b6040516103f391906139a4565b60405180910390f35b34801561040857600080fd5b50610411610d1e565b005b34801561041f57600080fd5b5061043a60048036038101906104359190613bc6565b610d7c565b005b34801561044857600080fd5b50610463600480360381019061045e9190613aa7565b610d9c565b6040516104709190613bab565b60405180910390f35b610493600480360381019061048e9190613d8e565b610e0d565b005b3480156104a157600080fd5b506104bc60048036038101906104b79190613e9b565b61127c565b005b3480156104ca57600080fd5b506104e560048036038101906104e09190613aa7565b61132d565b6040516104f29190613b15565b60405180910390f35b34801561050757600080fd5b50610522600480360381019061051d9190613edb565b6113b3565b005b34801561053057600080fd5b5061054b60048036038101906105469190613aa7565b61173f565b005b34801561055957600080fd5b50610574600480360381019061056f9190613f37565b611751565b6040516105819190613bab565b60405180910390f35b34801561059657600080fd5b5061059f611808565b005b3480156105ad57600080fd5b506105b661181c565b005b3480156105c457600080fd5b506105df60048036038101906105da9190613aa7565b611850565b6040516105ec91906139a4565b60405180910390f35b34801561060157600080fd5b5061060a61187a565b6040516106179190613b15565b60405180910390f35b34801561062c57600080fd5b506106356118a4565b6040516106429190613a4f565b60405180910390f35b34801561065757600080fd5b50610672600480360381019061066d9190613f37565b611936565b60405161067f91906139a4565b60405180910390f35b34801561069457600080fd5b5061069d611956565b6040516106aa91906139a4565b60405180910390f35b3480156106bf57600080fd5b506106da60048036038101906106d59190613e9b565b611969565b005b3480156106e857600080fd5b5061070360048036038101906106fe9190614005565b61197f565b005b34801561071157600080fd5b5061071a6119e1565b6040516107279190613bab565b60405180910390f35b34801561073c57600080fd5b5061075760048036038101906107529190613aa7565b6119ec565b6040516107649190613a4f565b60405180910390f35b34801561077957600080fd5b50610794600480360381019061078f9190613aa7565b6119fe565b6040516107a696959493929190614088565b60405180910390f35b3480156107bb57600080fd5b506107c4611b77565b6040516107d19190613bab565b60405180910390f35b3480156107e657600080fd5b5061080160048036038101906107fc9190613aa7565b611b7d565b60405161080e91906139a4565b60405180910390f35b34801561082357600080fd5b5061083e600480360381019061083991906140f7565b611b9d565b60405161084b91906139a4565b60405180910390f35b34801561086057600080fd5b5061087b60048036038101906108769190613f37565b611c31565b6040516108889190613bab565b60405180910390f35b34801561089d57600080fd5b506108b860048036038101906108b39190613aa7565b611c49565b6040516108c5919061423e565b60405180910390f35b3480156108da57600080fd5b506108f560048036038101906108f09190613aa7565b611e67565b005b34801561090357600080fd5b5061091e60048036038101906109199190613f37565b611fd5565b005b34801561092c57600080fd5b5061094760048036038101906109429190614260565b612058565b6040516109549190613bab565b60405180910390f35b34801561096957600080fd5b50610984600480360381019061097f9190613c19565b612086565b60405161099191906139a4565b60405180910390f35b60006109a5826120b5565b9050919050565b6060600080546109bb906142d8565b80601f01602080910402602001604051908101604052809291908181526020018280546109e7906142d8565b8015610a345780601f10610a0957610100808354040283529160200191610a34565b820191906000526020600020905b815481529060010190602001808311610a1757829003601f168201915b5050505050905090565b6000610a498261212f565b6004600083815260200190815260200160002060009054906101000a900473ffffffffffffffffffffffffffffffffffffffff169050919050565b6000610a8f8261132d565b90508073ffffffffffffffffffffffffffffffffffffffff168373ffffffffffffffffffffffffffffffffffffffff1603610aff576040517f08c379a0000000000000000000000000000000000000000000000000000000008152600401610af69061437b565b60405180910390fd5b8073ffffffffffffffffffffffffffffffffffffffff16610b1e61217a565b73ffffffffffffffffffffffffffffffffffffffff161480610b4d5750610b4c81610b4761217a565b611b9d565b5b610b8c576040517f08c379a0000000000000000000000000000000000000000000000000000000008152600401610b839061440d565b60405180910390fd5b610b968383612182565b505050565b603281565b6000610bac600d61223b565b905090565b610bc2610bbc61217a565b82612249565b610c01576040517f08c379a0000000000000000000000000000000000000000000000000000000008152600401610bf89061449f565b60405180910390fd5b610c0c8383836122de565b505050565b6000610c1c83611751565b8210610c5d576040517f08c379a0000000000000000000000000000000000000000000000000000000008152600401610c5490614531565b60405180910390fd5b600760008473ffffffffffffffffffffffffffffffffffffffff1673ffffffffffffffffffffffffffffffffffffffff168152602001908152602001600020600083815260200190815260200160002054905092915050565b60006011600084815260200190815260200160002060008373ffffffffffffffffffffffffffffffffffffffff1673ffffffffffffffffffffffffffffffffffffffff16815260200190815260200160002060009054906101000a900460ff16905092915050565b610d266125d7565b6000479050610d3361187a565b73ffffffffffffffffffffffffffffffffffffffff166108fc829081150290604051600060405180830381858888f19350505050158015610d78573d6000803e3d6000fd5b5050565b610d978383836040518060200160405280600081525061197f565b505050565b6000610da6612655565b8210610de7576040517f08c379a0000000000000000000000000000000000000000000000000000000008152600401610dde906145c3565b60405180910390fd5b60098281548110610dfb57610dfa6145e3565b5b90600052602060002001549050919050565b610e15612662565b601560009054906101000a900460ff16610e64576040517f08c379a0000000000000000000000000000000000000000000000000000000008152600401610e5b9061465e565b60405180910390fd5b601454610e71600d61223b565b10610eb1576040517f08c379a0000000000000000000000000000000000000000000000000000000008152600401610ea8906146ca565b60405180910390fd5b600185118015610ec25750600a8511155b610f01576040517f08c379a0000000000000000000000000000000000000000000000000000000008152600401610ef890614736565b60405180910390fd5b6013600082815260200190815260200160002060009054906101000a900460ff1615610f62576040517f08c379a0000000000000000000000000000000000000000000000000000000008152600401610f59906147c8565b60405180910390fd5b610f6a61187a565b73ffffffffffffffffffffffffffffffffffffffff163373ffffffffffffffffffffffffffffffffffffffff1614158015610fef5750601260003373ffffffffffffffffffffffffffffffffffffffff1673ffffffffffffffffffffffffffffffffffffffff16815260200190815260200160002060009054906101000a900460ff16155b156110c15766038d7ea4c6800034101561103e576040517f08c379a000000000000000000000000000000000000000000000000000000000815260040161103590614834565b60405180910390fd5b6032601060003373ffffffffffffffffffffffffffffffffffffffff1673ffffffffffffffffffffffffffffffffffffffff16815260200190815260200160002054106110c0576040517f08c379a00000000000000000000000000000000000000000000000000000000081526004016110b7906148a0565b60405180910390fd5b5b60006110cd600d61223b565b90506110d9600d6126b1565b6040518060c001604052808781526020018681526020013373ffffffffffffffffffffffffffffffffffffffff16815260200160001515815260200184815260200185815250600e60008381526020019081526020016000206000820151816000015560208201518160010190816111519190614a6c565b5060408201518160020160006101000a81548173ffffffffffffffffffffffffffffffffffffffff021916908373ffffffffffffffffffffffffffffffffffffffff16021790555060608201518160020160146101000a81548160ff0219169083151502179055506080820151816003015560a08201518160040190816111d89190614a6c565b5090505060016013600084815260200190815260200160002060006101000a81548160ff02191690831515021790555061121233826126c7565b61121c81886126e5565b3373ffffffffffffffffffffffffffffffffffffffff16817f09664ddcf23fddada30bbdebf70f87d2d99cd40a4dc0fac8b5c54cff487e0ced886040516112639190613bab565b60405180910390a350611274612789565b505050505050565b6112846125d7565b80601260008473ffffffffffffffffffffffffffffffffffffffff1673ffffffffffffffffffffffffffffffffffffffff16815260200190815260200160002060006101000a81548160ff0219169083151502179055508173ffffffffffffffffffffffffffffffffffffffff167ff93f9a76c1bf3444d22400a00cb9fe990e6abe9dbb333fda48859cfee864543d8260405161132191906139a4565b60405180910390a25050565b60008061133983612793565b9050600073ffffffffffffffffffffffffffffffffffffffff168173ffffffffffffffffffffffffffffffffffffffff16036113aa576040517f08c379a00000000000000000000000000000000000000000000000000000000081526004016113a190614b8a565b60405180910390fd5b80915050919050565b6113bc826127d0565b6113fb576040517f08c379a00000000000000000000000000000000000000000000000000000000081526004016113f290614bf6565b60405180910390fd5b6011600083815260200190815260200160002060003373ffffffffffffffffffffffffffffffffffffffff1673ffffffffffffffffffffffffffffffffffffffff16815260200190815260200160002060009054906101000a900460ff1615611499576040517f08c379a000000000000000000000000000000000000000000000000000000000815260040161149090614c62565b60405180910390fd5b600e600083815260200190815260200160002060020160149054906101000a900460ff16156114fd576040517f08c379a00000000000000000000000000000000000000000000000000000000081526004016114f490614cce565b60405180910390fd5b600e60008381526020019081526020016000206001016040516020016115239190614d7c565b604051602081830303815290604052805190602001208160405160200161154a9190614dc4565b60405160208183030381529060405280519060200120146115a0576040517f08c379a000000000000000000000000000000000000000000000000000000000815260040161159790614e27565b60405180910390fd5b60016011600084815260200190815260200160002060003373ffffffffffffffffffffffffffffffffffffffff1673ffffffffffffffffffffffffffffffffffffffff16815260200190815260200160002060006101000a81548160ff0219169083151502179055506000600e60008481526020019081526020016000206003015411156116f7576000600e60008481526020019081526020016000206003015490506000600e6000858152602001908152602001600020600301819055503373ffffffffffffffffffffffffffffffffffffffff166108fc829081150290604051600060405180830381858888f193505050501580156116a5573d6000803e3d6000fd5b503373ffffffffffffffffffffffffffffffffffffffff16837f24b5efa61dd1cfc659205a97fb8ed868f3cb8c81922bab2b96423e5de1de2cb7836040516116ed9190613bab565b60405180910390a3505b3373ffffffffffffffffffffffffffffffffffffffff16827f90716828de4240c2d0e1f7916fc95ed6b6fc6e23fe0eec2f8dda4b8acc82898e60405160405180910390a35050565b6117476125d7565b8060148190555050565b60008073ffffffffffffffffffffffffffffffffffffffff168273ffffffffffffffffffffffffffffffffffffffff16036117c1576040517f08c379a00000000000000000000000000000000000000000000000000000000081526004016117b890614eb9565b60405180910390fd5b600360008373ffffffffffffffffffffffffffffffffffffffff1673ffffffffffffffffffffffffffffffffffffffff168152602001908152602001600020549050919050565b6118106125d7565b61181a6000612811565b565b6118246125d7565b601560009054906101000a900460ff1615601560006101000a81548160ff021916908315150217905550565b60006013600083815260200190815260200160002060009054906101000a900460ff169050919050565b6000600c60009054906101000a900473ffffffffffffffffffffffffffffffffffffffff16905090565b6060600180546118b3906142d8565b80601f01602080910402602001604051908101604052809291908181526020018280546118df906142d8565b801561192c5780601f106119015761010080835404028352916020019161192c565b820191906000526020600020905b81548152906001019060200180831161190f57829003601f168201915b5050505050905090565b60126020528060005260406000206000915054906101000a900460ff1681565b601560009054906101000a900460ff1681565b61197b61197461217a565b83836128d7565b5050565b61199061198a61217a565b83612249565b6119cf576040517f08c379a00000000000000000000000000000000000000000000000000000000081526004016119c69061449f565b60405180910390fd5b6119db84848484612a43565b50505050565b66038d7ea4c6800081565b60606119f782612a9f565b9050919050565b600e602052806000526040600020600091509050806000015490806001018054611a27906142d8565b80601f0160208091040260200160405190810160405280929190818152602001828054611a53906142d8565b8015611aa05780601f10611a7557610100808354040283529160200191611aa0565b820191906000526020600020905b815481529060010190602001808311611a8357829003601f168201915b5050505050908060020160009054906101000a900473ffffffffffffffffffffffffffffffffffffffff16908060020160149054906101000a900460ff1690806003015490806004018054611af4906142d8565b80601f0160208091040260200160405190810160405280929190818152602001828054611b20906142d8565b8015611b6d5780601f10611b4257610100808354040283529160200191611b6d565b820191906000526020600020905b815481529060010190602001808311611b5057829003601f168201915b5050505050905086565b60145481565b60136020528060005260406000206000915054906101000a900460ff1681565b6000600560008473ffffffffffffffffffffffffffffffffffffffff1673ffffffffffffffffffffffffffffffffffffffff16815260200190815260200160002060008373ffffffffffffffffffffffffffffffffffffffff1673ffffffffffffffffffffffffffffffffffffffff16815260200190815260200160002060009054906101000a900460ff16905092915050565b60106020528060005260406000206000915090505481565b611c516138a2565b611c5a826127d0565b611c99576040517f08c379a0000000000000000000000000000000000000000000000000000000008152600401611c9090614bf6565b60405180910390fd5b600e60008381526020019081526020016000206040518060c001604052908160008201548152602001600182018054611cd1906142d8565b80601f0160208091040260200160405190810160405280929190818152602001828054611cfd906142d8565b8015611d4a5780601f10611d1f57610100808354040283529160200191611d4a565b820191906000526020600020905b815481529060010190602001808311611d2d57829003601f168201915b505050505081526020016002820160009054906101000a900473ffffffffffffffffffffffffffffffffffffffff1673ffffffffffffffffffffffffffffffffffffffff1673ffffffffffffffffffffffffffffffffffffffff1681526020016002820160149054906101000a900460ff1615151515815260200160038201548152602001600482018054611dde906142d8565b80601f0160208091040260200160405190810160405280929190818152602001828054611e0a906142d8565b8015611e575780601f10611e2c57610100808354040283529160200191611e57565b820191906000526020600020905b815481529060010190602001808311611e3a57829003601f168201915b5050505050815250509050919050565b611e70816127d0565b611eaf576040517f08c379a0000000000000000000000000000000000000000000000000000000008152600401611ea690614bf6565b60405180910390fd5b3373ffffffffffffffffffffffffffffffffffffffff16611ecf8261132d565b73ffffffffffffffffffffffffffffffffffffffff1614611f25576040517f08c379a0000000000000000000000000000000000000000000000000000000008152600401611f1c90614f25565b60405180910390fd5b600e600082815260200190815260200160002060020160149054906101000a900460ff1615600e600083815260200190815260200160002060020160146101000a81548160ff021916908315150217905550807f10c65bf7a9feb8308f4bd53d052cd5b3b7dcfad9b9e51eb190372786fec643a2600e600084815260200190815260200160002060020160149054906101000a900460ff16604051611fca91906139a4565b60405180910390a250565b611fdd6125d7565b600073ffffffffffffffffffffffffffffffffffffffff168173ffffffffffffffffffffffffffffffffffffffff160361204c576040517f08c379a000000000000000000000000000000000000000000000000000000000815260040161204390614fb7565b60405180910390fd5b61205581612811565b50565b600f818051602081018201805184825260208301602085012081835280955050505050506000915090505481565b60116020528160005260406000206020528060005260406000206000915091509054906101000a900460ff1681565b60007f780e9d63000000000000000000000000000000000000000000000000000000007bffffffffffffffffffffffffffffffffffffffffffffffffffffffff1916827bffffffffffffffffffffffffffffffffffffffffffffffffffffffff19161480612128575061212782612bb1565b5b9050919050565b612138816127d0565b612177576040517f08c379a000000000000000000000000000000000000000000000000000000000815260040161216e90614b8a565b60405180910390fd5b50565b600033905090565b816004600083815260200190815260200160002060006101000a81548173ffffffffffffffffffffffffffffffffffffffff021916908373ffffffffffffffffffffffffffffffffffffffff160217905550808273ffffffffffffffffffffffffffffffffffffffff166121f58361132d565b73ffffffffffffffffffffffffffffffffffffffff167f8c5be1e5ebec7d5bd14f71427d1e84f3dd0314c0f7b2291e5b200ac8c7c3b92560405160405180910390a45050565b600081600001549050919050565b6000806122558361132d565b90508073ffffffffffffffffffffffffffffffffffffffff168473ffffffffffffffffffffffffffffffffffffffff16148061229757506122968185611b9d565b5b806122d557508373ffffffffffffffffffffffffffffffffffffffff166122bd84610a3e565b73ffffffffffffffffffffffffffffffffffffffff16145b91505092915050565b8273ffffffffffffffffffffffffffffffffffffffff166122fe8261132d565b73ffffffffffffffffffffffffffffffffffffffff1614612354576040517f08c379a000000000000000000000000000000000000000000000000000000000815260040161234b90615049565b60405180910390fd5b600073ffffffffffffffffffffffffffffffffffffffff168273ffffffffffffffffffffffffffffffffffffffff16036123c3576040517f08c379a00000000000000000000000000000000000000000000000000000000081526004016123ba906150db565b60405180910390fd5b6123d08383836001612c12565b8273ffffffffffffffffffffffffffffffffffffffff166123f08261132d565b73ffffffffffffffffffffffffffffffffffffffff1614612446576040517f08c379a000000000000000000000000000000000000000000000000000000000815260040161243d90615049565b60405180910390fd5b6004600082815260200190815260200160002060006101000a81549073ffffffffffffffffffffffffffffffffffffffff02191690556001600360008573ffffffffffffffffffffffffffffffffffffffff1673ffffffffffffffffffffffffffffffffffffffff168152602001908152602001600020600082825403925050819055506001600360008473ffffffffffffffffffffffffffffffffffffffff1673ffffffffffffffffffffffffffffffffffffffff16815260200190815260200160002060008282540192505081905550816002600083815260200190815260200160002060006101000a81548173ffffffffffffffffffffffffffffffffffffffff021916908373ffffffffffffffffffffffffffffffffffffffff160217905550808273ffffffffffffffffffffffffffffffffffffffff168473ffffffffffffffffffffffffffffffffffffffff167fddf252ad1be2c89b69c2b068fc378daa952ba7f163c4a11628f55a4df523b3ef60405160405180910390a46125d28383836001612c24565b505050565b6125df61217a565b73ffffffffffffffffffffffffffffffffffffffff166125fd61187a565b73ffffffffffffffffffffffffffffffffffffffff1614612653576040517f08c379a000000000000000000000000000000000000000000000000000000000815260040161264a90615147565b60405180910390fd5b565b6000600980549050905090565b6002600b54036126a7576040517f08c379a000000000000000000000000000000000000000000000000000000000815260040161269e906151b3565b60405180910390fd5b6002600b81905550565b6001816000016000828254019250508190555050565b6126e1828260405180602001604052806000815250612c2a565b5050565b6126ee826127d0565b61272d576040517f08c379a000000000000000000000000000000000000000000000000000000000815260040161272490615245565b60405180910390fd5b8060066000848152602001908152602001600020908161274d9190614a6c565b507ff8e1a15aba9398e019f0b49df1a4fde98ee17ae345cb5f6b5e2c27f5033e8ce78260405161277d9190613bab565b60405180910390a15050565b6001600b81905550565b60006002600083815260200190815260200160002060009054906101000a900473ffffffffffffffffffffffffffffffffffffffff169050919050565b60008073ffffffffffffffffffffffffffffffffffffffff166127f283612793565b73ffffffffffffffffffffffffffffffffffffffff1614159050919050565b6000600c60009054906101000a900473ffffffffffffffffffffffffffffffffffffffff16905081600c60006101000a81548173ffffffffffffffffffffffffffffffffffffffff021916908373ffffffffffffffffffffffffffffffffffffffff1602179055508173ffffffffffffffffffffffffffffffffffffffff168173ffffffffffffffffffffffffffffffffffffffff167f8be0079c531659141344cd1fd0a4f28419497f9722a3daafe3b4186f6b6457e060405160405180910390a35050565b8173ffffffffffffffffffffffffffffffffffffffff168373ffffffffffffffffffffffffffffffffffffffff1603612945576040517f08c379a000000000000000000000000000000000000000000000000000000000815260040161293c906152b1565b60405180910390fd5b80600560008573ffffffffffffffffffffffffffffffffffffffff1673ffffffffffffffffffffffffffffffffffffffff16815260200190815260200160002060008473ffffffffffffffffffffffffffffffffffffffff1673ffffffffffffffffffffffffffffffffffffffff16815260200190815260200160002060006101000a81548160ff0219169083151502179055508173ffffffffffffffffffffffffffffffffffffffff168373ffffffffffffffffffffffffffffffffffffffff167f17307eab39ab6107e8899845ad3d59bd9653f200f220920489ca2b5937696c3183604051612a3691906139a4565b60405180910390a3505050565b612a4e8484846122de565b612a5a84848484612c85565b612a99576040517f08c379a0000000000000000000000000000000000000000000000000000000008152600401612a9090615343565b60405180910390fd5b50505050565b6060612aaa8261212f565b6000600660008481526020019081526020016000208054612aca906142d8565b80601f0160208091040260200160405190810160405280929190818152602001828054612af6906142d8565b8015612b435780601f10612b1857610100808354040283529160200191612b43565b820191906000526020600020905b815481529060010190602001808311612b2657829003601f168201915b505050505090506000612b54612e0c565b90506000815103612b69578192505050612bac565b600082511115612b9e578082604051602001612b86929190615363565b60405160208183030381529060405292505050612bac565b612ba784612e23565b925050505b919050565b6000634906490660e01b7bffffffffffffffffffffffffffffffffffffffffffffffffffffffff1916827bffffffffffffffffffffffffffffffffffffffffffffffffffffffff19161480612c0b5750612c0a82612e8b565b5b9050919050565b612c1e84848484612f6d565b50505050565b50505050565b612c3483836130cb565b612c416000848484612c85565b612c80576040517f08c379a0000000000000000000000000000000000000000000000000000000008152600401612c7790615343565b60405180910390fd5b505050565b6000612ca68473ffffffffffffffffffffffffffffffffffffffff166132e8565b15612dff578373ffffffffffffffffffffffffffffffffffffffff1663150b7a02612ccf61217a565b8786866040518563ffffffff1660e01b8152600401612cf194939291906153dc565b6020604051808303816000875af1925050508015612d2d57506040513d601f19601f82011682018060405250810190612d2a919061543d565b60015b612daf573d8060008114612d5d576040519150601f19603f3d011682016040523d82523d6000602084013e612d62565b606091505b506000815103612da7576040517f08c379a0000000000000000000000000000000000000000000000000000000008152600401612d9e90615343565b60405180910390fd5b805181602001fd5b63150b7a0260e01b7bffffffffffffffffffffffffffffffffffffffffffffffffffffffff1916817bffffffffffffffffffffffffffffffffffffffffffffffffffffffff191614915050612e04565b600190505b949350505050565b606060405180602001604052806000815250905090565b6060612e2e8261212f565b6000612e38612e0c565b90506000815111612e585760405180602001604052806000815250612e83565b80612e628461330b565b604051602001612e73929190615363565b6040516020818303038152906040525b915050919050565b60007f80ac58cd000000000000000000000000000000000000000000000000000000007bffffffffffffffffffffffffffffffffffffffffffffffffffffffff1916827bffffffffffffffffffffffffffffffffffffffffffffffffffffffff19161480612f5657507f5b5e139f000000000000000000000000000000000000000000000000000000007bffffffffffffffffffffffffffffffffffffffffffffffffffffffff1916827bffffffffffffffffffffffffffffffffffffffffffffffffffffffff1916145b80612f665750612f65826133d9565b5b9050919050565b612f7984848484613443565b6001811115612fbd576040517f08c379a0000000000000000000000000000000000000000000000000000000008152600401612fb4906154dc565b60405180910390fd5b6000829050600073ffffffffffffffffffffffffffffffffffffffff168573ffffffffffffffffffffffffffffffffffffffff160361300457612fff81613449565b613043565b8373ffffffffffffffffffffffffffffffffffffffff168573ffffffffffffffffffffffffffffffffffffffff1614613042576130418582613492565b5b5b600073ffffffffffffffffffffffffffffffffffffffff168473ffffffffffffffffffffffffffffffffffffffff160361308557613080816135ff565b6130c4565b8473ffffffffffffffffffffffffffffffffffffffff168473ffffffffffffffffffffffffffffffffffffffff16146130c3576130c284826136d0565b5b5b5050505050565b600073ffffffffffffffffffffffffffffffffffffffff168273ffffffffffffffffffffffffffffffffffffffff160361313a576040517f08c379a000000000000000000000000000000000000000000000000000000000815260040161313190615548565b60405180910390fd5b613143816127d0565b15613183576040517f08c379a000000000000000000000000000000000000000000000000000000000815260040161317a906155b4565b60405180910390fd5b613191600083836001612c12565b61319a816127d0565b156131da576040517f08c379a00000000000000000000000000000000000000000000000000000000081526004016131d1906155b4565b60405180910390fd5b6001600360008473ffffffffffffffffffffffffffffffffffffffff1673ffffffffffffffffffffffffffffffffffffffff16815260200190815260200160002060008282540192505081905550816002600083815260200190815260200160002060006101000a81548173ffffffffffffffffffffffffffffffffffffffff021916908373ffffffffffffffffffffffffffffffffffffffff160217905550808273ffffffffffffffffffffffffffffffffffffffff16600073ffffffffffffffffffffffffffffffffffffffff167fddf252ad1be2c89b69c2b068fc378daa952ba7f163c4a11628f55a4df523b3ef60405160405180910390a46132e4600083836001612c24565b5050565b6000808273ffffffffffffffffffffffffffffffffffffffff163b119050919050565b60606000600161331a8461374f565b01905060008167ffffffffffffffff81111561333957613338613c63565b5b6040519080825280601f01601f19166020018201604052801561336b5781602001600182028036833780820191505090505b509050600082602001820190505b6001156133ce578080600190039150507f3031323334353637383961626364656600000000000000000000000000000000600a86061a8153600a85816133c2576133c16155d4565b5b04945060008503613379575b819350505050919050565b60007f01ffc9a7000000000000000000000000000000000000000000000000000000007bffffffffffffffffffffffffffffffffffffffffffffffffffffffff1916827bffffffffffffffffffffffffffffffffffffffffffffffffffffffff1916149050919050565b50505050565b600980549050600a600083815260200190815260200160002081905550600981908060018154018082558091505060019003906000526020600020016000909190919091505550565b6000600161349f84611751565b6134a99190615632565b905060006008600084815260200190815260200160002054905081811461358e576000600760008673ffffffffffffffffffffffffffffffffffffffff1673ffffffffffffffffffffffffffffffffffffffff168152602001908152602001600020600084815260200190815260200160002054905080600760008773ffffffffffffffffffffffffffffffffffffffff1673ffffffffffffffffffffffffffffffffffffffff168152602001908152602001600020600084815260200190815260200160002081905550816008600083815260200190815260200160002081905550505b6008600084815260200190815260200160002060009055600760008573ffffffffffffffffffffffffffffffffffffffff1673ffffffffffffffffffffffffffffffffffffffff16815260200190815260200160002060008381526020019081526020016000206000905550505050565b600060016009805490506136139190615632565b90506000600a6000848152602001908152602001600020549050600060098381548110613643576136426145e3565b5b906000526020600020015490508060098381548110613665576136646145e3565b5b906000526020600020018190555081600a600083815260200190815260200160002081905550600a60008581526020019081526020016000206000905560098054806136b4576136b3615666565b5b6001900381819060005260206000200160009055905550505050565b60006136db83611751565b905081600760008573ffffffffffffffffffffffffffffffffffffffff1673ffffffffffffffffffffffffffffffffffffffff168152602001908152602001600020600083815260200190815260200160002081905550806008600084815260200190815260200160002081905550505050565b600080600090507a184f03e93ff9f4daa797ed6e38ed64bf6a1f01000000000000000083106137ad577a184f03e93ff9f4daa797ed6e38ed64bf6a1f01000000000000000083816137a3576137a26155d4565b5b0492506040810190505b6d04ee2d6d415b85acef810000000083106137ea576d04ee2d6d415b85acef810000000083816137e0576137df6155d4565b5b0492506020810190505b662386f26fc10000831061381957662386f26fc10000838161380f5761380e6155d4565b5b0492506010810190505b6305f5e1008310613842576305f5e1008381613838576138376155d4565b5b0492506008810190505b612710831061386757612710838161385d5761385c6155d4565b5b0492506004810190505b6064831061388a57606483816138805761387f6155d4565b5b0492506002810190505b600a8310613899576001810190505b80915050919050565b6040518060c001604052806000815260200160608152602001600073ffffffffffffffffffffffffffffffffffffffff16815260200160001515815260200160008152602001606081525090565b6000604051905090565b600080fd5b600080fd5b60007fffffffff0000000000000000000000000000000000000000000000000000000082169050919050565b61393981613904565b811461394457600080fd5b50565b60008135905061395681613930565b92915050565b600060208284031215613972576139716138fa565b5b600061398084828501613947565b91505092915050565b60008115159050919050565b61399e81613989565b82525050565b60006020820190506139b96000830184613995565b92915050565b600081519050919050565b600082825260208201905092915050565b60005b838110156139f95780820151818401526020810190506139de565b60008484015250505050565b6000601f19601f8301169050919050565b6000613a21826139bf565b613a2b81856139ca565b9350613a3b8185602086016139db565b613a4481613a05565b840191505092915050565b60006020820190508181036000830152613a698184613a16565b905092915050565b6000819050919050565b613a8481613a71565b8114613a8f57600080fd5b50565b600081359050613aa181613a7b565b92915050565b600060208284031215613abd57613abc6138fa565b5b6000613acb84828501613a92565b91505092915050565b600073ffffffffffffffffffffffffffffffffffffffff82169050919050565b6000613aff82613ad4565b9050919050565b613b0f81613af4565b82525050565b6000602082019050613b2a6000830184613b06565b92915050565b613b3981613af4565b8114613b4457600080fd5b50565b600081359050613b5681613b30565b92915050565b60008060408385031215613b7357613b726138fa565b5b6000613b8185828601613b47565b9250506020613b9285828601613a92565b9150509250929050565b613ba581613a71565b82525050565b6000602082019050613bc06000830184613b9c565b92915050565b600080600060608486031215613bdf57613bde6138fa565b5b6000613bed86828701613b47565b9350506020613bfe86828701613b47565b9250506040613c0f86828701613a92565b9150509250925092565b60008060408385031215613c3057613c2f6138fa565b5b6000613c3e85828601613a92565b9250506020613c4f85828601613b47565b9150509250929050565b600080fd5b600080fd5b7f4e487b7100000000000000000000000000000000000000000000000000000000600052604160045260246000fd5b613c9b82613a05565b810181811067ffffffffffffffff82111715613cba57613cb9613c63565b5b80604052505050565b6000613ccd6138f0565b9050613cd98282613c92565b919050565b600067ffffffffffffffff821115613cf957613cf8613c63565b5b613d0282613a05565b9050602081019050919050565b82818337600083830152505050565b6000613d31613d2c84613cde565b613cc3565b905082815260208101848484011115613d4d57613d4c613c5e565b5b613d58848285613d0f565b509392505050565b600082601f830112613d7557613d74613c59565b5b8135613d85848260208601613d1e565b91505092915050565b60008060008060008060c08789031215613dab57613daa6138fa565b5b600087013567ffffffffffffffff811115613dc957613dc86138ff565b5b613dd589828a01613d60565b9650506020613de689828a01613a92565b955050604087013567ffffffffffffffff811115613e0757613e066138ff565b5b613e1389828a01613d60565b945050606087013567ffffffffffffffff811115613e3457613e336138ff565b5b613e4089828a01613d60565b9350506080613e5189828a01613a92565b92505060a0613e6289828a01613a92565b9150509295509295509295565b613e7881613989565b8114613e8357600080fd5b50565b600081359050613e9581613e6f565b92915050565b60008060408385031215613eb257613eb16138fa565b5b6000613ec085828601613b47565b9250506020613ed185828601613e86565b9150509250929050565b60008060408385031215613ef257613ef16138fa565b5b6000613f0085828601613a92565b925050602083013567ffffffffffffffff811115613f2157613f206138ff565b5b613f2d85828601613d60565b9150509250929050565b600060208284031215613f4d57613f4c6138fa565b5b6000613f5b84828501613b47565b91505092915050565b600067ffffffffffffffff821115613f7f57613f7e613c63565b5b613f8882613a05565b9050602081019050919050565b6000613fa8613fa384613f64565b613cc3565b905082815260208101848484011115613fc457613fc3613c5e565b5b613fcf848285613d0f565b509392505050565b600082601f830112613fec57613feb613c59565b5b8135613ffc848260208601613f95565b91505092915050565b6000806000806080858703121561401f5761401e6138fa565b5b600061402d87828801613b47565b945050602061403e87828801613b47565b935050604061404f87828801613a92565b925050606085013567ffffffffffffffff8111156140705761406f6138ff565b5b61407c87828801613fd7565b91505092959194509250565b600060c08201905061409d6000830189613b9c565b81810360208301526140af8188613a16565b90506140be6040830187613b06565b6140cb6060830186613995565b6140d86080830185613b9c565b81810360a08301526140ea8184613a16565b9050979650505050505050565b6000806040838503121561410e5761410d6138fa565b5b600061411c85828601613b47565b925050602061412d85828601613b47565b9150509250929050565b61414081613a71565b82525050565b600082825260208201905092915050565b6000614162826139bf565b61416c8185614146565b935061417c8185602086016139db565b61418581613a05565b840191505092915050565b61419981613af4565b82525050565b6141a881613989565b82525050565b600060c0830160008301516141c66000860182614137565b50602083015184820360208601526141de8282614157565b91505060408301516141f36040860182614190565b506060830151614206606086018261419f565b5060808301516142196080860182614137565b5060a083015184820360a08601526142318282614157565b9150508091505092915050565b6000602082019050818103600083015261425881846141ae565b905092915050565b600060208284031215614276576142756138fa565b5b600082013567ffffffffffffffff811115614294576142936138ff565b5b6142a084828501613d60565b91505092915050565b7f4e487b7100000000000000000000000000000000000000000000000000000000600052602260045260246000fd5b600060028204905060018216806142f057607f821691505b602082108103614303576143026142a9565b5b50919050565b7f4552433732313a20617070726f76616c20746f2063757272656e74206f776e6560008201527f7200000000000000000000000000000000000000000000000000000000000000602082015250565b60006143656021836139ca565b915061437082614309565b604082019050919050565b6000602082019050818103600083015261439481614358565b9050919050565b7f4552433732313a20617070726f76652063616c6c6572206973206e6f7420746f60008201527f6b656e206f776e6572206f7220617070726f76656420666f7220616c6c000000602082015250565b60006143f7603d836139ca565b91506144028261439b565b604082019050919050565b60006020820190508181036000830152614426816143ea565b9050919050565b7f4552433732313a2063616c6c6572206973206e6f7420746f6b656e206f776e6560008201527f72206f7220617070726f76656400000000000000000000000000000000000000602082015250565b6000614489602d836139ca565b91506144948261442d565b604082019050919050565b600060208201905081810360008301526144b88161447c565b9050919050565b7f455243373231456e756d657261626c653a206f776e657220696e646578206f7560008201527f74206f6620626f756e6473000000000000000000000000000000000000000000602082015250565b600061451b602b836139ca565b9150614526826144bf565b604082019050919050565b6000602082019050818103600083015261454a8161450e565b9050919050565b7f455243373231456e756d657261626c653a20676c6f62616c20696e646578206f60008201527f7574206f6620626f756e64730000000000000000000000000000000000000000602082015250565b60006145ad602c836139ca565b91506145b882614551565b604082019050919050565b600060208201905081810360008301526145dc816145a0565b9050919050565b7f4e487b7100000000000000000000000000000000000000000000000000000000600052603260045260246000fd5b7f4d696e74696e672069732064697361626c656400000000000000000000000000600082015250565b60006146486013836139ca565b915061465382614612565b602082019050919050565b600060208201905081810360008301526146778161463b565b9050919050565b7f4d617820737570706c7920726561636865640000000000000000000000000000600082015250565b60006146b46012836139ca565b91506146bf8261467e565b602082019050919050565b600060208201905081810360008301526146e3816146a7565b9050919050565b7f496e76616c696420677269642073697a65000000000000000000000000000000600082015250565b60006147206011836139ca565b915061472b826146ea565b602082019050919050565b6000602082019050818103600083015261474f81614713565b9050919050565b7f50757a7a6c6520616c72656164792065786973747320666f722074686973204e60008201527f4654000000000000000000000000000000000000000000000000000000000000602082015250565b60006147b26022836139ca565b91506147bd82614756565b604082019050919050565b600060208201905081810360008301526147e1816147a5565b9050919050565b7f496e73756666696369656e74207061796d656e74000000000000000000000000600082015250565b600061481e6014836139ca565b9150614829826147e8565b602082019050919050565b6000602082019050818103600083015261484d81614811565b9050919050565b7f45786365656473206d6178207065722077616c6c657400000000000000000000600082015250565b600061488a6016836139ca565b915061489582614854565b602082019050919050565b600060208201905081810360008301526148b98161487d565b9050919050565b60008190508160005260206000209050919050565b60006020601f8301049050919050565b600082821b905092915050565b6000600883026149227fffffffffffffffffffffffffffffffffffffffffffffffffffffffffffffffff826148e5565b61492c86836148e5565b95508019841693508086168417925050509392505050565b6000819050919050565b600061496961496461495f84613a71565b614944565b613a71565b9050919050565b6000819050919050565b6149838361494e565b61499761498f82614970565b8484546148f2565b825550505050565b600090565b6149ac61499f565b6149b781848461497a565b505050565b5b818110156149db576149d06000826149a4565b6001810190506149bd565b5050565b601f821115614a20576149f1816148c0565b6149fa846148d5565b81016020851015614a09578190505b614a1d614a15856148d5565b8301826149bc565b50505b505050565b600082821c905092915050565b6000614a4360001984600802614a25565b1980831691505092915050565b6000614a5c8383614a32565b9150826002028217905092915050565b614a75826139bf565b67ffffffffffffffff811115614a8e57614a8d613c63565b5b614a9882546142d8565b614aa38282856149df565b600060209050601f831160018114614ad65760008415614ac4578287015190505b614ace8582614a50565b865550614b36565b601f198416614ae4866148c0565b60005b82811015614b0c57848901518255600182019150602085019450602081019050614ae7565b86831015614b295784890151614b25601f891682614a32565b8355505b6001600288020188555050505b505050505050565b7f4552433732313a20696e76616c696420746f6b656e2049440000000000000000600082015250565b6000614b746018836139ca565b9150614b7f82614b3e565b602082019050919050565b60006020820190508181036000830152614ba381614b67565b9050919050565b7f546f6b656e20646f6573206e6f74206578697374000000000000000000000000600082015250565b6000614be06014836139ca565b9150614beb82614baa565b602082019050919050565b60006020820190508181036000830152614c0f81614bd3565b9050919050565b7f416c726561647920636f6d706c65746564000000000000000000000000000000600082015250565b6000614c4c6011836139ca565b9150614c5782614c16565b602082019050919050565b60006020820190508181036000830152614c7b81614c3f565b9050919050565b7f50757a7a6c65206973206c6f636b656400000000000000000000000000000000600082015250565b6000614cb86010836139ca565b9150614cc382614c82565b602082019050919050565b60006020820190508181036000830152614ce781614cab565b9050919050565b600081905092915050565b60008154614d06816142d8565b614d108186614cee565b94506001821660008114614d2b5760018114614d4057614d73565b60ff1983168652811515820286019350614d73565b614d49856148c0565b60005b83811015614d6b57815481890152600182019150602081019050614d4c565b838801955050505b50505092915050565b6000614d888284614cf9565b915081905092915050565b6000614d9e826139bf565b614da88185614cee565b9350614db88185602086016139db565b80840191505092915050565b6000614dd08284614d93565b915081905092915050565b7f496e76616c696420736f6c7574696f6e00000000000000000000000000000000600082015250565b6000614e116010836139ca565b9150614e1c82614ddb565b602082019050919050565b60006020820190508181036000830152614e4081614e04565b9050919050565b7f4552433732313a2061646472657373207a65726f206973206e6f74206120766160008201527f6c6964206f776e65720000000000000000000000000000000000000000000000602082015250565b6000614ea36029836139ca565b9150614eae82614e47565b604082019050919050565b60006020820190508181036000830152614ed281614e96565b9050919050565b7f4e6f7420746f6b656e206f776e65720000000000000000000000000000000000600082015250565b6000614f0f600f836139ca565b9150614f1a82614ed9565b602082019050919050565b60006020820190508181036000830152614f3e81614f02565b9050919050565b7f4f776e61626c653a206e6577206f776e657220697320746865207a65726f206160008201527f6464726573730000000000000000000000000000000000000000000000000000602082015250565b6000614fa16026836139ca565b9150614fac82614f45565b604082019050919050565b60006020820190508181036000830152614fd081614f94565b9050919050565b7f4552433732313a207472616e736665722066726f6d20696e636f72726563742060008201527f6f776e6572000000000000000000000000000000000000000000000000000000602082015250565b60006150336025836139ca565b915061503e82614fd7565b604082019050919050565b6000602082019050818103600083015261506281615026565b9050919050565b7f4552433732313a207472616e7366657220746f20746865207a65726f2061646460008201527f7265737300000000000000000000000000000000000000000000000000000000602082015250565b60006150c56024836139ca565b91506150d082615069565b604082019050919050565b600060208201905081810360008301526150f4816150b8565b9050919050565b7f4f776e61626c653a2063616c6c6572206973206e6f7420746865206f776e6572600082015250565b60006151316020836139ca565b915061513c826150fb565b602082019050919050565b6000602082019050818103600083015261516081615124565b9050919050565b7f5265656e7472616e637947756172643a207265656e7472616e742063616c6c00600082015250565b600061519d601f836139ca565b91506151a882615167565b602082019050919050565b600060208201905081810360008301526151cc81615190565b9050919050565b7f45524337323155524953746f726167653a2055524920736574206f66206e6f6e60008201527f6578697374656e7420746f6b656e000000000000000000000000000000000000602082015250565b600061522f602e836139ca565b915061523a826151d3565b604082019050919050565b6000602082019050818103600083015261525e81615222565b9050919050565b7f4552433732313a20617070726f766520746f2063616c6c657200000000000000600082015250565b600061529b6019836139ca565b91506152a682615265565b602082019050919050565b600060208201905081810360008301526152ca8161528e565b9050919050565b7f4552433732313a207472616e7366657220746f206e6f6e20455243373231526560008201527f63656976657220696d706c656d656e7465720000000000000000000000000000602082015250565b600061532d6032836139ca565b9150615338826152d1565b604082019050919050565b6000602082019050818103600083015261535c81615320565b9050919050565b600061536f8285614d93565b915061537b8284614d93565b91508190509392505050565b600081519050919050565b600082825260208201905092915050565b60006153ae82615387565b6153b88185615392565b93506153c88185602086016139db565b6153d181613a05565b840191505092915050565b60006080820190506153f16000830187613b06565b6153fe6020830186613b06565b61540b6040830185613b9c565b818103606083015261541d81846153a3565b905095945050505050565b60008151905061543781613930565b92915050565b600060208284031215615453576154526138fa565b5b600061546184828501615428565b91505092915050565b7f455243373231456e756d657261626c653a20636f6e736563757469766520747260008201527f616e7366657273206e6f7420737570706f727465640000000000000000000000602082015250565b60006154c66035836139ca565b91506154d18261546a565b604082019050919050565b600060208201905081810360008301526154f5816154b9565b9050919050565b7f4552433732313a206d696e7420746f20746865207a65726f2061646472657373600082015250565b60006155326020836139ca565b915061553d826154fc565b602082019050919050565b6000602082019050818103600083015261556181615525565b9050919050565b7f4552433732313a20746f6b656e20616c7265616479206d696e74656400000000600082015250565b600061559e601c836139ca565b91506155a982615568565b602082019050919050565b600060208201905081810360008301526155cd81615591565b9050919050565b7f4e487b7100000000000000000000000000000000000000000000000000000000600052601260045260246000fd5b7f4e487b7100000000000000000000000000000000000000000000000000000000600052601160045260246000fd5b600061563d82613a71565b915061564883613a71565b92508282039050818111156156605761565f615603565b5b92915050565b7f4e487b7100000000000000000000000000000000000000000000000000000000600052603160045260246000fdfea2646970667358221220401a8a7ffc3ecd295965c9ddef9aa69aacbde5f9e68d0e04e4031e3b48ea0f4064736f6c63430008130033","opcodes":"PUSH1 0x80 PUSH1 0x40 MSTORE PUSH2 0x2710 PUSH1 0x14 SSTORE PUSH1 0x1 PUSH1 0x15 PUSH1 0x0 PUSH2 0x100 EXP DUP2 SLOAD DUP2 PUSH1 0xFF MUL NOT AND SWAP1 DUP4 ISZERO ISZERO MUL OR SWAP1 SSTORE POP CALLVALUE DUP1 ISZERO PUSH3 0x32 JUMPI PUSH1 0x0 DUP1 REVERT JUMPDEST POP PUSH1 0x40 MLOAD DUP1 PUSH1 0x40 ADD PUSH1 0x40 MSTORE DUP1 PUSH1 0x16 DUP2 MSTORE PUSH1 0x20 ADD PUSH32 0x496E7465726163746976652050757A7A6C65204E465400000000000000000000 DUP2 MSTORE POP PUSH1 0x40 MLOAD DUP1 PUSH1 0x40 ADD PUSH1 0x40 MSTORE DUP1 PUSH1 0x6 DUP2 MSTORE PUSH1 0x20 ADD PUSH32 0x50555A5A4C450000000000000000000000000000000000000000000000000000 DUP2 MSTORE POP DUP2 PUSH1 0x0 SWAP1 DUP2 PUSH3 0xB0 SWAP2 SWAP1 PUSH3 0x43B JUMP JUMPDEST POP DUP1 PUSH1 0x1 SWAP1 DUP2 PUSH3 0xC2 SWAP2 SWAP1 PUSH3 0x43B JUMP JUMPDEST POP POP POP PUSH1 0x1 PUSH1 0xB DUP2 SWAP1 SSTORE POP PUSH3 0xED PUSH3 0xE1 PUSH3 0xF3 PUSH1 0x20 SHL PUSH1 0x20 SHR JUMP JUMPDEST PUSH3 0xFB PUSH1 0x20 SHL PUSH1 0x20 SHR JUMP JUMPDEST PUSH3 0x522 JUMP JUMPDEST PUSH1 0x0 CALLER SWAP1 POP SWAP1 JUMP JUMPDEST PUSH1 0x0 PUSH1 0xC PUSH1 0x0 SWAP1 SLOAD SWAP1 PUSH2 0x100 EXP SWAP1 DIV PUSH20 0xFFFFFFFFFFFFFFFFFFFFFFFFFFFFFFFFFFFFFFFF AND SWAP1 POP DUP2 PUSH1 0xC PUSH1 0x0 PUSH2 0x100 EXP DUP2 SLOAD DUP2 PUSH20 0xFFFFFFFFFFFFFFFFFFFFFFFFFFFFFFFFFFFFFFFF MUL NOT AND SWAP1 DUP4 PUSH20 0xFFFFFFFFFFFFFFFFFFFFFFFFFFFFFFFFFFFFFFFF AND MUL OR SWAP1 SSTORE POP DUP2 PUSH20 0xFFFFFFFFFFFFFFFFFFFFFFFFFFFFFFFFFFFFFFFF AND DUP2 PUSH20 0xFFFFFFFFFFFFFFFFFFFFFFFFFFFFFFFFFFFFFFFF AND PUSH32 0x8BE0079C531659141344CD1FD0A4F28419497F9722A3DAAFE3B4186F6B6457E0 PUSH1 0x40 MLOAD PUSH1 0x40 MLOAD DUP1 SWAP2 SUB SWAP1 LOG3 POP POP JUMP JUMPDEST PUSH1 0x0 DUP2 MLOAD SWAP1 POP SWAP2 SWAP1 POP JUMP JUMPDEST PUSH32 0x4E487B7100000000000000000000000000000000000000000000000000000000 PUSH1 0x0 MSTORE PUSH1 0x41 PUSH1 0x4 MSTORE PUSH1 0x24 PUSH1 0x0 REVERT JUMPDEST PUSH32 0x4E487B7100000000000000000000000000000000000000000000000000000000 PUSH1 0x0 MSTORE PUSH1 0x22 PUSH1 0x4 MSTORE PUSH1 0x24 PUSH1 0x0 REVERT JUMPDEST PUSH1 0x0 PUSH1 0x2 DUP3 DIV SWAP1 POP PUSH1 0x1 DUP3 AND DUP1 PUSH3 0x243 JUMPI PUSH1 0x7F DUP3 AND SWAP2 POP JUMPDEST PUSH1 0x20 DUP3 LT DUP2 SUB PUSH3 0x259 JUMPI PUSH3 0x258 PUSH3 0x1FB JUMP JUMPDEST JUMPDEST POP SWAP2 SWAP1 POP JUMP JUMPDEST PUSH1 0x0 DUP2 SWAP1 POP DUP2 PUSH1 0x0 MSTORE PUSH1 0x20 PUSH1 0x0 KECCAK256 SWAP1 POP SWAP2 SWAP1 POP JUMP JUMPDEST PUSH1 0x0 PUSH1 0x20 PUSH1 0x1F DUP4 ADD DIV SWAP1 POP SWAP2 SWAP1 POP JUMP JUMPDEST PUSH1 0x0 DUP3 DUP3 SHL SWAP1 POP SWAP3 SWAP2 POP POP JUMP JUMPDEST PUSH1 0x0 PUSH1 0x8 DUP4 MUL PUSH3 0x2C3 PUSH32 0xFFFFFFFFFFFFFFFFFFFFFFFFFFFFFFFFFFFFFFFFFFFFFFFFFFFFFFFFFFFFFFFF DUP3 PUSH3 0x284 JUMP JUMPDEST PUSH3 0x2CF DUP7 DUP4 PUSH3 0x284 JUMP JUMPDEST SWAP6 POP DUP1 NOT DUP5 AND SWAP4 POP DUP1 DUP7 AND DUP5 OR SWAP3 POP POP POP SWAP4 SWAP3 POP POP POP JUMP JUMPDEST PUSH1 0x0 DUP2 SWAP1 POP SWAP2 SWAP1 POP JUMP JUMPDEST PUSH1 0x0 DUP2 SWAP1 POP SWAP2 SWAP1 POP JUMP JUMPDEST PUSH1 0x0 PUSH3 0x31C PUSH3 0x316 PUSH3 0x310 DUP5 PUSH3 0x2E7 JUMP JUMPDEST PUSH3 0x2F1 JUMP JUMPDEST PUSH3 0x2E7 JUMP JUMPDEST SWAP1 POP SWAP2 SWAP1 POP JUMP JUMPDEST PUSH1 0x0 DUP2 SWAP1 POP SWAP2 SWAP1 POP JUMP JUMPDEST PUSH3 0x338 DUP4 PUSH3 0x2FB JUMP JUMPDEST PUSH3 0x350 PUSH3 0x347 DUP3 PUSH3 0x323 JUMP JUMPDEST DUP5 DUP5 SLOAD PUSH3 0x291 JUMP JUMPDEST DUP3 SSTORE POP POP POP POP JUMP JUMPDEST PUSH1 0x0 SWAP1 JUMP JUMPDEST PUSH3 0x367 PUSH3 0x358 JUMP JUMPDEST PUSH3 0x374 DUP2 DUP5 DUP5 PUSH3 0x32D JUMP JUMPDEST POP POP POP JUMP JUMPDEST JUMPDEST DUP2 DUP2 LT ISZERO PUSH3 0x39C JUMPI PUSH3 0x390 PUSH1 0x0 DUP3 PUSH3 0x35D JUMP JUMPDEST PUSH1 0x1 DUP2 ADD SWAP1 POP PUSH3 0x37A JUMP JUMPDEST POP POP JUMP JUMPDEST PUSH1 0x1F DUP3 GT ISZERO PUSH3 0x3EB JUMPI PUSH3 0x3B5 DUP2 PUSH3 0x25F JUMP JUMPDEST PUSH3 0x3C0 DUP5 PUSH3 0x274 JUMP JUMPDEST DUP2 ADD PUSH1 0x20 DUP6 LT ISZERO PUSH3 0x3D0 JUMPI DUP2 SWAP1 POP JUMPDEST PUSH3 0x3E8 PUSH3 0x3DF DUP6 PUSH3 0x274 JUMP JUMPDEST DUP4 ADD DUP3 PUSH3 0x379 JUMP JUMPDEST POP POP JUMPDEST POP POP POP JUMP JUMPDEST PUSH1 0x0 DUP3 DUP3 SHR SWAP1 POP SWAP3 SWAP2 POP POP JUMP JUMPDEST PUSH1 0x0 PUSH3 0x410 PUSH1 0x0 NOT DUP5 PUSH1 0x8 MUL PUSH3 0x3F0 JUMP JUMPDEST NOT DUP1 DUP4 AND SWAP2 POP POP SWAP3 SWAP2 POP POP JUMP JUMPDEST PUSH1 0x0 PUSH3 0x42B DUP4 DUP4 PUSH3 0x3FD JUMP JUMPDEST SWAP2 POP DUP3 PUSH1 0x2 MUL DUP3 OR SWAP1 POP SWAP3 SWAP2 POP POP JUMP JUMPDEST PUSH3 0x446 DUP3 PUSH3 0x1C1 JUMP JUMPDEST PUSH8 0xFFFFFFFFFFFFFFFF DUP2 GT ISZERO PUSH3 0x462 JUMPI PUSH3 0x461 PUSH3 0x1CC JUMP JUMPDEST JUMPDEST PUSH3 0x46E DUP3 SLOAD PUSH3 0x22A JUMP JUMPDEST PUSH3 0x47B DUP3 DUP3 DUP6 PUSH3 0x3A0 JUMP JUMPDEST PUSH1 0x0 PUSH1 0x20 SWAP1 POP PUSH1 0x1F DUP4 GT PUSH1 0x1 DUP2 EQ PUSH3 0x4B3 JUMPI PUSH1 0x0 DUP5 ISZERO PUSH3 0x49E JUMPI DUP3 DUP8 ADD MLOAD SWAP1 POP JUMPDEST PUSH3 0x4AA DUP6 DUP3 PUSH3 0x41D JUMP JUMPDEST DUP7 SSTORE POP PUSH3 0x51A JUMP JUMPDEST PUSH1 0x1F NOT DUP5 AND PUSH3 0x4C3 DUP7 PUSH3 0x25F JUMP JUMPDEST PUSH1 0x0 JUMPDEST DUP3 DUP2 LT ISZERO PUSH3 0x4ED JUMPI DUP5 DUP10 ADD MLOAD DUP3 SSTORE PUSH1 0x1 DUP3 ADD SWAP2 POP PUSH1 0x20 DUP6 ADD SWAP5 POP PUSH1 0x20 DUP2 ADD SWAP1 POP PUSH3 0x4C6 JUMP JUMPDEST DUP7 DUP4 LT ISZERO PUSH3 0x50D JUMPI DUP5 DUP10 ADD MLOAD PUSH3 0x509 PUSH1 0x1F DUP10 AND DUP3 PUSH3 0x3FD JUMP JUMPDEST DUP4 SSTORE POP JUMPDEST PUSH1 0x1 PUSH1 0x2 DUP9 MUL ADD DUP9 SSTORE POP POP POP JUMPDEST POP POP POP POP POP POP JUMP JUMPDEST PUSH2 0x56CB DUP1 PUSH3 0x532 PUSH1 0x0 CODECOPY PUSH1 0x0 RETURN INVALID PUSH1 0x80 PUSH1 0x40 MSTORE PUSH1 0x4 CALLDATASIZE LT PUSH2 0x230 JUMPI PUSH1 0x0 CALLDATALOAD PUSH1 0xE0 SHR DUP1 PUSH4 0x7D55094D GT PUSH2 0x12E JUMPI DUP1 PUSH4 0xCF198AFA GT PUSH2 0xAB JUMPI DUP1 PUSH4 0xF09F5CBB GT PUSH2 0x6F JUMPI DUP1 PUSH4 0xF09F5CBB EQ PUSH2 0x891 JUMPI DUP1 PUSH4 0xF28A1C5C EQ PUSH2 0x8CE JUMPI DUP1 PUSH4 0xF2FDE38B EQ PUSH2 0x8F7 JUMPI DUP1 PUSH4 0xF6D62D7E EQ PUSH2 0x920 JUMPI DUP1 PUSH4 0xF9396577 EQ PUSH2 0x95D JUMPI PUSH2 0x230 JUMP JUMPDEST DUP1 PUSH4 0xCF198AFA EQ PUSH2 0x76D JUMPI DUP1 PUSH4 0xD5ABEB01 EQ PUSH2 0x7AF JUMPI DUP1 PUSH4 0xD6B2AD97 EQ PUSH2 0x7DA JUMPI DUP1 PUSH4 0xE985E9C5 EQ PUSH2 0x817 JUMPI DUP1 PUSH4 0xED9EC888 EQ PUSH2 0x854 JUMPI PUSH2 0x230 JUMP JUMPDEST DUP1 PUSH4 0x9FD6DB12 GT PUSH2 0xF2 JUMPI DUP1 PUSH4 0x9FD6DB12 EQ PUSH2 0x688 JUMPI DUP1 PUSH4 0xA22CB465 EQ PUSH2 0x6B3 JUMPI DUP1 PUSH4 0xB88D4FDE EQ PUSH2 0x6DC JUMPI DUP1 PUSH4 0xC002D23D EQ PUSH2 0x705 JUMPI DUP1 PUSH4 0xC87B56DD EQ PUSH2 0x730 JUMPI PUSH2 0x230 JUMP JUMPDEST DUP1 PUSH4 0x7D55094D EQ PUSH2 0x5A1 JUMPI DUP1 PUSH4 0x7F5C7437 EQ PUSH2 0x5B8 JUMPI DUP1 PUSH4 0x8DA5CB5B EQ PUSH2 0x5F5 JUMPI DUP1 PUSH4 0x95D89B41 EQ PUSH2 0x620 JUMPI DUP1 PUSH4 0x9B19251A EQ PUSH2 0x64B JUMPI PUSH2 0x230 JUMP JUMPDEST DUP1 PUSH4 0x3CCFD60B GT PUSH2 0x1BC JUMPI DUP1 PUSH4 0x6352211E GT PUSH2 0x180 JUMPI DUP1 PUSH4 0x6352211E EQ PUSH2 0x4BE JUMPI DUP1 PUSH4 0x6BED4D47 EQ PUSH2 0x4FB JUMPI DUP1 PUSH4 0x6F8B44B0 EQ PUSH2 0x524 JUMPI DUP1 PUSH4 0x70A08231 EQ PUSH2 0x54D JUMPI DUP1 PUSH4 0x715018A6 EQ PUSH2 0x58A JUMPI PUSH2 0x230 JUMP JUMPDEST DUP1 PUSH4 0x3CCFD60B EQ PUSH2 0x3FC JUMPI DUP1 PUSH4 0x42842E0E EQ PUSH2 0x413 JUMPI DUP1 PUSH4 0x4F6CCCE7 EQ PUSH2 0x43C JUMPI DUP1 PUSH4 0x5087F6EB EQ PUSH2 0x479 JUMPI DUP1 PUSH4 0x53D6FD59 EQ PUSH2 0x495 JUMPI PUSH2 0x230 JUMP JUMPDEST DUP1 PUSH4 0xF2CDD6C GT PUSH2 0x203 JUMPI DUP1 PUSH4 0xF2CDD6C EQ PUSH2 0x303 JUMPI DUP1 PUSH4 0x18160DDD EQ PUSH2 0x32E JUMPI DUP1 PUSH4 0x23B872DD EQ PUSH2 0x359 JUMPI DUP1 PUSH4 0x2F745C59 EQ PUSH2 0x382 JUMPI DUP1 PUSH4 0x314F210F EQ PUSH2 0x3BF JUMPI PUSH2 0x230 JUMP JUMPDEST DUP1 PUSH4 0x1FFC9A7 EQ PUSH2 0x235 JUMPI DUP1 PUSH4 0x6FDDE03 EQ PUSH2 0x272 JUMPI DUP1 PUSH4 0x81812FC EQ PUSH2 0x29D JUMPI DUP1 PUSH4 0x95EA7B3 EQ PUSH2 0x2DA JUMPI JUMPDEST PUSH1 0x0 DUP1 REVERT JUMPDEST CALLVALUE DUP1 ISZERO PUSH2 0x241 JUMPI PUSH1 0x0 DUP1 REVERT JUMPDEST POP PUSH2 0x25C PUSH1 0x4 DUP1 CALLDATASIZE SUB DUP2 ADD SWAP1 PUSH2 0x257 SWAP2 SWAP1 PUSH2 0x395C JUMP JUMPDEST PUSH2 0x99A JUMP JUMPDEST PUSH1 0x40 MLOAD PUSH2 0x269 SWAP2 SWAP1 PUSH2 0x39A4 JUMP JUMPDEST PUSH1 0x40 MLOAD DUP1 SWAP2 SUB SWAP1 RETURN JUMPDEST CALLVALUE DUP1 ISZERO PUSH2 0x27E JUMPI PUSH1 0x0 DUP1 REVERT JUMPDEST POP PUSH2 0x287 PUSH2 0x9AC JUMP JUMPDEST PUSH1 0x40 MLOAD PUSH2 0x294 SWAP2 SWAP1 PUSH2 0x3A4F JUMP JUMPDEST PUSH1 0x40 MLOAD DUP1 SWAP2 SUB SWAP1 RETURN JUMPDEST CALLVALUE DUP1 ISZERO PUSH2 0x2A9 JUMPI PUSH1 0x0 DUP1 REVERT JUMPDEST POP PUSH2 0x2C4 PUSH1 0x4 DUP1 CALLDATASIZE SUB DUP2 ADD SWAP1 PUSH2 0x2BF SWAP2 SWAP1 PUSH2 0x3AA7 JUMP JUMPDEST PUSH2 0xA3E JUMP JUMPDEST PUSH1 0x40 MLOAD PUSH2 0x2D1 SWAP2 SWAP1 PUSH2 0x3B15 JUMP JUMPDEST PUSH1 0x40 MLOAD DUP1 SWAP2 SUB SWAP1 RETURN JUMPDEST CALLVALUE DUP1 ISZERO PUSH2 0x2E6 JUMPI PUSH1 0x0 DUP1 REVERT JUMPDEST POP PUSH2 0x301 PUSH1 0x4 DUP1 CALLDATASIZE SUB DUP2 ADD SWAP1 PUSH2 0x2FC SWAP2 SWAP1 PUSH2 0x3B5C JUMP JUMPDEST PUSH2 0xA84 JUMP JUMPDEST STOP JUMPDEST CALLVALUE DUP1 ISZERO PUSH2 0x30F JUMPI PUSH1 0x0 DUP1 REVERT JUMPDEST POP PUSH2 0x318 PUSH2 0xB9B JUMP JUMPDEST PUSH1 0x40 MLOAD PUSH2 0x325 SWAP2 SWAP1 PUSH2 0x3BAB JUMP JUMPDEST PUSH1 0x40 MLOAD DUP1 SWAP2 SUB SWAP1 RETURN JUMPDEST CALLVALUE DUP1 ISZERO PUSH2 0x33A JUMPI PUSH1 0x0 DUP1 REVERT JUMPDEST POP PUSH2 0x343 PUSH2 0xBA0 JUMP JUMPDEST PUSH1 0x40 MLOAD PUSH2 0x350 SWAP2 SWAP1 PUSH2 0x3BAB JUMP JUMPDEST PUSH1 0x40 MLOAD DUP1 SWAP2 SUB SWAP1 RETURN JUMPDEST CALLVALUE DUP1 ISZERO PUSH2 0x365 JUMPI PUSH1 0x0 DUP1 REVERT JUMPDEST POP PUSH2 0x380 PUSH1 0x4 DUP1 CALLDATASIZE SUB DUP2 ADD SWAP1 PUSH2 0x37B SWAP2 SWAP1 PUSH2 0x3BC6 JUMP JUMPDEST PUSH2 0xBB1 JUMP JUMPDEST STOP JUMPDEST CALLVALUE DUP1 ISZERO PUSH2 0x38E JUMPI PUSH1 0x0 DUP1 REVERT JUMPDEST POP PUSH2 0x3A9 PUSH1 0x4 DUP1 CALLDATASIZE SUB DUP2 ADD SWAP1 PUSH2 0x3A4 SWAP2 SWAP1 PUSH2 0x3B5C JUMP JUMPDEST PUSH2 0xC11 JUMP JUMPDEST PUSH1 0x40 MLOAD PUSH2 0x3B6 SWAP2 SWAP1 PUSH2 0x3BAB JUMP JUMPDEST PUSH1 0x40 MLOAD DUP1 SWAP2 SUB SWAP1 RETURN JUMPDEST CALLVALUE DUP1 ISZERO PUSH2 0x3CB JUMPI PUSH1 0x0 DUP1 REVERT JUMPDEST POP PUSH2 0x3E6 PUSH1 0x4 DUP1 CALLDATASIZE SUB DUP2 ADD SWAP1 PUSH2 0x3E1 SWAP2 SWAP1 PUSH2 0x3C19 JUMP JUMPDEST PUSH2 0xCB6 JUMP JUMPDEST PUSH1 0x40 MLOAD PUSH2 0x3F3 SWAP2 SWAP1 PUSH2 0x39A4 JUMP JUMPDEST PUSH1 0x40 MLOAD DUP1 SWAP2 SUB SWAP1 RETURN JUMPDEST CALLVALUE DUP1 ISZERO PUSH2 0x408 JUMPI PUSH1 0x0 DUP1 REVERT JUMPDEST POP PUSH2 0x411 PUSH2 0xD1E JUMP JUMPDEST STOP JUMPDEST CALLVALUE DUP1 ISZERO PUSH2 0x41F JUMPI PUSH1 0x0 DUP1 REVERT JUMPDEST POP PUSH2 0x43A PUSH1 0x4 DUP1 CALLDATASIZE SUB DUP2 ADD SWAP1 PUSH2 0x435 SWAP2 SWAP1 PUSH2 0x3BC6 JUMP JUMPDEST PUSH2 0xD7C JUMP JUMPDEST STOP JUMPDEST CALLVALUE DUP1 ISZERO PUSH2 0x448 JUMPI PUSH1 0x0 DUP1 REVERT JUMPDEST POP PUSH2 0x463 PUSH1 0x4 DUP1 CALLDATASIZE SUB DUP2 ADD SWAP1 PUSH2 0x45E SWAP2 SWAP1 PUSH2 0x3AA7 JUMP JUMPDEST PUSH2 0xD9C JUMP JUMPDEST PUSH1 0x40 MLOAD PUSH2 0x470 SWAP2 SWAP1 PUSH2 0x3BAB JUMP JUMPDEST PUSH1 0x40 MLOAD DUP1 SWAP2 SUB SWAP1 RETURN JUMPDEST PUSH2 0x493 PUSH1 0x4 DUP1 CALLDATASIZE SUB DUP2 ADD SWAP1 PUSH2 0x48E SWAP2 SWAP1 PUSH2 0x3D8E JUMP JUMPDEST PUSH2 0xE0D JUMP JUMPDEST STOP JUMPDEST CALLVALUE DUP1 ISZERO PUSH2 0x4A1 JUMPI PUSH1 0x0 DUP1 REVERT JUMPDEST POP PUSH2 0x4BC PUSH1 0x4 DUP1 CALLDATASIZE SUB DUP2 ADD SWAP1 PUSH2 0x4B7 SWAP2 SWAP1 PUSH2 0x3E9B JUMP JUMPDEST PUSH2 0x127C JUMP JUMPDEST STOP JUMPDEST CALLVALUE DUP1 ISZERO PUSH2 0x4CA JUMPI PUSH1 0x0 DUP1 REVERT JUMPDEST POP PUSH2 0x4E5 PUSH1 0x4 DUP1 CALLDATASIZE SUB DUP2 ADD SWAP1 PUSH2 0x4E0 SWAP2 SWAP1 PUSH2 0x3AA7 JUMP JUMPDEST PUSH2 0x132D JUMP JUMPDEST PUSH1 0x40 MLOAD PUSH2 0x4F2 SWAP2 SWAP1 PUSH2 0x3B15 JUMP JUMPDEST PUSH1 0x40 MLOAD DUP1 SWAP2 SUB SWAP1 RETURN JUMPDEST CALLVALUE DUP1 ISZERO PUSH2 0x507 JUMPI PUSH1 0x0 DUP1 REVERT JUMPDEST POP PUSH2 0x522 PUSH1 0x4 DUP1 CALLDATASIZE SUB DUP2 ADD SWAP1 PUSH2 0x51D SWAP2 SWAP1 PUSH2 0x3EDB JUMP JUMPDEST PUSH2 0x13B3 JUMP JUMPDEST STOP JUMPDEST CALLVALUE DUP1 ISZERO PUSH2 0x530 JUMPI PUSH1 0x0 DUP1 REVERT JUMPDEST POP PUSH2 0x54B PUSH1 0x4 DUP1 CALLDATASIZE SUB DUP2 ADD SWAP1 PUSH2 0x546 SWAP2 SWAP1 PUSH2 0x3AA7 JUMP JUMPDEST PUSH2 0x173F JUMP JUMPDEST STOP JUMPDEST CALLVALUE DUP1 ISZERO PUSH2 0x559 JUMPI PUSH1 0x0 DUP1 REVERT JUMPDEST POP PUSH2 0x574 PUSH1 0x4 DUP1 CALLDATASIZE SUB DUP2 ADD SWAP1 PUSH2 0x56F SWAP2 SWAP1 PUSH2 0x3F37 JUMP JUMPDEST PUSH2 0x1751 JUMP JUMPDEST PUSH1 0x40 MLOAD PUSH2 0x581 SWAP2 SWAP1 PUSH2 0x3BAB JUMP JUMPDEST PUSH1 0x40 MLOAD DUP1 SWAP2 SUB SWAP1 RETURN JUMPDEST CALLVALUE DUP1 ISZERO PUSH2 0x596 JUMPI PUSH1 0x0 DUP1 REVERT JUMPDEST POP PUSH2 0x59F PUSH2 0x1808 JUMP JUMPDEST STOP JUMPDEST CALLVALUE DUP1 ISZERO PUSH2 0x5AD JUMPI PUSH1 0x0 DUP1 REVERT JUMPDEST POP PUSH2 0x5B6 PUSH2 0x181C JUMP JUMPDEST STOP JUMPDEST CALLVALUE DUP1 ISZERO PUSH2 0x5C4 JUMPI PUSH1 0x0 DUP1 REVERT JUMPDEST POP PUSH2 0x5DF PUSH1 0x4 DUP1 CALLDATASIZE SUB DUP2 ADD SWAP1 PUSH2 0x5DA SWAP2 SWAP1 PUSH2 0x3AA7 JUMP JUMPDEST PUSH2 0x1850 JUMP JUMPDEST PUSH1 0x40 MLOAD PUSH2 0x5EC SWAP2 SWAP1 PUSH2 0x39A4 JUMP JUMPDEST PUSH1 0x40 MLOAD DUP1 SWAP2 SUB SWAP1 RETURN JUMPDEST CALLVALUE DUP1 ISZERO PUSH2 0x601 JUMPI PUSH1 0x0 DUP1 REVERT JUMPDEST POP PUSH2 0x60A PUSH2 0x187A JUMP JUMPDEST PUSH1 0x40 MLOAD PUSH2 0x617 SWAP2 SWAP1 PUSH2 0x3B15 JUMP JUMPDEST PUSH1 0x40 MLOAD DUP1 SWAP2 SUB SWAP1 RETURN JUMPDEST CALLVALUE DUP1 ISZERO PUSH2 0x62C JUMPI PUSH1 0x0 DUP1 REVERT JUMPDEST POP PUSH2 0x635 PUSH2 0x18A4 JUMP JUMPDEST PUSH1 0x40 MLOAD PUSH2 0x642 SWAP2 SWAP1 PUSH2 0x3A4F JUMP JUMPDEST PUSH1 0x40 MLOAD DUP1 SWAP2 SUB SWAP1 RETURN JUMPDEST CALLVALUE DUP1 ISZERO PUSH2 0x657 JUMPI PUSH1 0x0 DUP1 REVERT JUMPDEST POP PUSH2 0x672 PUSH1 0x4 DUP1 CALLDATASIZE SUB DUP2 ADD SWAP1 PUSH2 0x66D SWAP2 SWAP1 PUSH2 0x3F37 JUMP JUMPDEST PUSH2 0x1936 JUMP JUMPDEST PUSH1 0x40 MLOAD PUSH2 0x67F SWAP2 SWAP1 PUSH2 0x39A4 JUMP JUMPDEST PUSH1 0x40 MLOAD DUP1 SWAP2 SUB SWAP1 RETURN JUMPDEST CALLVALUE DUP1 ISZERO PUSH2 0x694 JUMPI PUSH1 0x0 DUP1 REVERT JUMPDEST POP PUSH2 0x69D PUSH2 0x1956 JUMP JUMPDEST PUSH1 0x40 MLOAD PUSH2 0x6AA SWAP2 SWAP1 PUSH2 0x39A4 JUMP JUMPDEST PUSH1 0x40 MLOAD DUP1 SWAP2 SUB SWAP1 RETURN JUMPDEST CALLVALUE DUP1 ISZERO PUSH2 0x6BF JUMPI PUSH1 0x0 DUP1 REVERT JUMPDEST POP PUSH2 0x6DA PUSH1 0x4 DUP1 CALLDATASIZE SUB DUP2 ADD SWAP1 PUSH2 0x6D5 SWAP2 SWAP1 PUSH2 0x3E9B JUMP JUMPDEST PUSH2 0x1969 JUMP JUMPDEST STOP JUMPDEST CALLVALUE DUP1 ISZERO PUSH2 0x6E8 JUMPI PUSH1 0x0 DUP1 REVERT JUMPDEST POP PUSH2 0x703 PUSH1 0x4 DUP1 CALLDATASIZE SUB DUP2 ADD SWAP1 PUSH2 0x6FE SWAP2 SWAP1 PUSH2 0x4005 JUMP JUMPDEST PUSH2 0x197F JUMP JUMPDEST STOP JUMPDEST CALLVALUE DUP1 ISZERO PUSH2 0x711 JUMPI PUSH1 0x0 DUP1 REVERT JUMPDEST POP PUSH2 0x71A PUSH2 0x19E1 JUMP JUMPDEST PUSH1 0x40 MLOAD PUSH2 0x727 SWAP2 SWAP1 PUSH2 0x3BAB JUMP JUMPDEST PUSH1 0x40 MLOAD DUP1 SWAP2 SUB SWAP1 RETURN JUMPDEST CALLVALUE DUP1 ISZERO PUSH2 0x73C JUMPI PUSH1 0x0 DUP1 REVERT JUMPDEST POP PUSH2 0x757 PUSH1 0x4 DUP1 CALLDATASIZE SUB DUP2 ADD SWAP1 PUSH2 0x752 SWAP2 SWAP1 PUSH2 0x3AA7 JUMP JUMPDEST PUSH2 0x19EC JUMP JUMPDEST PUSH1 0x40 MLOAD PUSH2 0x764 SWAP2 SWAP1 PUSH2 0x3A4F JUMP JUMPDEST PUSH1 0x40 MLOAD DUP1 SWAP2 SUB SWAP1 RETURN JUMPDEST CALLVALUE DUP1 ISZERO PUSH2 0x779 JUMPI PUSH1 0x0 DUP1 REVERT JUMPDEST POP PUSH2 0x794 PUSH1 0x4 DUP1 CALLDATASIZE SUB DUP2 ADD SWAP1 PUSH2 0x78F SWAP2 SWAP1 PUSH2 0x3AA7 JUMP JUMPDEST PUSH2 0x19FE JUMP JUMPDEST PUSH1 0x40 MLOAD PUSH2 0x7A6 SWAP7 SWAP6 SWAP5 SWAP4 SWAP3 SWAP2 SWAP1 PUSH2 0x4088 JUMP JUMPDEST PUSH1 0x40 MLOAD DUP1 SWAP2 SUB SWAP1 RETURN JUMPDEST CALLVALUE DUP1 ISZERO PUSH2 0x7BB JUMPI PUSH1 0x0 DUP1 REVERT JUMPDEST POP PUSH2 0x7C4 PUSH2 0x1B77 JUMP JUMPDEST PUSH1 0x40 MLOAD PUSH2 0x7D1 SWAP2 SWAP1 PUSH2 0x3BAB JUMP JUMPDEST PUSH1 0x40 MLOAD DUP1 SWAP2 SUB SWAP1 RETURN JUMPDEST CALLVALUE DUP1 ISZERO PUSH2 0x7E6 JUMPI PUSH1 0x0 DUP1 REVERT JUMPDEST POP PUSH2 0x801 PUSH1 0x4 DUP1 CALLDATASIZE SUB DUP2 ADD SWAP1 PUSH2 0x7FC SWAP2 SWAP1 PUSH2 0x3AA7 JUMP JUMPDEST PUSH2 0x1B7D JUMP JUMPDEST PUSH1 0x40 MLOAD PUSH2 0x80E SWAP2 SWAP1 PUSH2 0x39A4 JUMP JUMPDEST PUSH1 0x40 MLOAD DUP1 SWAP2 SUB SWAP1 RETURN JUMPDEST CALLVALUE DUP1 ISZERO PUSH2 0x823 JUMPI PUSH1 0x0 DUP1 REVERT JUMPDEST POP PUSH2 0x83E PUSH1 0x4 DUP1 CALLDATASIZE SUB DUP2 ADD SWAP1 PUSH2 0x839 SWAP2 SWAP1 PUSH2 0x40F7 JUMP JUMPDEST PUSH2 0x1B9D JUMP JUMPDEST PUSH1 0x40 MLOAD PUSH2 0x84B SWAP2 SWAP1 PUSH2 0x39A4 JUMP JUMPDEST PUSH1 0x40 MLOAD DUP1 SWAP2 SUB SWAP1 RETURN JUMPDEST CALLVALUE DUP1 ISZERO PUSH2 0x860 JUMPI PUSH1 0x0 DUP1 REVERT JUMPDEST POP PUSH2 0x87B PUSH1 0x4 DUP1 CALLDATASIZE SUB DUP2 ADD SWAP1 PUSH2 0x876 SWAP2 SWAP1 PUSH2 0x3F37 JUMP JUMPDEST PUSH2 0x1C31 JUMP JUMPDEST PUSH1 0x40 MLOAD PUSH2 0x888 SWAP2 SWAP1 PUSH2 0x3BAB JUMP JUMPDEST PUSH1 0x40 MLOAD DUP1 SWAP2 SUB SWAP1 RETURN JUMPDEST CALLVALUE DUP1 ISZERO PUSH2 0x89D JUMPI PUSH1 0x0 DUP1 REVERT JUMPDEST POP PUSH2 0x8B8 PUSH1 0x4 DUP1 CALLDATASIZE SUB DUP2 ADD SWAP1 PUSH2 0x8B3 SWAP2 SWAP1 PUSH2 0x3AA7 JUMP JUMPDEST PUSH2 0x1C49 JUMP JUMPDEST PUSH1 0x40 MLOAD PUSH2 0x8C5 SWAP2 SWAP1 PUSH2 0x423E JUMP JUMPDEST PUSH1 0x40 MLOAD DUP1 SWAP2 SUB SWAP1 RETURN JUMPDEST CALLVALUE DUP1 ISZERO PUSH2 0x8DA JUMPI PUSH1 0x0 DUP1 REVERT JUMPDEST POP PUSH2 0x8F5 PUSH1 0x4 DUP1 CALLDATASIZE SUB DUP2 ADD SWAP1 PUSH2 0x8F0 SWAP2 SWAP1 PUSH2 0x3AA7 JUMP JUMPDEST PUSH2 0x1E67 JUMP JUMPDEST STOP JUMPDEST CALLVALUE DUP1 ISZERO PUSH2 0x903 JUMPI PUSH1 0x0 DUP1 REVERT JUMPDEST POP PUSH2 0x91E PUSH1 0x4 DUP1 CALLDATASIZE SUB DUP2 ADD SWAP1 PUSH2 0x919 SWAP2 SWAP1 PUSH2 0x3F37 JUMP JUMPDEST PUSH2 0x1FD5 JUMP JUMPDEST STOP JUMPDEST CALLVALUE DUP1 ISZERO PUSH2 0x92C JUMPI PUSH1 0x0 DUP1 REVERT JUMPDEST POP PUSH2 0x947 PUSH1 0x4 DUP1 CALLDATASIZE SUB DUP2 ADD SWAP1 PUSH2 0x942 SWAP2 SWAP1 PUSH2 0x4260 JUMP JUMPDEST PUSH2 0x2058 JUMP JUMPDEST PUSH1 0x40 MLOAD PUSH2 0x954 SWAP2 SWAP1 PUSH2 0x3BAB JUMP JUMPDEST PUSH1 0x40 MLOAD DUP1 SWAP2 SUB SWAP1 RETURN JUMPDEST CALLVALUE DUP1 ISZERO PUSH2 0x969 JUMPI PUSH1 0x0 DUP1 REVERT JUMPDEST POP PUSH2 0x984 PUSH1 0x4 DUP1 CALLDATASIZE SUB DUP2 ADD SWAP1 PUSH2 0x97F SWAP2 SWAP1 PUSH2 0x3C19 JUMP JUMPDEST PUSH2 0x2086 JUMP JUMPDEST PUSH1 0x40 MLOAD PUSH2 0x991 SWAP2 SWAP1 PUSH2 0x39A4 JUMP JUMPDEST PUSH1 0x40 MLOAD DUP1 SWAP2 SUB SWAP1 RETURN JUMPDEST PUSH1 0x0 PUSH2 0x9A5 DUP3 PUSH2 0x20B5 JUMP JUMPDEST SWAP1 POP SWAP2 SWAP1 POP JUMP JUMPDEST PUSH1 0x60 PUSH1 0x0 DUP1 SLOAD PUSH2 0x9BB SWAP1 PUSH2 0x42D8 JUMP JUMPDEST DUP1 PUSH1 0x1F ADD PUSH1 0x20 DUP1 SWAP2 DIV MUL PUSH1 0x20 ADD PUSH1 0x40 MLOAD SWAP1 DUP2 ADD PUSH1 0x40 MSTORE DUP1 SWAP3 SWAP2 SWAP1 DUP2 DUP2 MSTORE PUSH1 0x20 ADD DUP3 DUP1 SLOAD PUSH2 0x9E7 SWAP1 PUSH2 0x42D8 JUMP JUMPDEST DUP1 ISZERO PUSH2 0xA34 JUMPI DUP1 PUSH1 0x1F LT PUSH2 0xA09 JUMPI PUSH2 0x100 DUP1 DUP4 SLOAD DIV MUL DUP4 MSTORE SWAP2 PUSH1 0x20 ADD SWAP2 PUSH2 0xA34 JUMP JUMPDEST DUP3 ADD SWAP2 SWAP1 PUSH1 0x0 MSTORE PUSH1 0x20 PUSH1 0x0 KECCAK256 SWAP1 JUMPDEST DUP2 SLOAD DUP2 MSTORE SWAP1 PUSH1 0x1 ADD SWAP1 PUSH1 0x20 ADD DUP1 DUP4 GT PUSH2 0xA17 JUMPI DUP3 SWAP1 SUB PUSH1 0x1F AND DUP3 ADD SWAP2 JUMPDEST POP POP POP POP POP SWAP1 POP SWAP1 JUMP JUMPDEST PUSH1 0x0 PUSH2 0xA49 DUP3 PUSH2 0x212F JUMP JUMPDEST PUSH1 0x4 PUSH1 0x0 DUP4 DUP2 MSTORE PUSH1 0x20 ADD SWAP1 DUP2 MSTORE PUSH1 0x20 ADD PUSH1 0x0 KECCAK256 PUSH1 0x0 SWAP1 SLOAD SWAP1 PUSH2 0x100 EXP SWAP1 DIV PUSH20 0xFFFFFFFFFFFFFFFFFFFFFFFFFFFFFFFFFFFFFFFF AND SWAP1 POP SWAP2 SWAP1 POP JUMP JUMPDEST PUSH1 0x0 PUSH2 0xA8F DUP3 PUSH2 0x132D JUMP JUMPDEST SWAP1 POP DUP1 PUSH20 0xFFFFFFFFFFFFFFFFFFFFFFFFFFFFFFFFFFFFFFFF AND DUP4 PUSH20 0xFFFFFFFFFFFFFFFFFFFFFFFFFFFFFFFFFFFFFFFF AND SUB PUSH2 0xAFF JUMPI PUSH1 0x40 MLOAD PUSH32 0x8C379A000000000000000000000000000000000000000000000000000000000 DUP2 MSTORE PUSH1 0x4 ADD PUSH2 0xAF6 SWAP1 PUSH2 0x437B JUMP JUMPDEST PUSH1 0x40 MLOAD DUP1 SWAP2 SUB SWAP1 REVERT JUMPDEST DUP1 PUSH20 0xFFFFFFFFFFFFFFFFFFFFFFFFFFFFFFFFFFFFFFFF AND PUSH2 0xB1E PUSH2 0x217A JUMP JUMPDEST PUSH20 0xFFFFFFFFFFFFFFFFFFFFFFFFFFFFFFFFFFFFFFFF AND EQ DUP1 PUSH2 0xB4D JUMPI POP PUSH2 0xB4C DUP2 PUSH2 0xB47 PUSH2 0x217A JUMP JUMPDEST PUSH2 0x1B9D JUMP JUMPDEST JUMPDEST PUSH2 0xB8C JUMPI PUSH1 0x40 MLOAD PUSH32 0x8C379A000000000000000000000000000000000000000000000000000000000 DUP2 MSTORE PUSH1 0x4 ADD PUSH2 0xB83 SWAP1 PUSH2 0x440D JUMP JUMPDEST PUSH1 0x40 MLOAD DUP1 SWAP2 SUB SWAP1 REVERT JUMPDEST PUSH2 0xB96 DUP4 DUP4 PUSH2 0x2182 JUMP JUMPDEST POP POP POP JUMP JUMPDEST PUSH1 0x32 DUP2 JUMP JUMPDEST PUSH1 0x0 PUSH2 0xBAC PUSH1 0xD PUSH2 0x223B JUMP JUMPDEST SWAP1 POP SWAP1 JUMP JUMPDEST PUSH2 0xBC2 PUSH2 0xBBC PUSH2 0x217A JUMP JUMPDEST DUP3 PUSH2 0x2249 JUMP JUMPDEST PUSH2 0xC01 JUMPI PUSH1 0x40 MLOAD PUSH32 0x8C379A000000000000000000000000000000000000000000000000000000000 DUP2 MSTORE PUSH1 0x4 ADD PUSH2 0xBF8 SWAP1 PUSH2 0x449F JUMP JUMPDEST PUSH1 0x40 MLOAD DUP1 SWAP2 SUB SWAP1 REVERT JUMPDEST PUSH2 0xC0C DUP4 DUP4 DUP4 PUSH2 0x22DE JUMP JUMPDEST POP POP POP JUMP JUMPDEST PUSH1 0x0 PUSH2 0xC1C DUP4 PUSH2 0x1751 JUMP JUMPDEST DUP3 LT PUSH2 0xC5D JUMPI PUSH1 0x40 MLOAD PUSH32 0x8C379A000000000000000000000000000000000000000000000000000000000 DUP2 MSTORE PUSH1 0x4 ADD PUSH2 0xC54 SWAP1 PUSH2 0x4531 JUMP JUMPDEST PUSH1 0x40 MLOAD DUP1 SWAP2 SUB SWAP1 REVERT JUMPDEST PUSH1 0x7 PUSH1 0x0 DUP5 PUSH20 0xFFFFFFFFFFFFFFFFFFFFFFFFFFFFFFFFFFFFFFFF AND PUSH20 0xFFFFFFFFFFFFFFFFFFFFFFFFFFFFFFFFFFFFFFFF AND DUP2 MSTORE PUSH1 0x20 ADD SWAP1 DUP2 MSTORE PUSH1 0x20 ADD PUSH1 0x0 KECCAK256 PUSH1 0x0 DUP4 DUP2 MSTORE PUSH1 0x20 ADD SWAP1 DUP2 MSTORE PUSH1 0x20 ADD PUSH1 0x0 KECCAK256 SLOAD SWAP1 POP SWAP3 SWAP2 POP POP JUMP JUMPDEST PUSH1 0x0 PUSH1 0x11 PUSH1 0x0 DUP5 DUP2 MSTORE PUSH1 0x20 ADD SWAP1 DUP2 MSTORE PUSH1 0x20 ADD PUSH1 0x0 KECCAK256 PUSH1 0x0 DUP4 PUSH20 0xFFFFFFFFFFFFFFFFFFFFFFFFFFFFFFFFFFFFFFFF AND PUSH20 0xFFFFFFFFFFFFFFFFFFFFFFFFFFFFFFFFFFFFFFFF AND DUP2 MSTORE PUSH1 0x20 ADD SWAP1 DUP2 MSTORE PUSH1 0x20 ADD PUSH1 0x0 KECCAK256 PUSH1 0x0 SWAP1 SLOAD SWAP1 PUSH2 0x100 EXP SWAP1 DIV PUSH1 0xFF AND SWAP1 POP SWAP3 SWAP2 POP POP JUMP JUMPDEST PUSH2 0xD26 PUSH2 0x25D7 JUMP JUMPDEST PUSH1 0x0 SELFBALANCE SWAP1 POP PUSH2 0xD33 PUSH2 0x187A JUMP JUMPDEST PUSH20 0xFFFFFFFFFFFFFFFFFFFFFFFFFFFFFFFFFFFFFFFF AND PUSH2 0x8FC DUP3 SWAP1 DUP2 ISZERO MUL SWAP1 PUSH1 0x40 MLOAD PUSH1 0x0 PUSH1 0x40 MLOAD DUP1 DUP4 SUB DUP2 DUP6 DUP9 DUP9 CALL SWAP4 POP POP POP POP ISZERO DUP1 ISZERO PUSH2 0xD78 JUMPI RETURNDATASIZE PUSH1 0x0 DUP1 RETURNDATACOPY RETURNDATASIZE PUSH1 0x0 REVERT JUMPDEST POP POP JUMP JUMPDEST PUSH2 0xD97 DUP4 DUP4 DUP4 PUSH1 0x40 MLOAD DUP1 PUSH1 0x20 ADD PUSH1 0x40 MSTORE DUP1 PUSH1 0x0 DUP2 MSTORE POP PUSH2 0x197F JUMP JUMPDEST POP POP POP JUMP JUMPDEST PUSH1 0x0 PUSH2 0xDA6 PUSH2 0x2655 JUMP JUMPDEST DUP3 LT PUSH2 0xDE7 JUMPI PUSH1 0x40 MLOAD PUSH32 0x8C379A000000000000000000000000000000000000000000000000000000000 DUP2 MSTORE PUSH1 0x4 ADD PUSH2 0xDDE SWAP1 PUSH2 0x45C3 JUMP JUMPDEST PUSH1 0x40 MLOAD DUP1 SWAP2 SUB SWAP1 REVERT JUMPDEST PUSH1 0x9 DUP3 DUP2 SLOAD DUP2 LT PUSH2 0xDFB JUMPI PUSH2 0xDFA PUSH2 0x45E3 JUMP JUMPDEST JUMPDEST SWAP1 PUSH1 0x0 MSTORE PUSH1 0x20 PUSH1 0x0 KECCAK256 ADD SLOAD SWAP1 POP SWAP2 SWAP1 POP JUMP JUMPDEST PUSH2 0xE15 PUSH2 0x2662 JUMP JUMPDEST PUSH1 0x15 PUSH1 0x0 SWAP1 SLOAD SWAP1 PUSH2 0x100 EXP SWAP1 DIV PUSH1 0xFF AND PUSH2 0xE64 JUMPI PUSH1 0x40 MLOAD PUSH32 0x8C379A000000000000000000000000000000000000000000000000000000000 DUP2 MSTORE PUSH1 0x4 ADD PUSH2 0xE5B SWAP1 PUSH2 0x465E JUMP JUMPDEST PUSH1 0x40 MLOAD DUP1 SWAP2 SUB SWAP1 REVERT JUMPDEST PUSH1 0x14 SLOAD PUSH2 0xE71 PUSH1 0xD PUSH2 0x223B JUMP JUMPDEST LT PUSH2 0xEB1 JUMPI PUSH1 0x40 MLOAD PUSH32 0x8C379A000000000000000000000000000000000000000000000000000000000 DUP2 MSTORE PUSH1 0x4 ADD PUSH2 0xEA8 SWAP1 PUSH2 0x46CA JUMP JUMPDEST PUSH1 0x40 MLOAD DUP1 SWAP2 SUB SWAP1 REVERT JUMPDEST PUSH1 0x1 DUP6 GT DUP1 ISZERO PUSH2 0xEC2 JUMPI POP PUSH1 0xA DUP6 GT ISZERO JUMPDEST PUSH2 0xF01 JUMPI PUSH1 0x40 MLOAD PUSH32 0x8C379A000000000000000000000000000000000000000000000000000000000 DUP2 MSTORE PUSH1 0x4 ADD PUSH2 0xEF8 SWAP1 PUSH2 0x4736 JUMP JUMPDEST PUSH1 0x40 MLOAD DUP1 SWAP2 SUB SWAP1 REVERT JUMPDEST PUSH1 0x13 PUSH1 0x0 DUP3 DUP2 MSTORE PUSH1 0x20 ADD SWAP1 DUP2 MSTORE PUSH1 0x20 ADD PUSH1 0x0 KECCAK256 PUSH1 0x0 SWAP1 SLOAD SWAP1 PUSH2 0x100 EXP SWAP1 DIV PUSH1 0xFF AND ISZERO PUSH2 0xF62 JUMPI PUSH1 0x40 MLOAD PUSH32 0x8C379A000000000000000000000000000000000000000000000000000000000 DUP2 MSTORE PUSH1 0x4 ADD PUSH2 0xF59 SWAP1 PUSH2 0x47C8 JUMP JUMPDEST PUSH1 0x40 MLOAD DUP1 SWAP2 SUB SWAP1 REVERT JUMPDEST PUSH2 0xF6A PUSH2 0x187A JUMP JUMPDEST PUSH20 0xFFFFFFFFFFFFFFFFFFFFFFFFFFFFFFFFFFFFFFFF AND CALLER PUSH20 0xFFFFFFFFFFFFFFFFFFFFFFFFFFFFFFFFFFFFFFFF AND EQ ISZERO DUP1 ISZERO PUSH2 0xFEF JUMPI POP PUSH1 0x12 PUSH1 0x0 CALLER PUSH20 0xFFFFFFFFFFFFFFFFFFFFFFFFFFFFFFFFFFFFFFFF AND PUSH20 0xFFFFFFFFFFFFFFFFFFFFFFFFFFFFFFFFFFFFFFFF AND DUP2 MSTORE PUSH1 0x20 ADD SWAP1 DUP2 MSTORE PUSH1 0x20 ADD PUSH1 0x0 KECCAK256 PUSH1 0x0 SWAP1 SLOAD SWAP1 PUSH2 0x100 EXP SWAP1 DIV PUSH1 0xFF AND ISZERO JUMPDEST ISZERO PUSH2 0x10C1 JUMPI PUSH7 0x38D7EA4C68000 CALLVALUE LT ISZERO PUSH2 0x103E JUMPI PUSH1 0x40 MLOAD PUSH32 0x8C379A000000000000000000000000000000000000000000000000000000000 DUP2 MSTORE PUSH1 0x4 ADD PUSH2 0x1035 SWAP1 PUSH2 0x4834 JUMP JUMPDEST PUSH1 0x40 MLOAD DUP1 SWAP2 SUB SWAP1 REVERT JUMPDEST PUSH1 0x32 PUSH1 0x10 PUSH1 0x0 CALLER PUSH20 0xFFFFFFFFFFFFFFFFFFFFFFFFFFFFFFFFFFFFFFFF AND PUSH20 0xFFFFFFFFFFFFFFFFFFFFFFFFFFFFFFFFFFFFFFFF AND DUP2 MSTORE PUSH1 0x20 ADD SWAP1 DUP2 MSTORE PUSH1 0x20 ADD PUSH1 0x0 KECCAK256 SLOAD LT PUSH2 0x10C0 JUMPI PUSH1 0x40 MLOAD PUSH32 0x8C379A000000000000000000000000000000000000000000000000000000000 DUP2 MSTORE PUSH1 0x4 ADD PUSH2 0x10B7 SWAP1 PUSH2 0x48A0 JUMP JUMPDEST PUSH1 0x40 MLOAD DUP1 SWAP2 SUB SWAP1 REVERT JUMPDEST JUMPDEST PUSH1 0x0 PUSH2 0x10CD PUSH1 0xD PUSH2 0x223B JUMP JUMPDEST SWAP1 POP PUSH2 0x10D9 PUSH1 0xD PUSH2 0x26B1 JUMP JUMPDEST PUSH1 0x40 MLOAD DUP1 PUSH1 0xC0 ADD PUSH1 0x40 MSTORE DUP1 DUP8 DUP2 MSTORE PUSH1 0x20 ADD DUP7 DUP2 MSTORE PUSH1 0x20 ADD CALLER PUSH20 0xFFFFFFFFFFFFFFFFFFFFFFFFFFFFFFFFFFFFFFFF AND DUP2 MSTORE PUSH1 0x20 ADD PUSH1 0x0 ISZERO ISZERO DUP2 MSTORE PUSH1 0x20 ADD DUP5 DUP2 MSTORE PUSH1 0x20 ADD DUP6 DUP2 MSTORE POP PUSH1 0xE PUSH1 0x0 DUP4 DUP2 MSTORE PUSH1 0x20 ADD SWAP1 DUP2 MSTORE PUSH1 0x20 ADD PUSH1 0x0 KECCAK256 PUSH1 0x0 DUP3 ADD MLOAD DUP2 PUSH1 0x0 ADD SSTORE PUSH1 0x20 DUP3 ADD MLOAD DUP2 PUSH1 0x1 ADD SWAP1 DUP2 PUSH2 0x1151 SWAP2 SWAP1 PUSH2 0x4A6C JUMP JUMPDEST POP PUSH1 0x40 DUP3 ADD MLOAD DUP2 PUSH1 0x2 ADD PUSH1 0x0 PUSH2 0x100 EXP DUP2 SLOAD DUP2 PUSH20 0xFFFFFFFFFFFFFFFFFFFFFFFFFFFFFFFFFFFFFFFF MUL NOT AND SWAP1 DUP4 PUSH20 0xFFFFFFFFFFFFFFFFFFFFFFFFFFFFFFFFFFFFFFFF AND MUL OR SWAP1 SSTORE POP PUSH1 0x60 DUP3 ADD MLOAD DUP2 PUSH1 0x2 ADD PUSH1 0x14 PUSH2 0x100 EXP DUP2 SLOAD DUP2 PUSH1 0xFF MUL NOT AND SWAP1 DUP4 ISZERO ISZERO MUL OR SWAP1 SSTORE POP PUSH1 0x80 DUP3 ADD MLOAD DUP2 PUSH1 0x3 ADD SSTORE PUSH1 0xA0 DUP3 ADD MLOAD DUP2 PUSH1 0x4 ADD SWAP1 DUP2 PUSH2 0x11D8 SWAP2 SWAP1 PUSH2 0x4A6C JUMP JUMPDEST POP SWAP1 POP POP PUSH1 0x1 PUSH1 0x13 PUSH1 0x0 DUP5 DUP2 MSTORE PUSH1 0x20 ADD SWAP1 DUP2 MSTORE PUSH1 0x20 ADD PUSH1 0x0 KECCAK256 PUSH1 0x0 PUSH2 0x100 EXP DUP2 SLOAD DUP2 PUSH1 0xFF MUL NOT AND SWAP1 DUP4 ISZERO ISZERO MUL OR SWAP1 SSTORE POP PUSH2 0x1212 CALLER DUP3 PUSH2 0x26C7 JUMP JUMPDEST PUSH2 0x121C DUP2 DUP9 PUSH2 0x26E5 JUMP JUMPDEST CALLER PUSH20 0xFFFFFFFFFFFFFFFFFFFFFFFFFFFFFFFFFFFFFFFF AND DUP2 PUSH32 0x9664DDCF23FDDADA30BBDEBF70F87D2D99CD40A4DC0FAC8B5C54CFF487E0CED DUP9 PUSH1 0x40 MLOAD PUSH2 0x1263 SWAP2 SWAP1 PUSH2 0x3BAB JUMP JUMPDEST PUSH1 0x40 MLOAD DUP1 SWAP2 SUB SWAP1 LOG3 POP PUSH2 0x1274 PUSH2 0x2789 JUMP JUMPDEST POP POP POP POP POP POP JUMP JUMPDEST PUSH2 0x1284 PUSH2 0x25D7 JUMP JUMPDEST DUP1 PUSH1 0x12 PUSH1 0x0 DUP5 PUSH20 0xFFFFFFFFFFFFFFFFFFFFFFFFFFFFFFFFFFFFFFFF AND PUSH20 0xFFFFFFFFFFFFFFFFFFFFFFFFFFFFFFFFFFFFFFFF AND DUP2 MSTORE PUSH1 0x20 ADD SWAP1 DUP2 MSTORE PUSH1 0x20 ADD PUSH1 0x0 KECCAK256 PUSH1 0x0 PUSH2 0x100 EXP DUP2 SLOAD DUP2 PUSH1 0xFF MUL NOT AND SWAP1 DUP4 ISZERO ISZERO MUL OR SWAP1 SSTORE POP DUP2 PUSH20 0xFFFFFFFFFFFFFFFFFFFFFFFFFFFFFFFFFFFFFFFF AND PUSH32 0xF93F9A76C1BF3444D22400A00CB9FE990E6ABE9DBB333FDA48859CFEE864543D DUP3 PUSH1 0x40 MLOAD PUSH2 0x1321 SWAP2 SWAP1 PUSH2 0x39A4 JUMP JUMPDEST PUSH1 0x40 MLOAD DUP1 SWAP2 SUB SWAP1 LOG2 POP POP JUMP JUMPDEST PUSH1 0x0 DUP1 PUSH2 0x1339 DUP4 PUSH2 0x2793 JUMP JUMPDEST SWAP1 POP PUSH1 0x0 PUSH20 0xFFFFFFFFFFFFFFFFFFFFFFFFFFFFFFFFFFFFFFFF AND DUP2 PUSH20 0xFFFFFFFFFFFFFFFFFFFFFFFFFFFFFFFFFFFFFFFF AND SUB PUSH2 0x13AA JUMPI PUSH1 0x40 MLOAD PUSH32 0x8C379A000000000000000000000000000000000000000000000000000000000 DUP2 MSTORE PUSH1 0x4 ADD PUSH2 0x13A1 SWAP1 PUSH2 0x4B8A JUMP JUMPDEST PUSH1 0x40 MLOAD DUP1 SWAP2 SUB SWAP1 REVERT JUMPDEST DUP1 SWAP2 POP POP SWAP2 SWAP1 POP JUMP JUMPDEST PUSH2 0x13BC DUP3 PUSH2 0x27D0 JUMP JUMPDEST PUSH2 0x13FB JUMPI PUSH1 0x40 MLOAD PUSH32 0x8C379A000000000000000000000000000000000000000000000000000000000 DUP2 MSTORE PUSH1 0x4 ADD PUSH2 0x13F2 SWAP1 PUSH2 0x4BF6 JUMP JUMPDEST PUSH1 0x40 MLOAD DUP1 SWAP2 SUB SWAP1 REVERT JUMPDEST PUSH1 0x11 PUSH1 0x0 DUP4 DUP2 MSTORE PUSH1 0x20 ADD SWAP1 DUP2 MSTORE PUSH1 0x20 ADD PUSH1 0x0 KECCAK256 PUSH1 0x0 CALLER PUSH20 0xFFFFFFFFFFFFFFFFFFFFFFFFFFFFFFFFFFFFFFFF AND PUSH20 0xFFFFFFFFFFFFFFFFFFFFFFFFFFFFFFFFFFFFFFFF AND DUP2 MSTORE PUSH1 0x20 ADD SWAP1 DUP2 MSTORE PUSH1 0x20 ADD PUSH1 0x0 KECCAK256 PUSH1 0x0 SWAP1 SLOAD SWAP1 PUSH2 0x100 EXP SWAP1 DIV PUSH1 0xFF AND ISZERO PUSH2 0x1499 JUMPI PUSH1 0x40 MLOAD PUSH32 0x8C379A000000000000000000000000000000000000000000000000000000000 DUP2 MSTORE PUSH1 0x4 ADD PUSH2 0x1490 SWAP1 PUSH2 0x4C62 JUMP JUMPDEST PUSH1 0x40 MLOAD DUP1 SWAP2 SUB SWAP1 REVERT JUMPDEST PUSH1 0xE PUSH1 0x0 DUP4 DUP2 MSTORE PUSH1 0x20 ADD SWAP1 DUP2 MSTORE PUSH1 0x20 ADD PUSH1 0x0 KECCAK256 PUSH1 0x2 ADD PUSH1 0x14 SWAP1 SLOAD SWAP1 PUSH2 0x100 EXP SWAP1 DIV PUSH1 0xFF AND ISZERO PUSH2 0x14FD JUMPI PUSH1 0x40 MLOAD PUSH32 0x8C379A000000000000000000000000000000000000000000000000000000000 DUP2 MSTORE PUSH1 0x4 ADD PUSH2 0x14F4 SWAP1 PUSH2 0x4CCE JUMP JUMPDEST PUSH1 0x40 MLOAD DUP1 SWAP2 SUB SWAP1 REVERT JUMPDEST PUSH1 0xE PUSH1 0x0 DUP4 DUP2 MSTORE PUSH1 0x20 ADD SWAP1 DUP2 MSTORE PUSH1 0x20 ADD PUSH1 0x0 KECCAK256 PUSH1 0x1 ADD PUSH1 0x40 MLOAD PUSH1 0x20 ADD PUSH2 0x1523 SWAP2 SWAP1 PUSH2 0x4D7C JUMP JUMPDEST PUSH1 0x40 MLOAD PUSH1 0x20 DUP2 DUP4 SUB SUB DUP2 MSTORE SWAP1 PUSH1 0x40 MSTORE DUP1 MLOAD SWAP1 PUSH1 0x20 ADD KECCAK256 DUP2 PUSH1 0x40 MLOAD PUSH1 0x20 ADD PUSH2 0x154A SWAP2 SWAP1 PUSH2 0x4DC4 JUMP JUMPDEST PUSH1 0x40 MLOAD PUSH1 0x20 DUP2 DUP4 SUB SUB DUP2 MSTORE SWAP1 PUSH1 0x40 MSTORE DUP1 MLOAD SWAP1 PUSH1 0x20 ADD KECCAK256 EQ PUSH2 0x15A0 JUMPI PUSH1 0x40 MLOAD PUSH32 0x8C379A000000000000000000000000000000000000000000000000000000000 DUP2 MSTORE PUSH1 0x4 ADD PUSH2 0x1597 SWAP1 PUSH2 0x4E27 JUMP JUMPDEST PUSH1 0x40 MLOAD DUP1 SWAP2 SUB SWAP1 REVERT JUMPDEST PUSH1 0x1 PUSH1 0x11 PUSH1 0x0 DUP5 DUP2 MSTORE PUSH1 0x20 ADD SWAP1 DUP2 MSTORE PUSH1 0x20 ADD PUSH1 0x0 KECCAK256 PUSH1 0x0 CALLER PUSH20 0xFFFFFFFFFFFFFFFFFFFFFFFFFFFFFFFFFFFFFFFF AND PUSH20 0xFFFFFFFFFFFFFFFFFFFFFFFFFFFFFFFFFFFFFFFF AND DUP2 MSTORE PUSH1 0x20 ADD SWAP1 DUP2 MSTORE PUSH1 0x20 ADD PUSH1 0x0 KECCAK256 PUSH1 0x0 PUSH2 0x100 EXP DUP2 SLOAD DUP2 PUSH1 0xFF MUL NOT AND SWAP1 DUP4 ISZERO ISZERO MUL OR SWAP1 SSTORE POP PUSH1 0x0 PUSH1 0xE PUSH1 0x0 DUP5 DUP2 MSTORE PUSH1 0x20 ADD SWAP1 DUP2 MSTORE PUSH1 0x20 ADD PUSH1 0x0 KECCAK256 PUSH1 0x3 ADD SLOAD GT ISZERO PUSH2 0x16F7 JUMPI PUSH1 0x0 PUSH1 0xE PUSH1 0x0 DUP5 DUP2 MSTORE PUSH1 0x20 ADD SWAP1 DUP2 MSTORE PUSH1 0x20 ADD PUSH1 0x0 KECCAK256 PUSH1 0x3 ADD SLOAD SWAP1 POP PUSH1 0x0 PUSH1 0xE PUSH1 0x0 DUP6 DUP2 MSTORE PUSH1 0x20 ADD SWAP1 DUP2 MSTORE PUSH1 0x20 ADD PUSH1 0x0 KECCAK256 PUSH1 0x3 ADD DUP2 SWAP1 SSTORE POP CALLER PUSH20 0xFFFFFFFFFFFFFFFFFFFFFFFFFFFFFFFFFFFFFFFF AND PUSH2 0x8FC DUP3 SWAP1 DUP2 ISZERO MUL SWAP1 PUSH1 0x40 MLOAD PUSH1 0x0 PUSH1 0x40 MLOAD DUP1 DUP4 SUB DUP2 DUP6 DUP9 DUP9 CALL SWAP4 POP POP POP POP ISZERO DUP1 ISZERO PUSH2 0x16A5 JUMPI RETURNDATASIZE PUSH1 0x0 DUP1 RETURNDATACOPY RETURNDATASIZE PUSH1 0x0 REVERT JUMPDEST POP CALLER PUSH20 0xFFFFFFFFFFFFFFFFFFFFFFFFFFFFFFFFFFFFFFFF AND DUP4 PUSH32 0x24B5EFA61DD1CFC659205A97FB8ED868F3CB8C81922BAB2B96423E5DE1DE2CB7 DUP4 PUSH1 0x40 MLOAD PUSH2 0x16ED SWAP2 SWAP1 PUSH2 0x3BAB JUMP JUMPDEST PUSH1 0x40 MLOAD DUP1 SWAP2 SUB SWAP1 LOG3 POP JUMPDEST CALLER PUSH20 0xFFFFFFFFFFFFFFFFFFFFFFFFFFFFFFFFFFFFFFFF AND DUP3 PUSH32 0x90716828DE4240C2D0E1F7916FC95ED6B6FC6E23FE0EEC2F8DDA4B8ACC82898E PUSH1 0x40 MLOAD PUSH1 0x40 MLOAD DUP1 SWAP2 SUB SWAP1 LOG3 POP POP JUMP JUMPDEST PUSH2 0x1747 PUSH2 0x25D7 JUMP JUMPDEST DUP1 PUSH1 0x14 DUP2 SWAP1 SSTORE POP POP JUMP JUMPDEST PUSH1 0x0 DUP1 PUSH20 0xFFFFFFFFFFFFFFFFFFFFFFFFFFFFFFFFFFFFFFFF AND DUP3 PUSH20 0xFFFFFFFFFFFFFFFFFFFFFFFFFFFFFFFFFFFFFFFF AND SUB PUSH2 0x17C1 JUMPI PUSH1 0x40 MLOAD PUSH32 0x8C379A000000000000000000000000000000000000000000000000000000000 DUP2 MSTORE PUSH1 0x4 ADD PUSH2 0x17B8 SWAP1 PUSH2 0x4EB9 JUMP JUMPDEST PUSH1 0x40 MLOAD DUP1 SWAP2 SUB SWAP1 REVERT JUMPDEST PUSH1 0x3 PUSH1 0x0 DUP4 PUSH20 0xFFFFFFFFFFFFFFFFFFFFFFFFFFFFFFFFFFFFFFFF AND PUSH20 0xFFFFFFFFFFFFFFFFFFFFFFFFFFFFFFFFFFFFFFFF AND DUP2 MSTORE PUSH1 0x20 ADD SWAP1 DUP2 MSTORE PUSH1 0x20 ADD PUSH1 0x0 KECCAK256 SLOAD SWAP1 POP SWAP2 SWAP1 POP JUMP JUMPDEST PUSH2 0x1810 PUSH2 0x25D7 JUMP JUMPDEST PUSH2 0x181A PUSH1 0x0 PUSH2 0x2811 JUMP JUMPDEST JUMP JUMPDEST PUSH2 0x1824 PUSH2 0x25D7 JUMP JUMPDEST PUSH1 0x15 PUSH1 0x0 SWAP1 SLOAD SWAP1 PUSH2 0x100 EXP SWAP1 DIV PUSH1 0xFF AND ISZERO PUSH1 0x15 PUSH1 0x0 PUSH2 0x100 EXP DUP2 SLOAD DUP2 PUSH1 0xFF MUL NOT AND SWAP1 DUP4 ISZERO ISZERO MUL OR SWAP1 SSTORE POP JUMP JUMPDEST PUSH1 0x0 PUSH1 0x13 PUSH1 0x0 DUP4 DUP2 MSTORE PUSH1 0x20 ADD SWAP1 DUP2 MSTORE PUSH1 0x20 ADD PUSH1 0x0 KECCAK256 PUSH1 0x0 SWAP1 SLOAD SWAP1 PUSH2 0x100 EXP SWAP1 DIV PUSH1 0xFF AND SWAP1 POP SWAP2 SWAP1 POP JUMP JUMPDEST PUSH1 0x0 PUSH1 0xC PUSH1 0x0 SWAP1 SLOAD SWAP1 PUSH2 0x100 EXP SWAP1 DIV PUSH20 0xFFFFFFFFFFFFFFFFFFFFFFFFFFFFFFFFFFFFFFFF AND SWAP1 POP SWAP1 JUMP JUMPDEST PUSH1 0x60 PUSH1 0x1 DUP1 SLOAD PUSH2 0x18B3 SWAP1 PUSH2 0x42D8 JUMP JUMPDEST DUP1 PUSH1 0x1F ADD PUSH1 0x20 DUP1 SWAP2 DIV MUL PUSH1 0x20 ADD PUSH1 0x40 MLOAD SWAP1 DUP2 ADD PUSH1 0x40 MSTORE DUP1 SWAP3 SWAP2 SWAP1 DUP2 DUP2 MSTORE PUSH1 0x20 ADD DUP3 DUP1 SLOAD PUSH2 0x18DF SWAP1 PUSH2 0x42D8 JUMP JUMPDEST DUP1 ISZERO PUSH2 0x192C JUMPI DUP1 PUSH1 0x1F LT PUSH2 0x1901 JUMPI PUSH2 0x100 DUP1 DUP4 SLOAD DIV MUL DUP4 MSTORE SWAP2 PUSH1 0x20 ADD SWAP2 PUSH2 0x192C JUMP JUMPDEST DUP3 ADD SWAP2 SWAP1 PUSH1 0x0 MSTORE PUSH1 0x20 PUSH1 0x0 KECCAK256 SWAP1 JUMPDEST DUP2 SLOAD DUP2 MSTORE SWAP1 PUSH1 0x1 ADD SWAP1 PUSH1 0x20 ADD DUP1 DUP4 GT PUSH2 0x190F JUMPI DUP3 SWAP1 SUB PUSH1 0x1F AND DUP3 ADD SWAP2 JUMPDEST POP POP POP POP POP SWAP1 POP SWAP1 JUMP JUMPDEST PUSH1 0x12 PUSH1 0x20 MSTORE DUP1 PUSH1 0x0 MSTORE PUSH1 0x40 PUSH1 0x0 KECCAK256 PUSH1 0x0 SWAP2 POP SLOAD SWAP1 PUSH2 0x100 EXP SWAP1 DIV PUSH1 0xFF AND DUP2 JUMP JUMPDEST PUSH1 0x15 PUSH1 0x0 SWAP1 SLOAD SWAP1 PUSH2 0x100 EXP SWAP1 DIV PUSH1 0xFF AND DUP2 JUMP JUMPDEST PUSH2 0x197B PUSH2 0x1974 PUSH2 0x217A JUMP JUMPDEST DUP4 DUP4 PUSH2 0x28D7 JUMP JUMPDEST POP POP JUMP JUMPDEST PUSH2 0x1990 PUSH2 0x198A PUSH2 0x217A JUMP JUMPDEST DUP4 PUSH2 0x2249 JUMP JUMPDEST PUSH2 0x19CF JUMPI PUSH1 0x40 MLOAD PUSH32 0x8C379A000000000000000000000000000000000000000000000000000000000 DUP2 MSTORE PUSH1 0x4 ADD PUSH2 0x19C6 SWAP1 PUSH2 0x449F JUMP JUMPDEST PUSH1 0x40 MLOAD DUP1 SWAP2 SUB SWAP1 REVERT JUMPDEST PUSH2 0x19DB DUP5 DUP5 DUP5 DUP5 PUSH2 0x2A43 JUMP JUMPDEST POP POP POP POP JUMP JUMPDEST PUSH7 0x38D7EA4C68000 DUP2 JUMP JUMPDEST PUSH1 0x60 PUSH2 0x19F7 DUP3 PUSH2 0x2A9F JUMP JUMPDEST SWAP1 POP SWAP2 SWAP1 POP JUMP JUMPDEST PUSH1 0xE PUSH1 0x20 MSTORE DUP1 PUSH1 0x0 MSTORE PUSH1 0x40 PUSH1 0x0 KECCAK256 PUSH1 0x0 SWAP2 POP SWAP1 POP DUP1 PUSH1 0x0 ADD SLOAD SWAP1 DUP1 PUSH1 0x1 ADD DUP1 SLOAD PUSH2 0x1A27 SWAP1 PUSH2 0x42D8 JUMP JUMPDEST DUP1 PUSH1 0x1F ADD PUSH1 0x20 DUP1 SWAP2 DIV MUL PUSH1 0x20 ADD PUSH1 0x40 MLOAD SWAP1 DUP2 ADD PUSH1 0x40 MSTORE DUP1 SWAP3 SWAP2 SWAP1 DUP2 DUP2 MSTORE PUSH1 0x20 ADD DUP3 DUP1 SLOAD PUSH2 0x1A53 SWAP1 PUSH2 0x42D8 JUMP JUMPDEST DUP1 ISZERO PUSH2 0x1AA0 JUMPI DUP1 PUSH1 0x1F LT PUSH2 0x1A75 JUMPI PUSH2 0x100 DUP1 DUP4 SLOAD DIV MUL DUP4 MSTORE SWAP2 PUSH1 0x20 ADD SWAP2 PUSH2 0x1AA0 JUMP JUMPDEST DUP3 ADD SWAP2 SWAP1 PUSH1 0x0 MSTORE PUSH1 0x20 PUSH1 0x0 KECCAK256 SWAP1 JUMPDEST DUP2 SLOAD DUP2 MSTORE SWAP1 PUSH1 0x1 ADD SWAP1 PUSH1 0x20 ADD DUP1 DUP4 GT PUSH2 0x1A83 JUMPI DUP3 SWAP1 SUB PUSH1 0x1F AND DUP3 ADD SWAP2 JUMPDEST POP POP POP POP POP SWAP1 DUP1 PUSH1 0x2 ADD PUSH1 0x0 SWAP1 SLOAD SWAP1 PUSH2 0x100 EXP SWAP1 DIV PUSH20 0xFFFFFFFFFFFFFFFFFFFFFFFFFFFFFFFFFFFFFFFF AND SWAP1 DUP1 PUSH1 0x2 ADD PUSH1 0x14 SWAP1 SLOAD SWAP1 PUSH2 0x100 EXP SWAP1 DIV PUSH1 0xFF AND SWAP1 DUP1 PUSH1 0x3 ADD SLOAD SWAP1 DUP1 PUSH1 0x4 ADD DUP1 SLOAD PUSH2 0x1AF4 SWAP1 PUSH2 0x42D8 JUMP JUMPDEST DUP1 PUSH1 0x1F ADD PUSH1 0x20 DUP1 SWAP2 DIV MUL PUSH1 0x20 ADD PUSH1 0x40 MLOAD SWAP1 DUP2 ADD PUSH1 0x40 MSTORE DUP1 SWAP3 SWAP2 SWAP1 DUP2 DUP2 MSTORE PUSH1 0x20 ADD DUP3 DUP1 SLOAD PUSH2 0x1B20 SWAP1 PUSH2 0x42D8 JUMP JUMPDEST DUP1 ISZERO PUSH2 0x1B6D JUMPI DUP1 PUSH1 0x1F LT PUSH2 0x1B42 JUMPI PUSH2 0x100 DUP1 DUP4 SLOAD DIV MUL DUP4 MSTORE SWAP2 PUSH1 0x20 ADD SWAP2 PUSH2 0x1B6D JUMP JUMPDEST DUP3 ADD SWAP2 SWAP1 PUSH1 0x0 MSTORE PUSH1 0x20 PUSH1 0x0 KECCAK256 SWAP1 JUMPDEST DUP2 SLOAD DUP2 MSTORE SWAP1 PUSH1 0x1 ADD SWAP1 PUSH1 0x20 ADD DUP1 DUP4 GT PUSH2 0x1B50 JUMPI DUP3 SWAP1 SUB PUSH1 0x1F AND DUP3 ADD SWAP2 JUMPDEST POP POP POP POP POP SWAP1 POP DUP7 JUMP JUMPDEST PUSH1 0x14 SLOAD DUP2 JUMP JUMPDEST PUSH1 0x13 PUSH1 0x20 MSTORE DUP1 PUSH1 0x0 MSTORE PUSH1 0x40 PUSH1 0x0 KECCAK256 PUSH1 0x0 SWAP2 POP SLOAD SWAP1 PUSH2 0x100 EXP SWAP1 DIV PUSH1 0xFF AND DUP2 JUMP JUMPDEST PUSH1 0x0 PUSH1 0x5 PUSH1 0x0 DUP5 PUSH20 0xFFFFFFFFFFFFFFFFFFFFFFFFFFFFFFFFFFFFFFFF AND PUSH20 0xFFFFFFFFFFFFFFFFFFFFFFFFFFFFFFFFFFFFFFFF AND DUP2 MSTORE PUSH1 0x20 ADD SWAP1 DUP2 MSTORE PUSH1 0x20 ADD PUSH1 0x0 KECCAK256 PUSH1 0x0 DUP4 PUSH20 0xFFFFFFFFFFFFFFFFFFFFFFFFFFFFFFFFFFFFFFFF AND PUSH20 0xFFFFFFFFFFFFFFFFFFFFFFFFFFFFFFFFFFFFFFFF AND DUP2 MSTORE PUSH1 0x20 ADD SWAP1 DUP2 MSTORE PUSH1 0x20 ADD PUSH1 0x0 KECCAK256 PUSH1 0x0 SWAP1 SLOAD SWAP1 PUSH2 0x100 EXP SWAP1 DIV PUSH1 0xFF AND SWAP1 POP SWAP3 SWAP2 POP POP JUMP JUMPDEST PUSH1 0x10 PUSH1 0x20 MSTORE DUP1 PUSH1 0x0 MSTORE PUSH1 0x40 PUSH1 0x0 KECCAK256 PUSH1 0x0 SWAP2 POP SWAP1 POP SLOAD DUP2 JUMP JUMPDEST PUSH2 0x1C51 PUSH2 0x38A2 JUMP JUMPDEST PUSH2 0x1C5A DUP3 PUSH2 0x27D0 JUMP JUMPDEST PUSH2 0x1C99 JUMPI PUSH1 0x40 MLOAD PUSH32 0x8C379A000000000000000000000000000000000000000000000000000000000 DUP2 MSTORE PUSH1 0x4 ADD PUSH2 0x1C90 SWAP1 PUSH2 0x4BF6 JUMP JUMPDEST PUSH1 0x40 MLOAD DUP1 SWAP2 SUB SWAP1 REVERT JUMPDEST PUSH1 0xE PUSH1 0x0 DUP4 DUP2 MSTORE PUSH1 0x20 ADD SWAP1 DUP2 MSTORE PUSH1 0x20 ADD PUSH1 0x0 KECCAK256 PUSH1 0x40 MLOAD DUP1 PUSH1 0xC0 ADD PUSH1 0x40 MSTORE SWAP1 DUP2 PUSH1 0x0 DUP3 ADD SLOAD DUP2 MSTORE PUSH1 0x20 ADD PUSH1 0x1 DUP3 ADD DUP1 SLOAD PUSH2 0x1CD1 SWAP1 PUSH2 0x42D8 JUMP JUMPDEST DUP1 PUSH1 0x1F ADD PUSH1 0x20 DUP1 SWAP2 DIV MUL PUSH1 0x20 ADD PUSH1 0x40 MLOAD SWAP1 DUP2 ADD PUSH1 0x40 MSTORE DUP1 SWAP3 SWAP2 SWAP1 DUP2 DUP2 MSTORE PUSH1 0x20 ADD DUP3 DUP1 SLOAD PUSH2 0x1CFD SWAP1 PUSH2 0x42D8 JUMP JUMPDEST DUP1 ISZERO PUSH2 0x1D4A JUMPI DUP1 PUSH1 0x1F LT PUSH2 0x1D1F JUMPI PUSH2 0x100 DUP1 DUP4 SLOAD DIV MUL DUP4 MSTORE SWAP2 PUSH1 0x20 ADD SWAP2 PUSH2 0x1D4A JUMP JUMPDEST DUP3 ADD SWAP2 SWAP1 PUSH1 0x0 MSTORE PUSH1 0x20 PUSH1 0x0 KECCAK256 SWAP1 JUMPDEST DUP2 SLOAD DUP2 MSTORE SWAP1 PUSH1 0x1 ADD SWAP1 PUSH1 0x20 ADD DUP1 DUP4 GT PUSH2 0x1D2D JUMPI DUP3 SWAP1 SUB PUSH1 0x1F AND DUP3 ADD SWAP2 JUMPDEST POP POP POP POP POP DUP2 MSTORE PUSH1 0x20 ADD PUSH1 0x2 DUP3 ADD PUSH1 0x0 SWAP1 SLOAD SWAP1 PUSH2 0x100 EXP SWAP1 DIV PUSH20 0xFFFFFFFFFFFFFFFFFFFFFFFFFFFFFFFFFFFFFFFF AND PUSH20 0xFFFFFFFFFFFFFFFFFFFFFFFFFFFFFFFFFFFFFFFF AND PUSH20 0xFFFFFFFFFFFFFFFFFFFFFFFFFFFFFFFFFFFFFFFF AND DUP2 MSTORE PUSH1 0x20 ADD PUSH1 0x2 DUP3 ADD PUSH1 0x14 SWAP1 SLOAD SWAP1 PUSH2 0x100 EXP SWAP1 DIV PUSH1 0xFF AND ISZERO ISZERO ISZERO ISZERO DUP2 MSTORE PUSH1 0x20 ADD PUSH1 0x3 DUP3 ADD SLOAD DUP2 MSTORE PUSH1 0x20 ADD PUSH1 0x4 DUP3 ADD DUP1 SLOAD PUSH2 0x1DDE SWAP1 PUSH2 0x42D8 JUMP JUMPDEST DUP1 PUSH1 0x1F ADD PUSH1 0x20 DUP1 SWAP2 DIV MUL PUSH1 0x20 ADD PUSH1 0x40 MLOAD SWAP1 DUP2 ADD PUSH1 0x40 MSTORE DUP1 SWAP3 SWAP2 SWAP1 DUP2 DUP2 MSTORE PUSH1 0x20 ADD DUP3 DUP1 SLOAD PUSH2 0x1E0A SWAP1 PUSH2 0x42D8 JUMP JUMPDEST DUP1 ISZERO PUSH2 0x1E57 JUMPI DUP1 PUSH1 0x1F LT PUSH2 0x1E2C JUMPI PUSH2 0x100 DUP1 DUP4 SLOAD DIV MUL DUP4 MSTORE SWAP2 PUSH1 0x20 ADD SWAP2 PUSH2 0x1E57 JUMP JUMPDEST DUP3 ADD SWAP2 SWAP1 PUSH1 0x0 MSTORE PUSH1 0x20 PUSH1 0x0 KECCAK256 SWAP1 JUMPDEST DUP2 SLOAD DUP2 MSTORE SWAP1 PUSH1 0x1 ADD SWAP1 PUSH1 0x20 ADD DUP1 DUP4 GT PUSH2 0x1E3A JUMPI DUP3 SWAP1 SUB PUSH1 0x1F AND DUP3 ADD SWAP2 JUMPDEST POP POP POP POP POP DUP2 MSTORE POP POP SWAP1 POP SWAP2 SWAP1 POP JUMP JUMPDEST PUSH2 0x1E70 DUP2 PUSH2 0x27D0 JUMP JUMPDEST PUSH2 0x1EAF JUMPI PUSH1 0x40 MLOAD PUSH32 0x8C379A000000000000000000000000000000000000000000000000000000000 DUP2 MSTORE PUSH1 0x4 ADD PUSH2 0x1EA6 SWAP1 PUSH2 0x4BF6 JUMP JUMPDEST PUSH1 0x40 MLOAD DUP1 SWAP2 SUB SWAP1 REVERT JUMPDEST CALLER PUSH20 0xFFFFFFFFFFFFFFFFFFFFFFFFFFFFFFFFFFFFFFFF AND PUSH2 0x1ECF DUP3 PUSH2 0x132D JUMP JUMPDEST PUSH20 0xFFFFFFFFFFFFFFFFFFFFFFFFFFFFFFFFFFFFFFFF AND EQ PUSH2 0x1F25 JUMPI PUSH1 0x40 MLOAD PUSH32 0x8C379A000000000000000000000000000000000000000000000000000000000 DUP2 MSTORE PUSH1 0x4 ADD PUSH2 0x1F1C SWAP1 PUSH2 0x4F25 JUMP JUMPDEST PUSH1 0x40 MLOAD DUP1 SWAP2 SUB SWAP1 REVERT JUMPDEST PUSH1 0xE PUSH1 0x0 DUP3 DUP2 MSTORE PUSH1 0x20 ADD SWAP1 DUP2 MSTORE PUSH1 0x20 ADD PUSH1 0x0 KECCAK256 PUSH1 0x2 ADD PUSH1 0x14 SWAP1 SLOAD SWAP1 PUSH2 0x100 EXP SWAP1 DIV PUSH1 0xFF AND ISZERO PUSH1 0xE PUSH1 0x0 DUP4 DUP2 MSTORE PUSH1 0x20 ADD SWAP1 DUP2 MSTORE PUSH1 0x20 ADD PUSH1 0x0 KECCAK256 PUSH1 0x2 ADD PUSH1 0x14 PUSH2 0x100 EXP DUP2 SLOAD DUP2 PUSH1 0xFF MUL NOT AND SWAP1 DUP4 ISZERO ISZERO MUL OR SWAP1 SSTORE POP DUP1 PUSH32 0x10C65BF7A9FEB8308F4BD53D052CD5B3B7DCFAD9B9E51EB190372786FEC643A2 PUSH1 0xE PUSH1 0x0 DUP5 DUP2 MSTORE PUSH1 0x20 ADD SWAP1 DUP2 MSTORE PUSH1 0x20 ADD PUSH1 0x0 KECCAK256 PUSH1 0x2 ADD PUSH1 0x14 SWAP1 SLOAD SWAP1 PUSH2 0x100 EXP SWAP1 DIV PUSH1 0xFF AND PUSH1 0x40 MLOAD PUSH2 0x1FCA SWAP2 SWAP1 PUSH2 0x39A4 JUMP JUMPDEST PUSH1 0x40 MLOAD DUP1 SWAP2 SUB SWAP1 LOG2 POP JUMP JUMPDEST PUSH2 0x1FDD PUSH2 0x25D7 JUMP JUMPDEST PUSH1 0x0 PUSH20 0xFFFFFFFFFFFFFFFFFFFFFFFFFFFFFFFFFFFFFFFF AND DUP2 PUSH20 0xFFFFFFFFFFFFFFFFFFFFFFFFFFFFFFFFFFFFFFFF AND SUB PUSH2 0x204C JUMPI PUSH1 0x40 MLOAD PUSH32 0x8C379A000000000000000000000000000000000000000000000000000000000 DUP2 MSTORE PUSH1 0x4 ADD PUSH2 0x2043 SWAP1 PUSH2 0x4FB7 JUMP JUMPDEST PUSH1 0x40 MLOAD DUP1 SWAP2 SUB SWAP1 REVERT JUMPDEST PUSH2 0x2055 DUP2 PUSH2 0x2811 JUMP JUMPDEST POP JUMP JUMPDEST PUSH1 0xF DUP2 DUP1 MLOAD PUSH1 0x20 DUP2 ADD DUP3 ADD DUP1 MLOAD DUP5 DUP3 MSTORE PUSH1 0x20 DUP4 ADD PUSH1 0x20 DUP6 ADD KECCAK256 DUP2 DUP4 MSTORE DUP1 SWAP6 POP POP POP POP POP POP PUSH1 0x0 SWAP2 POP SWAP1 POP SLOAD DUP2 JUMP JUMPDEST PUSH1 0x11 PUSH1 0x20 MSTORE DUP2 PUSH1 0x0 MSTORE PUSH1 0x40 PUSH1 0x0 KECCAK256 PUSH1 0x20 MSTORE DUP1 PUSH1 0x0 MSTORE PUSH1 0x40 PUSH1 0x0 KECCAK256 PUSH1 0x0 SWAP2 POP SWAP2 POP SWAP1 SLOAD SWAP1 PUSH2 0x100 EXP SWAP1 DIV PUSH1 0xFF AND DUP2 JUMP JUMPDEST PUSH1 0x0 PUSH32 0x780E9D6300000000000000000000000000000000000000000000000000000000 PUSH28 0xFFFFFFFFFFFFFFFFFFFFFFFFFFFFFFFFFFFFFFFFFFFFFFFFFFFFFFFF NOT AND DUP3 PUSH28 0xFFFFFFFFFFFFFFFFFFFFFFFFFFFFFFFFFFFFFFFFFFFFFFFFFFFFFFFF NOT AND EQ DUP1 PUSH2 0x2128 JUMPI POP PUSH2 0x2127 DUP3 PUSH2 0x2BB1 JUMP JUMPDEST JUMPDEST SWAP1 POP SWAP2 SWAP1 POP JUMP JUMPDEST PUSH2 0x2138 DUP2 PUSH2 0x27D0 JUMP JUMPDEST PUSH2 0x2177 JUMPI PUSH1 0x40 MLOAD PUSH32 0x8C379A000000000000000000000000000000000000000000000000000000000 DUP2 MSTORE PUSH1 0x4 ADD PUSH2 0x216E SWAP1 PUSH2 0x4B8A JUMP JUMPDEST PUSH1 0x40 MLOAD DUP1 SWAP2 SUB SWAP1 REVERT JUMPDEST POP JUMP JUMPDEST PUSH1 0x0 CALLER SWAP1 POP SWAP1 JUMP JUMPDEST DUP2 PUSH1 0x4 PUSH1 0x0 DUP4 DUP2 MSTORE PUSH1 0x20 ADD SWAP1 DUP2 MSTORE PUSH1 0x20 ADD PUSH1 0x0 KECCAK256 PUSH1 0x0 PUSH2 0x100 EXP DUP2 SLOAD DUP2 PUSH20 0xFFFFFFFFFFFFFFFFFFFFFFFFFFFFFFFFFFFFFFFF MUL NOT AND SWAP1 DUP4 PUSH20 0xFFFFFFFFFFFFFFFFFFFFFFFFFFFFFFFFFFFFFFFF AND MUL OR SWAP1 SSTORE POP DUP1 DUP3 PUSH20 0xFFFFFFFFFFFFFFFFFFFFFFFFFFFFFFFFFFFFFFFF AND PUSH2 0x21F5 DUP4 PUSH2 0x132D JUMP JUMPDEST PUSH20 0xFFFFFFFFFFFFFFFFFFFFFFFFFFFFFFFFFFFFFFFF AND PUSH32 0x8C5BE1E5EBEC7D5BD14F71427D1E84F3DD0314C0F7B2291E5B200AC8C7C3B925 PUSH1 0x40 MLOAD PUSH1 0x40 MLOAD DUP1 SWAP2 SUB SWAP1 LOG4 POP POP JUMP JUMPDEST PUSH1 0x0 DUP2 PUSH1 0x0 ADD SLOAD SWAP1 POP SWAP2 SWAP1 POP JUMP JUMPDEST PUSH1 0x0 DUP1 PUSH2 0x2255 DUP4 PUSH2 0x132D JUMP JUMPDEST SWAP1 POP DUP1 PUSH20 0xFFFFFFFFFFFFFFFFFFFFFFFFFFFFFFFFFFFFFFFF AND DUP5 PUSH20 0xFFFFFFFFFFFFFFFFFFFFFFFFFFFFFFFFFFFFFFFF AND EQ DUP1 PUSH2 0x2297 JUMPI POP PUSH2 0x2296 DUP2 DUP6 PUSH2 0x1B9D JUMP JUMPDEST JUMPDEST DUP1 PUSH2 0x22D5 JUMPI POP DUP4 PUSH20 0xFFFFFFFFFFFFFFFFFFFFFFFFFFFFFFFFFFFFFFFF AND PUSH2 0x22BD DUP5 PUSH2 0xA3E JUMP JUMPDEST PUSH20 0xFFFFFFFFFFFFFFFFFFFFFFFFFFFFFFFFFFFFFFFF AND EQ JUMPDEST SWAP2 POP POP SWAP3 SWAP2 POP POP JUMP JUMPDEST DUP3 PUSH20 0xFFFFFFFFFFFFFFFFFFFFFFFFFFFFFFFFFFFFFFFF AND PUSH2 0x22FE DUP3 PUSH2 0x132D JUMP JUMPDEST PUSH20 0xFFFFFFFFFFFFFFFFFFFFFFFFFFFFFFFFFFFFFFFF AND EQ PUSH2 0x2354 JUMPI PUSH1 0x40 MLOAD PUSH32 0x8C379A000000000000000000000000000000000000000000000000000000000 DUP2 MSTORE PUSH1 0x4 ADD PUSH2 0x234B SWAP1 PUSH2 0x5049 JUMP JUMPDEST PUSH1 0x40 MLOAD DUP1 SWAP2 SUB SWAP1 REVERT JUMPDEST PUSH1 0x0 PUSH20 0xFFFFFFFFFFFFFFFFFFFFFFFFFFFFFFFFFFFFFFFF AND DUP3 PUSH20 0xFFFFFFFFFFFFFFFFFFFFFFFFFFFFFFFFFFFFFFFF AND SUB PUSH2 0x23C3 JUMPI PUSH1 0x40 MLOAD PUSH32 0x8C379A000000000000000000000000000000000000000000000000000000000 DUP2 MSTORE PUSH1 0x4 ADD PUSH2 0x23BA SWAP1 PUSH2 0x50DB JUMP JUMPDEST PUSH1 0x40 MLOAD DUP1 SWAP2 SUB SWAP1 REVERT JUMPDEST PUSH2 0x23D0 DUP4 DUP4 DUP4 PUSH1 0x1 PUSH2 0x2C12 JUMP JUMPDEST DUP3 PUSH20 0xFFFFFFFFFFFFFFFFFFFFFFFFFFFFFFFFFFFFFFFF AND PUSH2 0x23F0 DUP3 PUSH2 0x132D JUMP JUMPDEST PUSH20 0xFFFFFFFFFFFFFFFFFFFFFFFFFFFFFFFFFFFFFFFF AND EQ PUSH2 0x2446 JUMPI PUSH1 0x40 MLOAD PUSH32 0x8C379A000000000000000000000000000000000000000000000000000000000 DUP2 MSTORE PUSH1 0x4 ADD PUSH2 0x243D SWAP1 PUSH2 0x5049 JUMP JUMPDEST PUSH1 0x40 MLOAD DUP1 SWAP2 SUB SWAP1 REVERT JUMPDEST PUSH1 0x4 PUSH1 0x0 DUP3 DUP2 MSTORE PUSH1 0x20 ADD SWAP1 DUP2 MSTORE PUSH1 0x20 ADD PUSH1 0x0 KECCAK256 PUSH1 0x0 PUSH2 0x100 EXP DUP2 SLOAD SWAP1 PUSH20 0xFFFFFFFFFFFFFFFFFFFFFFFFFFFFFFFFFFFFFFFF MUL NOT AND SWAP1 SSTORE PUSH1 0x1 PUSH1 0x3 PUSH1 0x0 DUP6 PUSH20 0xFFFFFFFFFFFFFFFFFFFFFFFFFFFFFFFFFFFFFFFF AND PUSH20 0xFFFFFFFFFFFFFFFFFFFFFFFFFFFFFFFFFFFFFFFF AND DUP2 MSTORE PUSH1 0x20 ADD SWAP1 DUP2 MSTORE PUSH1 0x20 ADD PUSH1 0x0 KECCAK256 PUSH1 0x0 DUP3 DUP3 SLOAD SUB SWAP3 POP POP DUP2 SWAP1 SSTORE POP PUSH1 0x1 PUSH1 0x3 PUSH1 0x0 DUP5 PUSH20 0xFFFFFFFFFFFFFFFFFFFFFFFFFFFFFFFFFFFFFFFF AND PUSH20 0xFFFFFFFFFFFFFFFFFFFFFFFFFFFFFFFFFFFFFFFF AND DUP2 MSTORE PUSH1 0x20 ADD SWAP1 DUP2 MSTORE PUSH1 0x20 ADD PUSH1 0x0 KECCAK256 PUSH1 0x0 DUP3 DUP3 SLOAD ADD SWAP3 POP POP DUP2 SWAP1 SSTORE POP DUP2 PUSH1 0x2 PUSH1 0x0 DUP4 DUP2 MSTORE PUSH1 0x20 ADD SWAP1 DUP2 MSTORE PUSH1 0x20 ADD PUSH1 0x0 KECCAK256 PUSH1 0x0 PUSH2 0x100 EXP DUP2 SLOAD DUP2 PUSH20 0xFFFFFFFFFFFFFFFFFFFFFFFFFFFFFFFFFFFFFFFF MUL NOT AND SWAP1 DUP4 PUSH20 0xFFFFFFFFFFFFFFFFFFFFFFFFFFFFFFFFFFFFFFFF AND MUL OR SWAP1 SSTORE POP DUP1 DUP3 PUSH20 0xFFFFFFFFFFFFFFFFFFFFFFFFFFFFFFFFFFFFFFFF AND DUP5 PUSH20 0xFFFFFFFFFFFFFFFFFFFFFFFFFFFFFFFFFFFFFFFF AND PUSH32 0xDDF252AD1BE2C89B69C2B068FC378DAA952BA7F163C4A11628F55A4DF523B3EF PUSH1 0x40 MLOAD PUSH1 0x40 MLOAD DUP1 SWAP2 SUB SWAP1 LOG4 PUSH2 0x25D2 DUP4 DUP4 DUP4 PUSH1 0x1 PUSH2 0x2C24 JUMP JUMPDEST POP POP POP JUMP JUMPDEST PUSH2 0x25DF PUSH2 0x217A JUMP JUMPDEST PUSH20 0xFFFFFFFFFFFFFFFFFFFFFFFFFFFFFFFFFFFFFFFF AND PUSH2 0x25FD PUSH2 0x187A JUMP JUMPDEST PUSH20 0xFFFFFFFFFFFFFFFFFFFFFFFFFFFFFFFFFFFFFFFF AND EQ PUSH2 0x2653 JUMPI PUSH1 0x40 MLOAD PUSH32 0x8C379A000000000000000000000000000000000000000000000000000000000 DUP2 MSTORE PUSH1 0x4 ADD PUSH2 0x264A SWAP1 PUSH2 0x5147 JUMP JUMPDEST PUSH1 0x40 MLOAD DUP1 SWAP2 SUB SWAP1 REVERT JUMPDEST JUMP JUMPDEST PUSH1 0x0 PUSH1 0x9 DUP1 SLOAD SWAP1 POP SWAP1 POP SWAP1 JUMP JUMPDEST PUSH1 0x2 PUSH1 0xB SLOAD SUB PUSH2 0x26A7 JUMPI PUSH1 0x40 MLOAD PUSH32 0x8C379A000000000000000000000000000000000000000000000000000000000 DUP2 MSTORE PUSH1 0x4 ADD PUSH2 0x269E SWAP1 PUSH2 0x51B3 JUMP JUMPDEST PUSH1 0x40 MLOAD DUP1 SWAP2 SUB SWAP1 REVERT JUMPDEST PUSH1 0x2 PUSH1 0xB DUP2 SWAP1 SSTORE POP JUMP JUMPDEST PUSH1 0x1 DUP2 PUSH1 0x0 ADD PUSH1 0x0 DUP3 DUP3 SLOAD ADD SWAP3 POP POP DUP2 SWAP1 SSTORE POP POP JUMP JUMPDEST PUSH2 0x26E1 DUP3 DUP3 PUSH1 0x40 MLOAD DUP1 PUSH1 0x20 ADD PUSH1 0x40 MSTORE DUP1 PUSH1 0x0 DUP2 MSTORE POP PUSH2 0x2C2A JUMP JUMPDEST POP POP JUMP JUMPDEST PUSH2 0x26EE DUP3 PUSH2 0x27D0 JUMP JUMPDEST PUSH2 0x272D JUMPI PUSH1 0x40 MLOAD PUSH32 0x8C379A000000000000000000000000000000000000000000000000000000000 DUP2 MSTORE PUSH1 0x4 ADD PUSH2 0x2724 SWAP1 PUSH2 0x5245 JUMP JUMPDEST PUSH1 0x40 MLOAD DUP1 SWAP2 SUB SWAP1 REVERT JUMPDEST DUP1 PUSH1 0x6 PUSH1 0x0 DUP5 DUP2 MSTORE PUSH1 0x20 ADD SWAP1 DUP2 MSTORE PUSH1 0x20 ADD PUSH1 0x0 KECCAK256 SWAP1 DUP2 PUSH2 0x274D SWAP2 SWAP1 PUSH2 0x4A6C JUMP JUMPDEST POP PUSH32 0xF8E1A15ABA9398E019F0B49DF1A4FDE98EE17AE345CB5F6B5E2C27F5033E8CE7 DUP3 PUSH1 0x40 MLOAD PUSH2 0x277D SWAP2 SWAP1 PUSH2 0x3BAB JUMP JUMPDEST PUSH1 0x40 MLOAD DUP1 SWAP2 SUB SWAP1 LOG1 POP POP JUMP JUMPDEST PUSH1 0x1 PUSH1 0xB DUP2 SWAP1 SSTORE POP JUMP JUMPDEST PUSH1 0x0 PUSH1 0x2 PUSH1 0x0 DUP4 DUP2 MSTORE PUSH1 0x20 ADD SWAP1 DUP2 MSTORE PUSH1 0x20 ADD PUSH1 0x0 KECCAK256 PUSH1 0x0 SWAP1 SLOAD SWAP1 PUSH2 0x100 EXP SWAP1 DIV PUSH20 0xFFFFFFFFFFFFFFFFFFFFFFFFFFFFFFFFFFFFFFFF AND SWAP1 POP SWAP2 SWAP1 POP JUMP JUMPDEST PUSH1 0x0 DUP1 PUSH20 0xFFFFFFFFFFFFFFFFFFFFFFFFFFFFFFFFFFFFFFFF AND PUSH2 0x27F2 DUP4 PUSH2 0x2793 JUMP JUMPDEST PUSH20 0xFFFFFFFFFFFFFFFFFFFFFFFFFFFFFFFFFFFFFFFF AND EQ ISZERO SWAP1 POP SWAP2 SWAP1 POP JUMP JUMPDEST PUSH1 0x0 PUSH1 0xC PUSH1 0x0 SWAP1 SLOAD SWAP1 PUSH2 0x100 EXP SWAP1 DIV PUSH20 0xFFFFFFFFFFFFFFFFFFFFFFFFFFFFFFFFFFFFFFFF AND SWAP1 POP DUP2 PUSH1 0xC PUSH1 0x0 PUSH2 0x100 EXP DUP2 SLOAD DUP2 PUSH20 0xFFFFFFFFFFFFFFFFFFFFFFFFFFFFFFFFFFFFFFFF MUL NOT AND SWAP1 DUP4 PUSH20 0xFFFFFFFFFFFFFFFFFFFFFFFFFFFFFFFFFFFFFFFF AND MUL OR SWAP1 SSTORE POP DUP2 PUSH20 0xFFFFFFFFFFFFFFFFFFFFFFFFFFFFFFFFFFFFFFFF AND DUP2 PUSH20 0xFFFFFFFFFFFFFFFFFFFFFFFFFFFFFFFFFFFFFFFF AND PUSH32 0x8BE0079C531659141344CD1FD0A4F28419497F9722A3DAAFE3B4186F6B6457E0 PUSH1 0x40 MLOAD PUSH1 0x40 MLOAD DUP1 SWAP2 SUB SWAP1 LOG3 POP POP JUMP JUMPDEST DUP2 PUSH20 0xFFFFFFFFFFFFFFFFFFFFFFFFFFFFFFFFFFFFFFFF AND DUP4 PUSH20 0xFFFFFFFFFFFFFFFFFFFFFFFFFFFFFFFFFFFFFFFF AND SUB PUSH2 0x2945 JUMPI PUSH1 0x40 MLOAD PUSH32 0x8C379A000000000000000000000000000000000000000000000000000000000 DUP2 MSTORE PUSH1 0x4 ADD PUSH2 0x293C SWAP1 PUSH2 0x52B1 JUMP JUMPDEST PUSH1 0x40 MLOAD DUP1 SWAP2 SUB SWAP1 REVERT JUMPDEST DUP1 PUSH1 0x5 PUSH1 0x0 DUP6 PUSH20 0xFFFFFFFFFFFFFFFFFFFFFFFFFFFFFFFFFFFFFFFF AND PUSH20 0xFFFFFFFFFFFFFFFFFFFFFFFFFFFFFFFFFFFFFFFF AND DUP2 MSTORE PUSH1 0x20 ADD SWAP1 DUP2 MSTORE PUSH1 0x20 ADD PUSH1 0x0 KECCAK256 PUSH1 0x0 DUP5 PUSH20 0xFFFFFFFFFFFFFFFFFFFFFFFFFFFFFFFFFFFFFFFF AND PUSH20 0xFFFFFFFFFFFFFFFFFFFFFFFFFFFFFFFFFFFFFFFF AND DUP2 MSTORE PUSH1 0x20 ADD SWAP1 DUP2 MSTORE PUSH1 0x20 ADD PUSH1 0x0 KECCAK256 PUSH1 0x0 PUSH2 0x100 EXP DUP2 SLOAD DUP2 PUSH1 0xFF MUL NOT AND SWAP1 DUP4 ISZERO ISZERO MUL OR SWAP1 SSTORE POP DUP2 PUSH20 0xFFFFFFFFFFFFFFFFFFFFFFFFFFFFFFFFFFFFFFFF AND DUP4 PUSH20 0xFFFFFFFFFFFFFFFFFFFFFFFFFFFFFFFFFFFFFFFF AND PUSH32 0x17307EAB39AB6107E8899845AD3D59BD9653F200F220920489CA2B5937696C31 DUP4 PUSH1 0x40 MLOAD PUSH2 0x2A36 SWAP2 SWAP1 PUSH2 0x39A4 JUMP JUMPDEST PUSH1 0x40 MLOAD DUP1 SWAP2 SUB SWAP1 LOG3 POP POP POP JUMP JUMPDEST PUSH2 0x2A4E DUP5 DUP5 DUP5 PUSH2 0x22DE JUMP JUMPDEST PUSH2 0x2A5A DUP5 DUP5 DUP5 DUP5 PUSH2 0x2C85 JUMP JUMPDEST PUSH2 0x2A99 JUMPI PUSH1 0x40 MLOAD PUSH32 0x8C379A000000000000000000000000000000000000000000000000000000000 DUP2 MSTORE PUSH1 0x4 ADD PUSH2 0x2A90 SWAP1 PUSH2 0x5343 JUMP JUMPDEST PUSH1 0x40 MLOAD DUP1 SWAP2 SUB SWAP1 REVERT JUMPDEST POP POP POP POP JUMP JUMPDEST PUSH1 0x60 PUSH2 0x2AAA DUP3 PUSH2 0x212F JUMP JUMPDEST PUSH1 0x0 PUSH1 0x6 PUSH1 0x0 DUP5 DUP2 MSTORE PUSH1 0x20 ADD SWAP1 DUP2 MSTORE PUSH1 0x20 ADD PUSH1 0x0 KECCAK256 DUP1 SLOAD PUSH2 0x2ACA SWAP1 PUSH2 0x42D8 JUMP JUMPDEST DUP1 PUSH1 0x1F ADD PUSH1 0x20 DUP1 SWAP2 DIV MUL PUSH1 0x20 ADD PUSH1 0x40 MLOAD SWAP1 DUP2 ADD PUSH1 0x40 MSTORE DUP1 SWAP3 SWAP2 SWAP1 DUP2 DUP2 MSTORE PUSH1 0x20 ADD DUP3 DUP1 SLOAD PUSH2 0x2AF6 SWAP1 PUSH2 0x42D8 JUMP JUMPDEST DUP1 ISZERO PUSH2 0x2B43 JUMPI DUP1 PUSH1 0x1F LT PUSH2 0x2B18 JUMPI PUSH2 0x100 DUP1 DUP4 SLOAD DIV MUL DUP4 MSTORE SWAP2 PUSH1 0x20 ADD SWAP2 PUSH2 0x2B43 JUMP JUMPDEST DUP3 ADD SWAP2 SWAP1 PUSH1 0x0 MSTORE PUSH1 0x20 PUSH1 0x0 KECCAK256 SWAP1 JUMPDEST DUP2 SLOAD DUP2 MSTORE SWAP1 PUSH1 0x1 ADD SWAP1 PUSH1 0x20 ADD DUP1 DUP4 GT PUSH2 0x2B26 JUMPI DUP3 SWAP1 SUB PUSH1 0x1F AND DUP3 ADD SWAP2 JUMPDEST POP POP POP POP POP SWAP1 POP PUSH1 0x0 PUSH2 0x2B54 PUSH2 0x2E0C JUMP JUMPDEST SWAP1 POP PUSH1 0x0 DUP2 MLOAD SUB PUSH2 0x2B69 JUMPI DUP2 SWAP3 POP POP POP PUSH2 0x2BAC JUMP JUMPDEST PUSH1 0x0 DUP3 MLOAD GT ISZERO PUSH2 0x2B9E JUMPI DUP1 DUP3 PUSH1 0x40 MLOAD PUSH1 0x20 ADD PUSH2 0x2B86 SWAP3 SWAP2 SWAP1 PUSH2 0x5363 JUMP JUMPDEST PUSH1 0x40 MLOAD PUSH1 0x20 DUP2 DUP4 SUB SUB DUP2 MSTORE SWAP1 PUSH1 0x40 MSTORE SWAP3 POP POP POP PUSH2 0x2BAC JUMP JUMPDEST PUSH2 0x2BA7 DUP5 PUSH2 0x2E23 JUMP JUMPDEST SWAP3 POP POP POP JUMPDEST SWAP2 SWAP1 POP JUMP JUMPDEST PUSH1 0x0 PUSH4 0x49064906 PUSH1 0xE0 SHL PUSH28 0xFFFFFFFFFFFFFFFFFFFFFFFFFFFFFFFFFFFFFFFFFFFFFFFFFFFFFFFF NOT AND DUP3 PUSH28 0xFFFFFFFFFFFFFFFFFFFFFFFFFFFFFFFFFFFFFFFFFFFFFFFFFFFFFFFF NOT AND EQ DUP1 PUSH2 0x2C0B JUMPI POP PUSH2 0x2C0A DUP3 PUSH2 0x2E8B JUMP JUMPDEST JUMPDEST SWAP1 POP SWAP2 SWAP1 POP JUMP JUMPDEST PUSH2 0x2C1E DUP5 DUP5 DUP5 DUP5 PUSH2 0x2F6D JUMP JUMPDEST POP POP POP POP JUMP JUMPDEST POP POP POP POP JUMP JUMPDEST PUSH2 0x2C34 DUP4 DUP4 PUSH2 0x30CB JUMP JUMPDEST PUSH2 0x2C41 PUSH1 0x0 DUP5 DUP5 DUP5 PUSH2 0x2C85 JUMP JUMPDEST PUSH2 0x2C80 JUMPI PUSH1 0x40 MLOAD PUSH32 0x8C379A000000000000000000000000000000000000000000000000000000000 DUP2 MSTORE PUSH1 0x4 ADD PUSH2 0x2C77 SWAP1 PUSH2 0x5343 JUMP JUMPDEST PUSH1 0x40 MLOAD DUP1 SWAP2 SUB SWAP1 REVERT JUMPDEST POP POP POP JUMP JUMPDEST PUSH1 0x0 PUSH2 0x2CA6 DUP5 PUSH20 0xFFFFFFFFFFFFFFFFFFFFFFFFFFFFFFFFFFFFFFFF AND PUSH2 0x32E8 JUMP JUMPDEST ISZERO PUSH2 0x2DFF JUMPI DUP4 PUSH20 0xFFFFFFFFFFFFFFFFFFFFFFFFFFFFFFFFFFFFFFFF AND PUSH4 0x150B7A02 PUSH2 0x2CCF PUSH2 0x217A JUMP JUMPDEST DUP8 DUP7 DUP7 PUSH1 0x40 MLOAD DUP6 PUSH4 0xFFFFFFFF AND PUSH1 0xE0 SHL DUP2 MSTORE PUSH1 0x4 ADD PUSH2 0x2CF1 SWAP5 SWAP4 SWAP3 SWAP2 SWAP1 PUSH2 0x53DC JUMP JUMPDEST PUSH1 0x20 PUSH1 0x40 MLOAD DUP1 DUP4 SUB DUP2 PUSH1 0x0 DUP8 GAS CALL SWAP3 POP POP POP DUP1 ISZERO PUSH2 0x2D2D JUMPI POP PUSH1 0x40 MLOAD RETURNDATASIZE PUSH1 0x1F NOT PUSH1 0x1F DUP3 ADD AND DUP3 ADD DUP1 PUSH1 0x40 MSTORE POP DUP2 ADD SWAP1 PUSH2 0x2D2A SWAP2 SWAP1 PUSH2 0x543D JUMP JUMPDEST PUSH1 0x1 JUMPDEST PUSH2 0x2DAF JUMPI RETURNDATASIZE DUP1 PUSH1 0x0 DUP2 EQ PUSH2 0x2D5D JUMPI PUSH1 0x40 MLOAD SWAP2 POP PUSH1 0x1F NOT PUSH1 0x3F RETURNDATASIZE ADD AND DUP3 ADD PUSH1 0x40 MSTORE RETURNDATASIZE DUP3 MSTORE RETURNDATASIZE PUSH1 0x0 PUSH1 0x20 DUP5 ADD RETURNDATACOPY PUSH2 0x2D62 JUMP JUMPDEST PUSH1 0x60 SWAP2 POP JUMPDEST POP PUSH1 0x0 DUP2 MLOAD SUB PUSH2 0x2DA7 JUMPI PUSH1 0x40 MLOAD PUSH32 0x8C379A000000000000000000000000000000000000000000000000000000000 DUP2 MSTORE PUSH1 0x4 ADD PUSH2 0x2D9E SWAP1 PUSH2 0x5343 JUMP JUMPDEST PUSH1 0x40 MLOAD DUP1 SWAP2 SUB SWAP1 REVERT JUMPDEST DUP1 MLOAD DUP2 PUSH1 0x20 ADD REVERT JUMPDEST PUSH4 0x150B7A02 PUSH1 0xE0 SHL PUSH28 0xFFFFFFFFFFFFFFFFFFFFFFFFFFFFFFFFFFFFFFFFFFFFFFFFFFFFFFFF NOT AND DUP2 PUSH28 0xFFFFFFFFFFFFFFFFFFFFFFFFFFFFFFFFFFFFFFFFFFFFFFFFFFFFFFFF NOT AND EQ SWAP2 POP POP PUSH2 0x2E04 JUMP JUMPDEST PUSH1 0x1 SWAP1 POP JUMPDEST SWAP5 SWAP4 POP POP POP POP JUMP JUMPDEST PUSH1 0x60 PUSH1 0x40 MLOAD DUP1 PUSH1 0x20 ADD PUSH1 0x40 MSTORE DUP1 PUSH1 0x0 DUP2 MSTORE POP SWAP1 POP SWAP1 JUMP JUMPDEST PUSH1 0x60 PUSH2 0x2E2E DUP3 PUSH2 0x212F JUMP JUMPDEST PUSH1 0x0 PUSH2 0x2E38 PUSH2 0x2E0C JUMP JUMPDEST SWAP1 POP PUSH1 0x0 DUP2 MLOAD GT PUSH2 0x2E58 JUMPI PUSH1 0x40 MLOAD DUP1 PUSH1 0x20 ADD PUSH1 0x40 MSTORE DUP1 PUSH1 0x0 DUP2 MSTORE POP PUSH2 0x2E83 JUMP JUMPDEST DUP1 PUSH2 0x2E62 DUP5 PUSH2 0x330B JUMP JUMPDEST PUSH1 0x40 MLOAD PUSH1 0x20 ADD PUSH2 0x2E73 SWAP3 SWAP2 SWAP1 PUSH2 0x5363 JUMP JUMPDEST PUSH1 0x40 MLOAD PUSH1 0x20 DUP2 DUP4 SUB SUB DUP2 MSTORE SWAP1 PUSH1 0x40 MSTORE JUMPDEST SWAP2 POP POP SWAP2 SWAP1 POP JUMP JUMPDEST PUSH1 0x0 PUSH32 0x80AC58CD00000000000000000000000000000000000000000000000000000000 PUSH28 0xFFFFFFFFFFFFFFFFFFFFFFFFFFFFFFFFFFFFFFFFFFFFFFFFFFFFFFFF NOT AND DUP3 PUSH28 0xFFFFFFFFFFFFFFFFFFFFFFFFFFFFFFFFFFFFFFFFFFFFFFFFFFFFFFFF NOT AND EQ DUP1 PUSH2 0x2F56 JUMPI POP PUSH32 0x5B5E139F00000000000000000000000000000000000000000000000000000000 PUSH28 0xFFFFFFFFFFFFFFFFFFFFFFFFFFFFFFFFFFFFFFFFFFFFFFFFFFFFFFFF NOT AND DUP3 PUSH28 0xFFFFFFFFFFFFFFFFFFFFFFFFFFFFFFFFFFFFFFFFFFFFFFFFFFFFFFFF NOT AND EQ JUMPDEST DUP1 PUSH2 0x2F66 JUMPI POP PUSH2 0x2F65 DUP3 PUSH2 0x33D9 JUMP JUMPDEST JUMPDEST SWAP1 POP SWAP2 SWAP1 POP JUMP JUMPDEST PUSH2 0x2F79 DUP5 DUP5 DUP5 DUP5 PUSH2 0x3443 JUMP JUMPDEST PUSH1 0x1 DUP2 GT ISZERO PUSH2 0x2FBD JUMPI PUSH1 0x40 MLOAD PUSH32 0x8C379A000000000000000000000000000000000000000000000000000000000 DUP2 MSTORE PUSH1 0x4 ADD PUSH2 0x2FB4 SWAP1 PUSH2 0x54DC JUMP JUMPDEST PUSH1 0x40 MLOAD DUP1 SWAP2 SUB SWAP1 REVERT JUMPDEST PUSH1 0x0 DUP3 SWAP1 POP PUSH1 0x0 PUSH20 0xFFFFFFFFFFFFFFFFFFFFFFFFFFFFFFFFFFFFFFFF AND DUP6 PUSH20 0xFFFFFFFFFFFFFFFFFFFFFFFFFFFFFFFFFFFFFFFF AND SUB PUSH2 0x3004 JUMPI PUSH2 0x2FFF DUP2 PUSH2 0x3449 JUMP JUMPDEST PUSH2 0x3043 JUMP JUMPDEST DUP4 PUSH20 0xFFFFFFFFFFFFFFFFFFFFFFFFFFFFFFFFFFFFFFFF AND DUP6 PUSH20 0xFFFFFFFFFFFFFFFFFFFFFFFFFFFFFFFFFFFFFFFF AND EQ PUSH2 0x3042 JUMPI PUSH2 0x3041 DUP6 DUP3 PUSH2 0x3492 JUMP JUMPDEST JUMPDEST JUMPDEST PUSH1 0x0 PUSH20 0xFFFFFFFFFFFFFFFFFFFFFFFFFFFFFFFFFFFFFFFF AND DUP5 PUSH20 0xFFFFFFFFFFFFFFFFFFFFFFFFFFFFFFFFFFFFFFFF AND SUB PUSH2 0x3085 JUMPI PUSH2 0x3080 DUP2 PUSH2 0x35FF JUMP JUMPDEST PUSH2 0x30C4 JUMP JUMPDEST DUP5 PUSH20 0xFFFFFFFFFFFFFFFFFFFFFFFFFFFFFFFFFFFFFFFF AND DUP5 PUSH20 0xFFFFFFFFFFFFFFFFFFFFFFFFFFFFFFFFFFFFFFFF AND EQ PUSH2 0x30C3 JUMPI PUSH2 0x30C2 DUP5 DUP3 PUSH2 0x36D0 JUMP JUMPDEST JUMPDEST JUMPDEST POP POP POP POP POP JUMP JUMPDEST PUSH1 0x0 PUSH20 0xFFFFFFFFFFFFFFFFFFFFFFFFFFFFFFFFFFFFFFFF AND DUP3 PUSH20 0xFFFFFFFFFFFFFFFFFFFFFFFFFFFFFFFFFFFFFFFF AND SUB PUSH2 0x313A JUMPI PUSH1 0x40 MLOAD PUSH32 0x8C379A000000000000000000000000000000000000000000000000000000000 DUP2 MSTORE PUSH1 0x4 ADD PUSH2 0x3131 SWAP1 PUSH2 0x5548 JUMP JUMPDEST PUSH1 0x40 MLOAD DUP1 SWAP2 SUB SWAP1 REVERT JUMPDEST PUSH2 0x3143 DUP2 PUSH2 0x27D0 JUMP JUMPDEST ISZERO PUSH2 0x3183 JUMPI PUSH1 0x40 MLOAD PUSH32 0x8C379A000000000000000000000000000000000000000000000000000000000 DUP2 MSTORE PUSH1 0x4 ADD PUSH2 0x317A SWAP1 PUSH2 0x55B4 JUMP JUMPDEST PUSH1 0x40 MLOAD DUP1 SWAP2 SUB SWAP1 REVERT JUMPDEST PUSH2 0x3191 PUSH1 0x0 DUP4 DUP4 PUSH1 0x1 PUSH2 0x2C12 JUMP JUMPDEST PUSH2 0x319A DUP2 PUSH2 0x27D0 JUMP JUMPDEST ISZERO PUSH2 0x31DA JUMPI PUSH1 0x40 MLOAD PUSH32 0x8C379A000000000000000000000000000000000000000000000000000000000 DUP2 MSTORE PUSH1 0x4 ADD PUSH2 0x31D1 SWAP1 PUSH2 0x55B4 JUMP JUMPDEST PUSH1 0x40 MLOAD DUP1 SWAP2 SUB SWAP1 REVERT JUMPDEST PUSH1 0x1 PUSH1 0x3 PUSH1 0x0 DUP5 PUSH20 0xFFFFFFFFFFFFFFFFFFFFFFFFFFFFFFFFFFFFFFFF AND PUSH20 0xFFFFFFFFFFFFFFFFFFFFFFFFFFFFFFFFFFFFFFFF AND DUP2 MSTORE PUSH1 0x20 ADD SWAP1 DUP2 MSTORE PUSH1 0x20 ADD PUSH1 0x0 KECCAK256 PUSH1 0x0 DUP3 DUP3 SLOAD ADD SWAP3 POP POP DUP2 SWAP1 SSTORE POP DUP2 PUSH1 0x2 PUSH1 0x0 DUP4 DUP2 MSTORE PUSH1 0x20 ADD SWAP1 DUP2 MSTORE PUSH1 0x20 ADD PUSH1 0x0 KECCAK256 PUSH1 0x0 PUSH2 0x100 EXP DUP2 SLOAD DUP2 PUSH20 0xFFFFFFFFFFFFFFFFFFFFFFFFFFFFFFFFFFFFFFFF MUL NOT AND SWAP1 DUP4 PUSH20 0xFFFFFFFFFFFFFFFFFFFFFFFFFFFFFFFFFFFFFFFF AND MUL OR SWAP1 SSTORE POP DUP1 DUP3 PUSH20 0xFFFFFFFFFFFFFFFFFFFFFFFFFFFFFFFFFFFFFFFF AND PUSH1 0x0 PUSH20 0xFFFFFFFFFFFFFFFFFFFFFFFFFFFFFFFFFFFFFFFF AND PUSH32 0xDDF252AD1BE2C89B69C2B068FC378DAA952BA7F163C4A11628F55A4DF523B3EF PUSH1 0x40 MLOAD PUSH1 0x40 MLOAD DUP1 SWAP2 SUB SWAP1 LOG4 PUSH2 0x32E4 PUSH1 0x0 DUP4 DUP4 PUSH1 0x1 PUSH2 0x2C24 JUMP JUMPDEST POP POP JUMP JUMPDEST PUSH1 0x0 DUP1 DUP3 PUSH20 0xFFFFFFFFFFFFFFFFFFFFFFFFFFFFFFFFFFFFFFFF AND EXTCODESIZE GT SWAP1 POP SWAP2 SWAP1 POP JUMP JUMPDEST PUSH1 0x60 PUSH1 0x0 PUSH1 0x1 PUSH2 0x331A DUP5 PUSH2 0x374F JUMP JUMPDEST ADD SWAP1 POP PUSH1 0x0 DUP2 PUSH8 0xFFFFFFFFFFFFFFFF DUP2 GT ISZERO PUSH2 0x3339 JUMPI PUSH2 0x3338 PUSH2 0x3C63 JUMP JUMPDEST JUMPDEST PUSH1 0x40 MLOAD SWAP1 DUP1 DUP3 MSTORE DUP1 PUSH1 0x1F ADD PUSH1 0x1F NOT AND PUSH1 0x20 ADD DUP3 ADD PUSH1 0x40 MSTORE DUP1 ISZERO PUSH2 0x336B JUMPI DUP2 PUSH1 0x20 ADD PUSH1 0x1 DUP3 MUL DUP1 CALLDATASIZE DUP4 CALLDATACOPY DUP1 DUP3 ADD SWAP2 POP POP SWAP1 POP JUMPDEST POP SWAP1 POP PUSH1 0x0 DUP3 PUSH1 0x20 ADD DUP3 ADD SWAP1 POP JUMPDEST PUSH1 0x1 ISZERO PUSH2 0x33CE JUMPI DUP1 DUP1 PUSH1 0x1 SWAP1 SUB SWAP2 POP POP PUSH32 0x3031323334353637383961626364656600000000000000000000000000000000 PUSH1 0xA DUP7 MOD BYTE DUP2 MSTORE8 PUSH1 0xA DUP6 DUP2 PUSH2 0x33C2 JUMPI PUSH2 0x33C1 PUSH2 0x55D4 JUMP JUMPDEST JUMPDEST DIV SWAP5 POP PUSH1 0x0 DUP6 SUB PUSH2 0x3379 JUMPI JUMPDEST DUP2 SWAP4 POP POP POP POP SWAP2 SWAP1 POP JUMP JUMPDEST PUSH1 0x0 PUSH32 0x1FFC9A700000000000000000000000000000000000000000000000000000000 PUSH28 0xFFFFFFFFFFFFFFFFFFFFFFFFFFFFFFFFFFFFFFFFFFFFFFFFFFFFFFFF NOT AND DUP3 PUSH28 0xFFFFFFFFFFFFFFFFFFFFFFFFFFFFFFFFFFFFFFFFFFFFFFFFFFFFFFFF NOT AND EQ SWAP1 POP SWAP2 SWAP1 POP JUMP JUMPDEST POP POP POP POP JUMP JUMPDEST PUSH1 0x9 DUP1 SLOAD SWAP1 POP PUSH1 0xA PUSH1 0x0 DUP4 DUP2 MSTORE PUSH1 0x20 ADD SWAP1 DUP2 MSTORE PUSH1 0x20 ADD PUSH1 0x0 KECCAK256 DUP2 SWAP1 SSTORE POP PUSH1 0x9 DUP2 SWAP1 DUP1 PUSH1 0x1 DUP2 SLOAD ADD DUP1 DUP3 SSTORE DUP1 SWAP2 POP POP PUSH1 0x1 SWAP1 SUB SWAP1 PUSH1 0x0 MSTORE PUSH1 0x20 PUSH1 0x0 KECCAK256 ADD PUSH1 0x0 SWAP1 SWAP2 SWAP1 SWAP2 SWAP1 SWAP2 POP SSTORE POP JUMP JUMPDEST PUSH1 0x0 PUSH1 0x1 PUSH2 0x349F DUP5 PUSH2 0x1751 JUMP JUMPDEST PUSH2 0x34A9 SWAP2 SWAP1 PUSH2 0x5632 JUMP JUMPDEST SWAP1 POP PUSH1 0x0 PUSH1 0x8 PUSH1 0x0 DUP5 DUP2 MSTORE PUSH1 0x20 ADD SWAP1 DUP2 MSTORE PUSH1 0x20 ADD PUSH1 0x0 KECCAK256 SLOAD SWAP1 POP DUP2 DUP2 EQ PUSH2 0x358E JUMPI PUSH1 0x0 PUSH1 0x7 PUSH1 0x0 DUP7 PUSH20 0xFFFFFFFFFFFFFFFFFFFFFFFFFFFFFFFFFFFFFFFF AND PUSH20 0xFFFFFFFFFFFFFFFFFFFFFFFFFFFFFFFFFFFFFFFF AND DUP2 MSTORE PUSH1 0x20 ADD SWAP1 DUP2 MSTORE PUSH1 0x20 ADD PUSH1 0x0 KECCAK256 PUSH1 0x0 DUP5 DUP2 MSTORE PUSH1 0x20 ADD SWAP1 DUP2 MSTORE PUSH1 0x20 ADD PUSH1 0x0 KECCAK256 SLOAD SWAP1 POP DUP1 PUSH1 0x7 PUSH1 0x0 DUP8 PUSH20 0xFFFFFFFFFFFFFFFFFFFFFFFFFFFFFFFFFFFFFFFF AND PUSH20 0xFFFFFFFFFFFFFFFFFFFFFFFFFFFFFFFFFFFFFFFF AND DUP2 MSTORE PUSH1 0x20 ADD SWAP1 DUP2 MSTORE PUSH1 0x20 ADD PUSH1 0x0 KECCAK256 PUSH1 0x0 DUP5 DUP2 MSTORE PUSH1 0x20 ADD SWAP1 DUP2 MSTORE PUSH1 0x20 ADD PUSH1 0x0 KECCAK256 DUP2 SWAP1 SSTORE POP DUP2 PUSH1 0x8 PUSH1 0x0 DUP4 DUP2 MSTORE PUSH1 0x20 ADD SWAP1 DUP2 MSTORE PUSH1 0x20 ADD PUSH1 0x0 KECCAK256 DUP2 SWAP1 SSTORE POP POP JUMPDEST PUSH1 0x8 PUSH1 0x0 DUP5 DUP2 MSTORE PUSH1 0x20 ADD SWAP1 DUP2 MSTORE PUSH1 0x20 ADD PUSH1 0x0 KECCAK256 PUSH1 0x0 SWAP1 SSTORE PUSH1 0x7 PUSH1 0x0 DUP6 PUSH20 0xFFFFFFFFFFFFFFFFFFFFFFFFFFFFFFFFFFFFFFFF AND PUSH20 0xFFFFFFFFFFFFFFFFFFFFFFFFFFFFFFFFFFFFFFFF AND DUP2 MSTORE PUSH1 0x20 ADD SWAP1 DUP2 MSTORE PUSH1 0x20 ADD PUSH1 0x0 KECCAK256 PUSH1 0x0 DUP4 DUP2 MSTORE PUSH1 0x20 ADD SWAP1 DUP2 MSTORE PUSH1 0x20 ADD PUSH1 0x0 KECCAK256 PUSH1 0x0 SWAP1 SSTORE POP POP POP POP JUMP JUMPDEST PUSH1 0x0 PUSH1 0x1 PUSH1 0x9 DUP1 SLOAD SWAP1 POP PUSH2 0x3613 SWAP2 SWAP1 PUSH2 0x5632 JUMP JUMPDEST SWAP1 POP PUSH1 0x0 PUSH1 0xA PUSH1 0x0 DUP5 DUP2 MSTORE PUSH1 0x20 ADD SWAP1 DUP2 MSTORE PUSH1 0x20 ADD PUSH1 0x0 KECCAK256 SLOAD SWAP1 POP PUSH1 0x0 PUSH1 0x9 DUP4 DUP2 SLOAD DUP2 LT PUSH2 0x3643 JUMPI PUSH2 0x3642 PUSH2 0x45E3 JUMP JUMPDEST JUMPDEST SWAP1 PUSH1 0x0 MSTORE PUSH1 0x20 PUSH1 0x0 KECCAK256 ADD SLOAD SWAP1 POP DUP1 PUSH1 0x9 DUP4 DUP2 SLOAD DUP2 LT PUSH2 0x3665 JUMPI PUSH2 0x3664 PUSH2 0x45E3 JUMP JUMPDEST JUMPDEST SWAP1 PUSH1 0x0 MSTORE PUSH1 0x20 PUSH1 0x0 KECCAK256 ADD DUP2 SWAP1 SSTORE POP DUP2 PUSH1 0xA PUSH1 0x0 DUP4 DUP2 MSTORE PUSH1 0x20 ADD SWAP1 DUP2 MSTORE PUSH1 0x20 ADD PUSH1 0x0 KECCAK256 DUP2 SWAP1 SSTORE POP PUSH1 0xA PUSH1 0x0 DUP6 DUP2 MSTORE PUSH1 0x20 ADD SWAP1 DUP2 MSTORE PUSH1 0x20 ADD PUSH1 0x0 KECCAK256 PUSH1 0x0 SWAP1 SSTORE PUSH1 0x9 DUP1 SLOAD DUP1 PUSH2 0x36B4 JUMPI PUSH2 0x36B3 PUSH2 0x5666 JUMP JUMPDEST JUMPDEST PUSH1 0x1 SWAP1 SUB DUP2 DUP2 SWAP1 PUSH1 0x0 MSTORE PUSH1 0x20 PUSH1 0x0 KECCAK256 ADD PUSH1 0x0 SWAP1 SSTORE SWAP1 SSTORE POP POP POP POP JUMP JUMPDEST PUSH1 0x0 PUSH2 0x36DB DUP4 PUSH2 0x1751 JUMP JUMPDEST SWAP1 POP DUP2 PUSH1 0x7 PUSH1 0x0 DUP6 PUSH20 0xFFFFFFFFFFFFFFFFFFFFFFFFFFFFFFFFFFFFFFFF AND PUSH20 0xFFFFFFFFFFFFFFFFFFFFFFFFFFFFFFFFFFFFFFFF AND DUP2 MSTORE PUSH1 0x20 ADD SWAP1 DUP2 MSTORE PUSH1 0x20 ADD PUSH1 0x0 KECCAK256 PUSH1 0x0 DUP4 DUP2 MSTORE PUSH1 0x20 ADD SWAP1 DUP2 MSTORE PUSH1 0x20 ADD PUSH1 0x0 KECCAK256 DUP2 SWAP1 SSTORE POP DUP1 PUSH1 0x8 PUSH1 0x0 DUP5 DUP2 MSTORE PUSH1 0x20 ADD SWAP1 DUP2 MSTORE PUSH1 0x20 ADD PUSH1 0x0 KECCAK256 DUP2 SWAP1 SSTORE POP POP POP POP JUMP JUMPDEST PUSH1 0x0 DUP1 PUSH1 0x0 SWAP1 POP PUSH27 0x184F03E93FF9F4DAA797ED6E38ED64BF6A1F010000000000000000 DUP4 LT PUSH2 0x37AD JUMPI PUSH27 0x184F03E93FF9F4DAA797ED6E38ED64BF6A1F010000000000000000 DUP4 DUP2 PUSH2 0x37A3 JUMPI PUSH2 0x37A2 PUSH2 0x55D4 JUMP JUMPDEST JUMPDEST DIV SWAP3 POP PUSH1 0x40 DUP2 ADD SWAP1 POP JUMPDEST PUSH14 0x4EE2D6D415B85ACEF8100000000 DUP4 LT PUSH2 0x37EA JUMPI PUSH14 0x4EE2D6D415B85ACEF8100000000 DUP4 DUP2 PUSH2 0x37E0 JUMPI PUSH2 0x37DF PUSH2 0x55D4 JUMP JUMPDEST JUMPDEST DIV SWAP3 POP PUSH1 0x20 DUP2 ADD SWAP1 POP JUMPDEST PUSH7 0x2386F26FC10000 DUP4 LT PUSH2 0x3819 JUMPI PUSH7 0x2386F26FC10000 DUP4 DUP2 PUSH2 0x380F JUMPI PUSH2 0x380E PUSH2 0x55D4 JUMP JUMPDEST JUMPDEST DIV SWAP3 POP PUSH1 0x10 DUP2 ADD SWAP1 POP JUMPDEST PUSH4 0x5F5E100 DUP4 LT PUSH2 0x3842 JUMPI PUSH4 0x5F5E100 DUP4 DUP2 PUSH2 0x3838 JUMPI PUSH2 0x3837 PUSH2 0x55D4 JUMP JUMPDEST JUMPDEST DIV SWAP3 POP PUSH1 0x8 DUP2 ADD SWAP1 POP JUMPDEST PUSH2 0x2710 DUP4 LT PUSH2 0x3867 JUMPI PUSH2 0x2710 DUP4 DUP2 PUSH2 0x385D JUMPI PUSH2 0x385C PUSH2 0x55D4 JUMP JUMPDEST JUMPDEST DIV SWAP3 POP PUSH1 0x4 DUP2 ADD SWAP1 POP JUMPDEST PUSH1 0x64 DUP4 LT PUSH2 0x388A JUMPI PUSH1 0x64 DUP4 DUP2 PUSH2 0x3880 JUMPI PUSH2 0x387F PUSH2 0x55D4 JUMP JUMPDEST JUMPDEST DIV SWAP3 POP PUSH1 0x2 DUP2 ADD SWAP1 POP JUMPDEST PUSH1 0xA DUP4 LT PUSH2 0x3899 JUMPI PUSH1 0x1 DUP2 ADD SWAP1 POP JUMPDEST DUP1 SWAP2 POP POP SWAP2 SWAP1 POP JUMP JUMPDEST PUSH1 0x40 MLOAD DUP1 PUSH1 0xC0 ADD PUSH1 0x40 MSTORE DUP1 PUSH1 0x0 DUP2 MSTORE PUSH1 0x20 ADD PUSH1 0x60 DUP2 MSTORE PUSH1 0x20 ADD PUSH1 0x0 PUSH20 0xFFFFFFFFFFFFFFFFFFFFFFFFFFFFFFFFFFFFFFFF AND DUP2 MSTORE PUSH1 0x20 ADD PUSH1 0x0 ISZERO ISZERO DUP2 MSTORE PUSH1 0x20 ADD PUSH1 0x0 DUP2 MSTORE PUSH1 0x20 ADD PUSH1 0x60 DUP2 MSTORE POP SWAP1 JUMP JUMPDEST PUSH1 0x0 PUSH1 0x40 MLOAD SWAP1 POP SWAP1 JUMP JUMPDEST PUSH1 0x0 DUP1 REVERT JUMPDEST PUSH1 0x0 DUP1 REVERT JUMPDEST PUSH1 0x0 PUSH32 0xFFFFFFFF00000000000000000000000000000000000000000000000000000000 DUP3 AND SWAP1 POP SWAP2 SWAP1 POP JUMP JUMPDEST PUSH2 0x3939 DUP2 PUSH2 0x3904 JUMP JUMPDEST DUP2 EQ PUSH2 0x3944 JUMPI PUSH1 0x0 DUP1 REVERT JUMPDEST POP JUMP JUMPDEST PUSH1 0x0 DUP2 CALLDATALOAD SWAP1 POP PUSH2 0x3956 DUP2 PUSH2 0x3930 JUMP JUMPDEST SWAP3 SWAP2 POP POP JUMP JUMPDEST PUSH1 0x0 PUSH1 0x20 DUP3 DUP5 SUB SLT ISZERO PUSH2 0x3972 JUMPI PUSH2 0x3971 PUSH2 0x38FA JUMP JUMPDEST JUMPDEST PUSH1 0x0 PUSH2 0x3980 DUP5 DUP3 DUP6 ADD PUSH2 0x3947 JUMP JUMPDEST SWAP2 POP POP SWAP3 SWAP2 POP POP JUMP JUMPDEST PUSH1 0x0 DUP2 ISZERO ISZERO SWAP1 POP SWAP2 SWAP1 POP JUMP JUMPDEST PUSH2 0x399E DUP2 PUSH2 0x3989 JUMP JUMPDEST DUP3 MSTORE POP POP JUMP JUMPDEST PUSH1 0x0 PUSH1 0x20 DUP3 ADD SWAP1 POP PUSH2 0x39B9 PUSH1 0x0 DUP4 ADD DUP5 PUSH2 0x3995 JUMP JUMPDEST SWAP3 SWAP2 POP POP JUMP JUMPDEST PUSH1 0x0 DUP2 MLOAD SWAP1 POP SWAP2 SWAP1 POP JUMP JUMPDEST PUSH1 0x0 DUP3 DUP3 MSTORE PUSH1 0x20 DUP3 ADD SWAP1 POP SWAP3 SWAP2 POP POP JUMP JUMPDEST PUSH1 0x0 JUMPDEST DUP4 DUP2 LT ISZERO PUSH2 0x39F9 JUMPI DUP1 DUP3 ADD MLOAD DUP2 DUP5 ADD MSTORE PUSH1 0x20 DUP2 ADD SWAP1 POP PUSH2 0x39DE JUMP JUMPDEST PUSH1 0x0 DUP5 DUP5 ADD MSTORE POP POP POP POP JUMP JUMPDEST PUSH1 0x0 PUSH1 0x1F NOT PUSH1 0x1F DUP4 ADD AND SWAP1 POP SWAP2 SWAP1 POP JUMP JUMPDEST PUSH1 0x0 PUSH2 0x3A21 DUP3 PUSH2 0x39BF JUMP JUMPDEST PUSH2 0x3A2B DUP2 DUP6 PUSH2 0x39CA JUMP JUMPDEST SWAP4 POP PUSH2 0x3A3B DUP2 DUP6 PUSH1 0x20 DUP7 ADD PUSH2 0x39DB JUMP JUMPDEST PUSH2 0x3A44 DUP2 PUSH2 0x3A05 JUMP JUMPDEST DUP5 ADD SWAP2 POP POP SWAP3 SWAP2 POP POP JUMP JUMPDEST PUSH1 0x0 PUSH1 0x20 DUP3 ADD SWAP1 POP DUP2 DUP2 SUB PUSH1 0x0 DUP4 ADD MSTORE PUSH2 0x3A69 DUP2 DUP5 PUSH2 0x3A16 JUMP JUMPDEST SWAP1 POP SWAP3 SWAP2 POP POP JUMP JUMPDEST PUSH1 0x0 DUP2 SWAP1 POP SWAP2 SWAP1 POP JUMP JUMPDEST PUSH2 0x3A84 DUP2 PUSH2 0x3A71 JUMP JUMPDEST DUP2 EQ PUSH2 0x3A8F JUMPI PUSH1 0x0 DUP1 REVERT JUMPDEST POP JUMP JUMPDEST PUSH1 0x0 DUP2 CALLDATALOAD SWAP1 POP PUSH2 0x3AA1 DUP2 PUSH2 0x3A7B JUMP JUMPDEST SWAP3 SWAP2 POP POP JUMP JUMPDEST PUSH1 0x0 PUSH1 0x20 DUP3 DUP5 SUB SLT ISZERO PUSH2 0x3ABD JUMPI PUSH2 0x3ABC PUSH2 0x38FA JUMP JUMPDEST JUMPDEST PUSH1 0x0 PUSH2 0x3ACB DUP5 DUP3 DUP6 ADD PUSH2 0x3A92 JUMP JUMPDEST SWAP2 POP POP SWAP3 SWAP2 POP POP JUMP JUMPDEST PUSH1 0x0 PUSH20 0xFFFFFFFFFFFFFFFFFFFFFFFFFFFFFFFFFFFFFFFF DUP3 AND SWAP1 POP SWAP2 SWAP1 POP JUMP JUMPDEST PUSH1 0x0 PUSH2 0x3AFF DUP3 PUSH2 0x3AD4 JUMP JUMPDEST SWAP1 POP SWAP2 SWAP1 POP JUMP JUMPDEST PUSH2 0x3B0F DUP2 PUSH2 0x3AF4 JUMP JUMPDEST DUP3 MSTORE POP POP JUMP JUMPDEST PUSH1 0x0 PUSH1 0x20 DUP3 ADD SWAP1 POP PUSH2 0x3B2A PUSH1 0x0 DUP4 ADD DUP5 PUSH2 0x3B06 JUMP JUMPDEST SWAP3 SWAP2 POP POP JUMP JUMPDEST PUSH2 0x3B39 DUP2 PUSH2 0x3AF4 JUMP JUMPDEST DUP2 EQ PUSH2 0x3B44 JUMPI PUSH1 0x0 DUP1 REVERT JUMPDEST POP JUMP JUMPDEST PUSH1 0x0 DUP2 CALLDATALOAD SWAP1 POP PUSH2 0x3B56 DUP2 PUSH2 0x3B30 JUMP JUMPDEST SWAP3 SWAP2 POP POP JUMP JUMPDEST PUSH1 0x0 DUP1 PUSH1 0x40 DUP4 DUP6 SUB SLT ISZERO PUSH2 0x3B73 JUMPI PUSH2 0x3B72 PUSH2 0x38FA JUMP JUMPDEST JUMPDEST PUSH1 0x0 PUSH2 0x3B81 DUP6 DUP3 DUP7 ADD PUSH2 0x3B47 JUMP JUMPDEST SWAP3 POP POP PUSH1 0x20 PUSH2 0x3B92 DUP6 DUP3 DUP7 ADD PUSH2 0x3A92 JUMP JUMPDEST SWAP2 POP POP SWAP3 POP SWAP3 SWAP1 POP JUMP JUMPDEST PUSH2 0x3BA5 DUP2 PUSH2 0x3A71 JUMP JUMPDEST DUP3 MSTORE POP POP JUMP JUMPDEST PUSH1 0x0 PUSH1 0x20 DUP3 ADD SWAP1 POP PUSH2 0x3BC0 PUSH1 0x0 DUP4 ADD DUP5 PUSH2 0x3B9C JUMP JUMPDEST SWAP3 SWAP2 POP POP JUMP JUMPDEST PUSH1 0x0 DUP1 PUSH1 0x0 PUSH1 0x60 DUP5 DUP7 SUB SLT ISZERO PUSH2 0x3BDF JUMPI PUSH2 0x3BDE PUSH2 0x38FA JUMP JUMPDEST JUMPDEST PUSH1 0x0 PUSH2 0x3BED DUP7 DUP3 DUP8 ADD PUSH2 0x3B47 JUMP JUMPDEST SWAP4 POP POP PUSH1 0x20 PUSH2 0x3BFE DUP7 DUP3 DUP8 ADD PUSH2 0x3B47 JUMP JUMPDEST SWAP3 POP POP PUSH1 0x40 PUSH2 0x3C0F DUP7 DUP3 DUP8 ADD PUSH2 0x3A92 JUMP JUMPDEST SWAP2 POP POP SWAP3 POP SWAP3 POP SWAP3 JUMP JUMPDEST PUSH1 0x0 DUP1 PUSH1 0x40 DUP4 DUP6 SUB SLT ISZERO PUSH2 0x3C30 JUMPI PUSH2 0x3C2F PUSH2 0x38FA JUMP JUMPDEST JUMPDEST PUSH1 0x0 PUSH2 0x3C3E DUP6 DUP3 DUP7 ADD PUSH2 0x3A92 JUMP JUMPDEST SWAP3 POP POP PUSH1 0x20 PUSH2 0x3C4F DUP6 DUP3 DUP7 ADD PUSH2 0x3B47 JUMP JUMPDEST SWAP2 POP POP SWAP3 POP SWAP3 SWAP1 POP JUMP JUMPDEST PUSH1 0x0 DUP1 REVERT JUMPDEST PUSH1 0x0 DUP1 REVERT JUMPDEST PUSH32 0x4E487B7100000000000000000000000000000000000000000000000000000000 PUSH1 0x0 MSTORE PUSH1 0x41 PUSH1 0x4 MSTORE PUSH1 0x24 PUSH1 0x0 REVERT JUMPDEST PUSH2 0x3C9B DUP3 PUSH2 0x3A05 JUMP JUMPDEST DUP2 ADD DUP2 DUP2 LT PUSH8 0xFFFFFFFFFFFFFFFF DUP3 GT OR ISZERO PUSH2 0x3CBA JUMPI PUSH2 0x3CB9 PUSH2 0x3C63 JUMP JUMPDEST JUMPDEST DUP1 PUSH1 0x40 MSTORE POP POP POP JUMP JUMPDEST PUSH1 0x0 PUSH2 0x3CCD PUSH2 0x38F0 JUMP JUMPDEST SWAP1 POP PUSH2 0x3CD9 DUP3 DUP3 PUSH2 0x3C92 JUMP JUMPDEST SWAP2 SWAP1 POP JUMP JUMPDEST PUSH1 0x0 PUSH8 0xFFFFFFFFFFFFFFFF DUP3 GT ISZERO PUSH2 0x3CF9 JUMPI PUSH2 0x3CF8 PUSH2 0x3C63 JUMP JUMPDEST JUMPDEST PUSH2 0x3D02 DUP3 PUSH2 0x3A05 JUMP JUMPDEST SWAP1 POP PUSH1 0x20 DUP2 ADD SWAP1 POP SWAP2 SWAP1 POP JUMP JUMPDEST DUP3 DUP2 DUP4 CALLDATACOPY PUSH1 0x0 DUP4 DUP4 ADD MSTORE POP POP POP JUMP JUMPDEST PUSH1 0x0 PUSH2 0x3D31 PUSH2 0x3D2C DUP5 PUSH2 0x3CDE JUMP JUMPDEST PUSH2 0x3CC3 JUMP JUMPDEST SWAP1 POP DUP3 DUP2 MSTORE PUSH1 0x20 DUP2 ADD DUP5 DUP5 DUP5 ADD GT ISZERO PUSH2 0x3D4D JUMPI PUSH2 0x3D4C PUSH2 0x3C5E JUMP JUMPDEST JUMPDEST PUSH2 0x3D58 DUP5 DUP3 DUP6 PUSH2 0x3D0F JUMP JUMPDEST POP SWAP4 SWAP3 POP POP POP JUMP JUMPDEST PUSH1 0x0 DUP3 PUSH1 0x1F DUP4 ADD SLT PUSH2 0x3D75 JUMPI PUSH2 0x3D74 PUSH2 0x3C59 JUMP JUMPDEST JUMPDEST DUP2 CALLDATALOAD PUSH2 0x3D85 DUP5 DUP3 PUSH1 0x20 DUP7 ADD PUSH2 0x3D1E JUMP JUMPDEST SWAP2 POP POP SWAP3 SWAP2 POP POP JUMP JUMPDEST PUSH1 0x0 DUP1 PUSH1 0x0 DUP1 PUSH1 0x0 DUP1 PUSH1 0xC0 DUP8 DUP10 SUB SLT ISZERO PUSH2 0x3DAB JUMPI PUSH2 0x3DAA PUSH2 0x38FA JUMP JUMPDEST JUMPDEST PUSH1 0x0 DUP8 ADD CALLDATALOAD PUSH8 0xFFFFFFFFFFFFFFFF DUP2 GT ISZERO PUSH2 0x3DC9 JUMPI PUSH2 0x3DC8 PUSH2 0x38FF JUMP JUMPDEST JUMPDEST PUSH2 0x3DD5 DUP10 DUP3 DUP11 ADD PUSH2 0x3D60 JUMP JUMPDEST SWAP7 POP POP PUSH1 0x20 PUSH2 0x3DE6 DUP10 DUP3 DUP11 ADD PUSH2 0x3A92 JUMP JUMPDEST SWAP6 POP POP PUSH1 0x40 DUP8 ADD CALLDATALOAD PUSH8 0xFFFFFFFFFFFFFFFF DUP2 GT ISZERO PUSH2 0x3E07 JUMPI PUSH2 0x3E06 PUSH2 0x38FF JUMP JUMPDEST JUMPDEST PUSH2 0x3E13 DUP10 DUP3 DUP11 ADD PUSH2 0x3D60 JUMP JUMPDEST SWAP5 POP POP PUSH1 0x60 DUP8 ADD CALLDATALOAD PUSH8 0xFFFFFFFFFFFFFFFF DUP2 GT ISZERO PUSH2 0x3E34 JUMPI PUSH2 0x3E33 PUSH2 0x38FF JUMP JUMPDEST JUMPDEST PUSH2 0x3E40 DUP10 DUP3 DUP11 ADD PUSH2 0x3D60 JUMP JUMPDEST SWAP4 POP POP PUSH1 0x80 PUSH2 0x3E51 DUP10 DUP3 DUP11 ADD PUSH2 0x3A92 JUMP JUMPDEST SWAP3 POP POP PUSH1 0xA0 PUSH2 0x3E62 DUP10 DUP3 DUP11 ADD PUSH2 0x3A92 JUMP JUMPDEST SWAP2 POP POP SWAP3 SWAP6 POP SWAP3 SWAP6 POP SWAP3 SWAP6 JUMP JUMPDEST PUSH2 0x3E78 DUP2 PUSH2 0x3989 JUMP JUMPDEST DUP2 EQ PUSH2 0x3E83 JUMPI PUSH1 0x0 DUP1 REVERT JUMPDEST POP JUMP JUMPDEST PUSH1 0x0 DUP2 CALLDATALOAD SWAP1 POP PUSH2 0x3E95 DUP2 PUSH2 0x3E6F JUMP JUMPDEST SWAP3 SWAP2 POP POP JUMP JUMPDEST PUSH1 0x0 DUP1 PUSH1 0x40 DUP4 DUP6 SUB SLT ISZERO PUSH2 0x3EB2 JUMPI PUSH2 0x3EB1 PUSH2 0x38FA JUMP JUMPDEST JUMPDEST PUSH1 0x0 PUSH2 0x3EC0 DUP6 DUP3 DUP7 ADD PUSH2 0x3B47 JUMP JUMPDEST SWAP3 POP POP PUSH1 0x20 PUSH2 0x3ED1 DUP6 DUP3 DUP7 ADD PUSH2 0x3E86 JUMP JUMPDEST SWAP2 POP POP SWAP3 POP SWAP3 SWAP1 POP JUMP JUMPDEST PUSH1 0x0 DUP1 PUSH1 0x40 DUP4 DUP6 SUB SLT ISZERO PUSH2 0x3EF2 JUMPI PUSH2 0x3EF1 PUSH2 0x38FA JUMP JUMPDEST JUMPDEST PUSH1 0x0 PUSH2 0x3F00 DUP6 DUP3 DUP7 ADD PUSH2 0x3A92 JUMP JUMPDEST SWAP3 POP POP PUSH1 0x20 DUP4 ADD CALLDATALOAD PUSH8 0xFFFFFFFFFFFFFFFF DUP2 GT ISZERO PUSH2 0x3F21 JUMPI PUSH2 0x3F20 PUSH2 0x38FF JUMP JUMPDEST JUMPDEST PUSH2 0x3F2D DUP6 DUP3 DUP7 ADD PUSH2 0x3D60 JUMP JUMPDEST SWAP2 POP POP SWAP3 POP SWAP3 SWAP1 POP JUMP JUMPDEST PUSH1 0x0 PUSH1 0x20 DUP3 DUP5 SUB SLT ISZERO PUSH2 0x3F4D JUMPI PUSH2 0x3F4C PUSH2 0x38FA JUMP JUMPDEST JUMPDEST PUSH1 0x0 PUSH2 0x3F5B DUP5 DUP3 DUP6 ADD PUSH2 0x3B47 JUMP JUMPDEST SWAP2 POP POP SWAP3 SWAP2 POP POP JUMP JUMPDEST PUSH1 0x0 PUSH8 0xFFFFFFFFFFFFFFFF DUP3 GT ISZERO PUSH2 0x3F7F JUMPI PUSH2 0x3F7E PUSH2 0x3C63 JUMP JUMPDEST JUMPDEST PUSH2 0x3F88 DUP3 PUSH2 0x3A05 JUMP JUMPDEST SWAP1 POP PUSH1 0x20 DUP2 ADD SWAP1 POP SWAP2 SWAP1 POP JUMP JUMPDEST PUSH1 0x0 PUSH2 0x3FA8 PUSH2 0x3FA3 DUP5 PUSH2 0x3F64 JUMP JUMPDEST PUSH2 0x3CC3 JUMP JUMPDEST SWAP1 POP DUP3 DUP2 MSTORE PUSH1 0x20 DUP2 ADD DUP5 DUP5 DUP5 ADD GT ISZERO PUSH2 0x3FC4 JUMPI PUSH2 0x3FC3 PUSH2 0x3C5E JUMP JUMPDEST JUMPDEST PUSH2 0x3FCF DUP5 DUP3 DUP6 PUSH2 0x3D0F JUMP JUMPDEST POP SWAP4 SWAP3 POP POP POP JUMP JUMPDEST PUSH1 0x0 DUP3 PUSH1 0x1F DUP4 ADD SLT PUSH2 0x3FEC JUMPI PUSH2 0x3FEB PUSH2 0x3C59 JUMP JUMPDEST JUMPDEST DUP2 CALLDATALOAD PUSH2 0x3FFC DUP5 DUP3 PUSH1 0x20 DUP7 ADD PUSH2 0x3F95 JUMP JUMPDEST SWAP2 POP POP SWAP3 SWAP2 POP POP JUMP JUMPDEST PUSH1 0x0 DUP1 PUSH1 0x0 DUP1 PUSH1 0x80 DUP6 DUP8 SUB SLT ISZERO PUSH2 0x401F JUMPI PUSH2 0x401E PUSH2 0x38FA JUMP JUMPDEST JUMPDEST PUSH1 0x0 PUSH2 0x402D DUP8 DUP3 DUP9 ADD PUSH2 0x3B47 JUMP JUMPDEST SWAP5 POP POP PUSH1 0x20 PUSH2 0x403E DUP8 DUP3 DUP9 ADD PUSH2 0x3B47 JUMP JUMPDEST SWAP4 POP POP PUSH1 0x40 PUSH2 0x404F DUP8 DUP3 DUP9 ADD PUSH2 0x3A92 JUMP JUMPDEST SWAP3 POP POP PUSH1 0x60 DUP6 ADD CALLDATALOAD PUSH8 0xFFFFFFFFFFFFFFFF DUP2 GT ISZERO PUSH2 0x4070 JUMPI PUSH2 0x406F PUSH2 0x38FF JUMP JUMPDEST JUMPDEST PUSH2 0x407C DUP8 DUP3 DUP9 ADD PUSH2 0x3FD7 JUMP JUMPDEST SWAP2 POP POP SWAP3 SWAP6 SWAP2 SWAP5 POP SWAP3 POP JUMP JUMPDEST PUSH1 0x0 PUSH1 0xC0 DUP3 ADD SWAP1 POP PUSH2 0x409D PUSH1 0x0 DUP4 ADD DUP10 PUSH2 0x3B9C JUMP JUMPDEST DUP2 DUP2 SUB PUSH1 0x20 DUP4 ADD MSTORE PUSH2 0x40AF DUP2 DUP9 PUSH2 0x3A16 JUMP JUMPDEST SWAP1 POP PUSH2 0x40BE PUSH1 0x40 DUP4 ADD DUP8 PUSH2 0x3B06 JUMP JUMPDEST PUSH2 0x40CB PUSH1 0x60 DUP4 ADD DUP7 PUSH2 0x3995 JUMP JUMPDEST PUSH2 0x40D8 PUSH1 0x80 DUP4 ADD DUP6 PUSH2 0x3B9C JUMP JUMPDEST DUP2 DUP2 SUB PUSH1 0xA0 DUP4 ADD MSTORE PUSH2 0x40EA DUP2 DUP5 PUSH2 0x3A16 JUMP JUMPDEST SWAP1 POP SWAP8 SWAP7 POP POP POP POP POP POP POP JUMP JUMPDEST PUSH1 0x0 DUP1 PUSH1 0x40 DUP4 DUP6 SUB SLT ISZERO PUSH2 0x410E JUMPI PUSH2 0x410D PUSH2 0x38FA JUMP JUMPDEST JUMPDEST PUSH1 0x0 PUSH2 0x411C DUP6 DUP3 DUP7 ADD PUSH2 0x3B47 JUMP JUMPDEST SWAP3 POP POP PUSH1 0x20 PUSH2 0x412D DUP6 DUP3 DUP7 ADD PUSH2 0x3B47 JUMP JUMPDEST SWAP2 POP POP SWAP3 POP SWAP3 SWAP1 POP JUMP JUMPDEST PUSH2 0x4140 DUP2 PUSH2 0x3A71 JUMP JUMPDEST DUP3 MSTORE POP POP JUMP JUMPDEST PUSH1 0x0 DUP3 DUP3 MSTORE PUSH1 0x20 DUP3 ADD SWAP1 POP SWAP3 SWAP2 POP POP JUMP JUMPDEST PUSH1 0x0 PUSH2 0x4162 DUP3 PUSH2 0x39BF JUMP JUMPDEST PUSH2 0x416C DUP2 DUP6 PUSH2 0x4146 JUMP JUMPDEST SWAP4 POP PUSH2 0x417C DUP2 DUP6 PUSH1 0x20 DUP7 ADD PUSH2 0x39DB JUMP JUMPDEST PUSH2 0x4185 DUP2 PUSH2 0x3A05 JUMP JUMPDEST DUP5 ADD SWAP2 POP POP SWAP3 SWAP2 POP POP JUMP JUMPDEST PUSH2 0x4199 DUP2 PUSH2 0x3AF4 JUMP JUMPDEST DUP3 MSTORE POP POP JUMP JUMPDEST PUSH2 0x41A8 DUP2 PUSH2 0x3989 JUMP JUMPDEST DUP3 MSTORE POP POP JUMP JUMPDEST PUSH1 0x0 PUSH1 0xC0 DUP4 ADD PUSH1 0x0 DUP4 ADD MLOAD PUSH2 0x41C6 PUSH1 0x0 DUP7 ADD DUP3 PUSH2 0x4137 JUMP JUMPDEST POP PUSH1 0x20 DUP4 ADD MLOAD DUP5 DUP3 SUB PUSH1 0x20 DUP7 ADD MSTORE PUSH2 0x41DE DUP3 DUP3 PUSH2 0x4157 JUMP JUMPDEST SWAP2 POP POP PUSH1 0x40 DUP4 ADD MLOAD PUSH2 0x41F3 PUSH1 0x40 DUP7 ADD DUP3 PUSH2 0x4190 JUMP JUMPDEST POP PUSH1 0x60 DUP4 ADD MLOAD PUSH2 0x4206 PUSH1 0x60 DUP7 ADD DUP3 PUSH2 0x419F JUMP JUMPDEST POP PUSH1 0x80 DUP4 ADD MLOAD PUSH2 0x4219 PUSH1 0x80 DUP7 ADD DUP3 PUSH2 0x4137 JUMP JUMPDEST POP PUSH1 0xA0 DUP4 ADD MLOAD DUP5 DUP3 SUB PUSH1 0xA0 DUP7 ADD MSTORE PUSH2 0x4231 DUP3 DUP3 PUSH2 0x4157 JUMP JUMPDEST SWAP2 POP POP DUP1 SWAP2 POP POP SWAP3 SWAP2 POP POP JUMP JUMPDEST PUSH1 0x0 PUSH1 0x20 DUP3 ADD SWAP1 POP DUP2 DUP2 SUB PUSH1 0x0 DUP4 ADD MSTORE PUSH2 0x4258 DUP2 DUP5 PUSH2 0x41AE JUMP JUMPDEST SWAP1 POP SWAP3 SWAP2 POP POP JUMP JUMPDEST PUSH1 0x0 PUSH1 0x20 DUP3 DUP5 SUB SLT ISZERO PUSH2 0x4276 JUMPI PUSH2 0x4275 PUSH2 0x38FA JUMP JUMPDEST JUMPDEST PUSH1 0x0 DUP3 ADD CALLDATALOAD PUSH8 0xFFFFFFFFFFFFFFFF DUP2 GT ISZERO PUSH2 0x4294 JUMPI PUSH2 0x4293 PUSH2 0x38FF JUMP JUMPDEST JUMPDEST PUSH2 0x42A0 DUP5 DUP3 DUP6 ADD PUSH2 0x3D60 JUMP JUMPDEST SWAP2 POP POP SWAP3 SWAP2 POP POP JUMP JUMPDEST PUSH32 0x4E487B7100000000000000000000000000000000000000000000000000000000 PUSH1 0x0 MSTORE PUSH1 0x22 PUSH1 0x4 MSTORE PUSH1 0x24 PUSH1 0x0 REVERT JUMPDEST PUSH1 0x0 PUSH1 0x2 DUP3 DIV SWAP1 POP PUSH1 0x1 DUP3 AND DUP1 PUSH2 0x42F0 JUMPI PUSH1 0x7F DUP3 AND SWAP2 POP JUMPDEST PUSH1 0x20 DUP3 LT DUP2 SUB PUSH2 0x4303 JUMPI PUSH2 0x4302 PUSH2 0x42A9 JUMP JUMPDEST JUMPDEST POP SWAP2 SWAP1 POP JUMP JUMPDEST PUSH32 0x4552433732313A20617070726F76616C20746F2063757272656E74206F776E65 PUSH1 0x0 DUP3 ADD MSTORE PUSH32 0x7200000000000000000000000000000000000000000000000000000000000000 PUSH1 0x20 DUP3 ADD MSTORE POP JUMP JUMPDEST PUSH1 0x0 PUSH2 0x4365 PUSH1 0x21 DUP4 PUSH2 0x39CA JUMP JUMPDEST SWAP2 POP PUSH2 0x4370 DUP3 PUSH2 0x4309 JUMP JUMPDEST PUSH1 0x40 DUP3 ADD SWAP1 POP SWAP2 SWAP1 POP JUMP JUMPDEST PUSH1 0x0 PUSH1 0x20 DUP3 ADD SWAP1 POP DUP2 DUP2 SUB PUSH1 0x0 DUP4 ADD MSTORE PUSH2 0x4394 DUP2 PUSH2 0x4358 JUMP JUMPDEST SWAP1 POP SWAP2 SWAP1 POP JUMP JUMPDEST PUSH32 0x4552433732313A20617070726F76652063616C6C6572206973206E6F7420746F PUSH1 0x0 DUP3 ADD MSTORE PUSH32 0x6B656E206F776E6572206F7220617070726F76656420666F7220616C6C000000 PUSH1 0x20 DUP3 ADD MSTORE POP JUMP JUMPDEST PUSH1 0x0 PUSH2 0x43F7 PUSH1 0x3D DUP4 PUSH2 0x39CA JUMP JUMPDEST SWAP2 POP PUSH2 0x4402 DUP3 PUSH2 0x439B JUMP JUMPDEST PUSH1 0x40 DUP3 ADD SWAP1 POP SWAP2 SWAP1 POP JUMP JUMPDEST PUSH1 0x0 PUSH1 0x20 DUP3 ADD SWAP1 POP DUP2 DUP2 SUB PUSH1 0x0 DUP4 ADD MSTORE PUSH2 0x4426 DUP2 PUSH2 0x43EA JUMP JUMPDEST SWAP1 POP SWAP2 SWAP1 POP JUMP JUMPDEST PUSH32 0x4552433732313A2063616C6C6572206973206E6F7420746F6B656E206F776E65 PUSH1 0x0 DUP3 ADD MSTORE PUSH32 0x72206F7220617070726F76656400000000000000000000000000000000000000 PUSH1 0x20 DUP3 ADD MSTORE POP JUMP JUMPDEST PUSH1 0x0 PUSH2 0x4489 PUSH1 0x2D DUP4 PUSH2 0x39CA JUMP JUMPDEST SWAP2 POP PUSH2 0x4494 DUP3 PUSH2 0x442D JUMP JUMPDEST PUSH1 0x40 DUP3 ADD SWAP1 POP SWAP2 SWAP1 POP JUMP JUMPDEST PUSH1 0x0 PUSH1 0x20 DUP3 ADD SWAP1 POP DUP2 DUP2 SUB PUSH1 0x0 DUP4 ADD MSTORE PUSH2 0x44B8 DUP2 PUSH2 0x447C JUMP JUMPDEST SWAP1 POP SWAP2 SWAP1 POP JUMP JUMPDEST PUSH32 0x455243373231456E756D657261626C653A206F776E657220696E646578206F75 PUSH1 0x0 DUP3 ADD MSTORE PUSH32 0x74206F6620626F756E6473000000000000000000000000000000000000000000 PUSH1 0x20 DUP3 ADD MSTORE POP JUMP JUMPDEST PUSH1 0x0 PUSH2 0x451B PUSH1 0x2B DUP4 PUSH2 0x39CA JUMP JUMPDEST SWAP2 POP PUSH2 0x4526 DUP3 PUSH2 0x44BF JUMP JUMPDEST PUSH1 0x40 DUP3 ADD SWAP1 POP SWAP2 SWAP1 POP JUMP JUMPDEST PUSH1 0x0 PUSH1 0x20 DUP3 ADD SWAP1 POP DUP2 DUP2 SUB PUSH1 0x0 DUP4 ADD MSTORE PUSH2 0x454A DUP2 PUSH2 0x450E JUMP JUMPDEST SWAP1 POP SWAP2 SWAP1 POP JUMP JUMPDEST PUSH32 0x455243373231456E756D657261626C653A20676C6F62616C20696E646578206F PUSH1 0x0 DUP3 ADD MSTORE PUSH32 0x7574206F6620626F756E64730000000000000000000000000000000000000000 PUSH1 0x20 DUP3 ADD MSTORE POP JUMP JUMPDEST PUSH1 0x0 PUSH2 0x45AD PUSH1 0x2C DUP4 PUSH2 0x39CA JUMP JUMPDEST SWAP2 POP PUSH2 0x45B8 DUP3 PUSH2 0x4551 JUMP JUMPDEST PUSH1 0x40 DUP3 ADD SWAP1 POP SWAP2 SWAP1 POP JUMP JUMPDEST PUSH1 0x0 PUSH1 0x20 DUP3 ADD SWAP1 POP DUP2 DUP2 SUB PUSH1 0x0 DUP4 ADD MSTORE PUSH2 0x45DC DUP2 PUSH2 0x45A0 JUMP JUMPDEST SWAP1 POP SWAP2 SWAP1 POP JUMP JUMPDEST PUSH32 0x4E487B7100000000000000000000000000000000000000000000000000000000 PUSH1 0x0 MSTORE PUSH1 0x32 PUSH1 0x4 MSTORE PUSH1 0x24 PUSH1 0x0 REVERT JUMPDEST PUSH32 0x4D696E74696E672069732064697361626C656400000000000000000000000000 PUSH1 0x0 DUP3 ADD MSTORE POP JUMP JUMPDEST PUSH1 0x0 PUSH2 0x4648 PUSH1 0x13 DUP4 PUSH2 0x39CA JUMP JUMPDEST SWAP2 POP PUSH2 0x4653 DUP3 PUSH2 0x4612 JUMP JUMPDEST PUSH1 0x20 DUP3 ADD SWAP1 POP SWAP2 SWAP1 POP JUMP JUMPDEST PUSH1 0x0 PUSH1 0x20 DUP3 ADD SWAP1 POP DUP2 DUP2 SUB PUSH1 0x0 DUP4 ADD MSTORE PUSH2 0x4677 DUP2 PUSH2 0x463B JUMP JUMPDEST SWAP1 POP SWAP2 SWAP1 POP JUMP JUMPDEST PUSH32 0x4D617820737570706C7920726561636865640000000000000000000000000000 PUSH1 0x0 DUP3 ADD MSTORE POP JUMP JUMPDEST PUSH1 0x0 PUSH2 0x46B4 PUSH1 0x12 DUP4 PUSH2 0x39CA JUMP JUMPDEST SWAP2 POP PUSH2 0x46BF DUP3 PUSH2 0x467E JUMP JUMPDEST PUSH1 0x20 DUP3 ADD SWAP1 POP SWAP2 SWAP1 POP JUMP JUMPDEST PUSH1 0x0 PUSH1 0x20 DUP3 ADD SWAP1 POP DUP2 DUP2 SUB PUSH1 0x0 DUP4 ADD MSTORE PUSH2 0x46E3 DUP2 PUSH2 0x46A7 JUMP JUMPDEST SWAP1 POP SWAP2 SWAP1 POP JUMP JUMPDEST PUSH32 0x496E76616C696420677269642073697A65000000000000000000000000000000 PUSH1 0x0 DUP3 ADD MSTORE POP JUMP JUMPDEST PUSH1 0x0 PUSH2 0x4720 PUSH1 0x11 DUP4 PUSH2 0x39CA JUMP JUMPDEST SWAP2 POP PUSH2 0x472B DUP3 PUSH2 0x46EA JUMP JUMPDEST PUSH1 0x20 DUP3 ADD SWAP1 POP SWAP2 SWAP1 POP JUMP JUMPDEST PUSH1 0x0 PUSH1 0x20 DUP3 ADD SWAP1 POP DUP2 DUP2 SUB PUSH1 0x0 DUP4 ADD MSTORE PUSH2 0x474F DUP2 PUSH2 0x4713 JUMP JUMPDEST SWAP1 POP SWAP2 SWAP1 POP JUMP JUMPDEST PUSH32 0x50757A7A6C6520616C72656164792065786973747320666F722074686973204E PUSH1 0x0 DUP3 ADD MSTORE PUSH32 0x4654000000000000000000000000000000000000000000000000000000000000 PUSH1 0x20 DUP3 ADD MSTORE POP JUMP JUMPDEST PUSH1 0x0 PUSH2 0x47B2 PUSH1 0x22 DUP4 PUSH2 0x39CA JUMP JUMPDEST SWAP2 POP PUSH2 0x47BD DUP3 PUSH2 0x4756 JUMP JUMPDEST PUSH1 0x40 DUP3 ADD SWAP1 POP SWAP2 SWAP1 POP JUMP JUMPDEST PUSH1 0x0 PUSH1 0x20 DUP3 ADD SWAP1 POP DUP2 DUP2 SUB PUSH1 0x0 DUP4 ADD MSTORE PUSH2 0x47E1 DUP2 PUSH2 0x47A5 JUMP JUMPDEST SWAP1 POP SWAP2 SWAP1 POP JUMP JUMPDEST PUSH32 0x496E73756666696369656E74207061796D656E74000000000000000000000000 PUSH1 0x0 DUP3 ADD MSTORE POP JUMP JUMPDEST PUSH1 0x0 PUSH2 0x481E PUSH1 0x14 DUP4 PUSH2 0x39CA JUMP JUMPDEST SWAP2 POP PUSH2 0x4829 DUP3 PUSH2 0x47E8 JUMP JUMPDEST PUSH1 0x20 DUP3 ADD SWAP1 POP SWAP2 SWAP1 POP JUMP JUMPDEST PUSH1 0x0 PUSH1 0x20 DUP3 ADD SWAP1 POP DUP2 DUP2 SUB PUSH1 0x0 DUP4 ADD MSTORE PUSH2 0x484D DUP2 PUSH2 0x4811 JUMP JUMPDEST SWAP1 POP SWAP2 SWAP1 POP JUMP JUMPDEST PUSH32 0x45786365656473206D6178207065722077616C6C657400000000000000000000 PUSH1 0x0 DUP3 ADD MSTORE POP JUMP JUMPDEST PUSH1 0x0 PUSH2 0x488A PUSH1 0x16 DUP4 PUSH2 0x39CA JUMP JUMPDEST SWAP2 POP PUSH2 0x4895 DUP3 PUSH2 0x4854 JUMP JUMPDEST PUSH1 0x20 DUP3 ADD SWAP1 POP SWAP2 SWAP1 POP JUMP JUMPDEST PUSH1 0x0 PUSH1 0x20 DUP3 ADD SWAP1 POP DUP2 DUP2 SUB PUSH1 0x0 DUP4 ADD MSTORE PUSH2 0x48B9 DUP2 PUSH2 0x487D JUMP JUMPDEST SWAP1 POP SWAP2 SWAP1 POP JUMP JUMPDEST PUSH1 0x0 DUP2 SWAP1 POP DUP2 PUSH1 0x0 MSTORE PUSH1 0x20 PUSH1 0x0 KECCAK256 SWAP1 POP SWAP2 SWAP1 POP JUMP JUMPDEST PUSH1 0x0 PUSH1 0x20 PUSH1 0x1F DUP4 ADD DIV SWAP1 POP SWAP2 SWAP1 POP JUMP JUMPDEST PUSH1 0x0 DUP3 DUP3 SHL SWAP1 POP SWAP3 SWAP2 POP POP JUMP JUMPDEST PUSH1 0x0 PUSH1 0x8 DUP4 MUL PUSH2 0x4922 PUSH32 0xFFFFFFFFFFFFFFFFFFFFFFFFFFFFFFFFFFFFFFFFFFFFFFFFFFFFFFFFFFFFFFFF DUP3 PUSH2 0x48E5 JUMP JUMPDEST PUSH2 0x492C DUP7 DUP4 PUSH2 0x48E5 JUMP JUMPDEST SWAP6 POP DUP1 NOT DUP5 AND SWAP4 POP DUP1 DUP7 AND DUP5 OR SWAP3 POP POP POP SWAP4 SWAP3 POP POP POP JUMP JUMPDEST PUSH1 0x0 DUP2 SWAP1 POP SWAP2 SWAP1 POP JUMP JUMPDEST PUSH1 0x0 PUSH2 0x4969 PUSH2 0x4964 PUSH2 0x495F DUP5 PUSH2 0x3A71 JUMP JUMPDEST PUSH2 0x4944 JUMP JUMPDEST PUSH2 0x3A71 JUMP JUMPDEST SWAP1 POP SWAP2 SWAP1 POP JUMP JUMPDEST PUSH1 0x0 DUP2 SWAP1 POP SWAP2 SWAP1 POP JUMP JUMPDEST PUSH2 0x4983 DUP4 PUSH2 0x494E JUMP JUMPDEST PUSH2 0x4997 PUSH2 0x498F DUP3 PUSH2 0x4970 JUMP JUMPDEST DUP5 DUP5 SLOAD PUSH2 0x48F2 JUMP JUMPDEST DUP3 SSTORE POP POP POP POP JUMP JUMPDEST PUSH1 0x0 SWAP1 JUMP JUMPDEST PUSH2 0x49AC PUSH2 0x499F JUMP JUMPDEST PUSH2 0x49B7 DUP2 DUP5 DUP5 PUSH2 0x497A JUMP JUMPDEST POP POP POP JUMP JUMPDEST JUMPDEST DUP2 DUP2 LT ISZERO PUSH2 0x49DB JUMPI PUSH2 0x49D0 PUSH1 0x0 DUP3 PUSH2 0x49A4 JUMP JUMPDEST PUSH1 0x1 DUP2 ADD SWAP1 POP PUSH2 0x49BD JUMP JUMPDEST POP POP JUMP JUMPDEST PUSH1 0x1F DUP3 GT ISZERO PUSH2 0x4A20 JUMPI PUSH2 0x49F1 DUP2 PUSH2 0x48C0 JUMP JUMPDEST PUSH2 0x49FA DUP5 PUSH2 0x48D5 JUMP JUMPDEST DUP2 ADD PUSH1 0x20 DUP6 LT ISZERO PUSH2 0x4A09 JUMPI DUP2 SWAP1 POP JUMPDEST PUSH2 0x4A1D PUSH2 0x4A15 DUP6 PUSH2 0x48D5 JUMP JUMPDEST DUP4 ADD DUP3 PUSH2 0x49BC JUMP JUMPDEST POP POP JUMPDEST POP POP POP JUMP JUMPDEST PUSH1 0x0 DUP3 DUP3 SHR SWAP1 POP SWAP3 SWAP2 POP POP JUMP JUMPDEST PUSH1 0x0 PUSH2 0x4A43 PUSH1 0x0 NOT DUP5 PUSH1 0x8 MUL PUSH2 0x4A25 JUMP JUMPDEST NOT DUP1 DUP4 AND SWAP2 POP POP SWAP3 SWAP2 POP POP JUMP JUMPDEST PUSH1 0x0 PUSH2 0x4A5C DUP4 DUP4 PUSH2 0x4A32 JUMP JUMPDEST SWAP2 POP DUP3 PUSH1 0x2 MUL DUP3 OR SWAP1 POP SWAP3 SWAP2 POP POP JUMP JUMPDEST PUSH2 0x4A75 DUP3 PUSH2 0x39BF JUMP JUMPDEST PUSH8 0xFFFFFFFFFFFFFFFF DUP2 GT ISZERO PUSH2 0x4A8E JUMPI PUSH2 0x4A8D PUSH2 0x3C63 JUMP JUMPDEST JUMPDEST PUSH2 0x4A98 DUP3 SLOAD PUSH2 0x42D8 JUMP JUMPDEST PUSH2 0x4AA3 DUP3 DUP3 DUP6 PUSH2 0x49DF JUMP JUMPDEST PUSH1 0x0 PUSH1 0x20 SWAP1 POP PUSH1 0x1F DUP4 GT PUSH1 0x1 DUP2 EQ PUSH2 0x4AD6 JUMPI PUSH1 0x0 DUP5 ISZERO PUSH2 0x4AC4 JUMPI DUP3 DUP8 ADD MLOAD SWAP1 POP JUMPDEST PUSH2 0x4ACE DUP6 DUP3 PUSH2 0x4A50 JUMP JUMPDEST DUP7 SSTORE POP PUSH2 0x4B36 JUMP JUMPDEST PUSH1 0x1F NOT DUP5 AND PUSH2 0x4AE4 DUP7 PUSH2 0x48C0 JUMP JUMPDEST PUSH1 0x0 JUMPDEST DUP3 DUP2 LT ISZERO PUSH2 0x4B0C JUMPI DUP5 DUP10 ADD MLOAD DUP3 SSTORE PUSH1 0x1 DUP3 ADD SWAP2 POP PUSH1 0x20 DUP6 ADD SWAP5 POP PUSH1 0x20 DUP2 ADD SWAP1 POP PUSH2 0x4AE7 JUMP JUMPDEST DUP7 DUP4 LT ISZERO PUSH2 0x4B29 JUMPI DUP5 DUP10 ADD MLOAD PUSH2 0x4B25 PUSH1 0x1F DUP10 AND DUP3 PUSH2 0x4A32 JUMP JUMPDEST DUP4 SSTORE POP JUMPDEST PUSH1 0x1 PUSH1 0x2 DUP9 MUL ADD DUP9 SSTORE POP POP POP JUMPDEST POP POP POP POP POP POP JUMP JUMPDEST PUSH32 0x4552433732313A20696E76616C696420746F6B656E2049440000000000000000 PUSH1 0x0 DUP3 ADD MSTORE POP JUMP JUMPDEST PUSH1 0x0 PUSH2 0x4B74 PUSH1 0x18 DUP4 PUSH2 0x39CA JUMP JUMPDEST SWAP2 POP PUSH2 0x4B7F DUP3 PUSH2 0x4B3E JUMP JUMPDEST PUSH1 0x20 DUP3 ADD SWAP1 POP SWAP2 SWAP1 POP JUMP JUMPDEST PUSH1 0x0 PUSH1 0x20 DUP3 ADD SWAP1 POP DUP2 DUP2 SUB PUSH1 0x0 DUP4 ADD MSTORE PUSH2 0x4BA3 DUP2 PUSH2 0x4B67 JUMP JUMPDEST SWAP1 POP SWAP2 SWAP1 POP JUMP JUMPDEST PUSH32 0x546F6B656E20646F6573206E6F74206578697374000000000000000000000000 PUSH1 0x0 DUP3 ADD MSTORE POP JUMP JUMPDEST PUSH1 0x0 PUSH2 0x4BE0 PUSH1 0x14 DUP4 PUSH2 0x39CA JUMP JUMPDEST SWAP2 POP PUSH2 0x4BEB DUP3 PUSH2 0x4BAA JUMP JUMPDEST PUSH1 0x20 DUP3 ADD SWAP1 POP SWAP2 SWAP1 POP JUMP JUMPDEST PUSH1 0x0 PUSH1 0x20 DUP3 ADD SWAP1 POP DUP2 DUP2 SUB PUSH1 0x0 DUP4 ADD MSTORE PUSH2 0x4C0F DUP2 PUSH2 0x4BD3 JUMP JUMPDEST SWAP1 POP SWAP2 SWAP1 POP JUMP JUMPDEST PUSH32 0x416C726561647920636F6D706C65746564000000000000000000000000000000 PUSH1 0x0 DUP3 ADD MSTORE POP JUMP JUMPDEST PUSH1 0x0 PUSH2 0x4C4C PUSH1 0x11 DUP4 PUSH2 0x39CA JUMP JUMPDEST SWAP2 POP PUSH2 0x4C57 DUP3 PUSH2 0x4C16 JUMP JUMPDEST PUSH1 0x20 DUP3 ADD SWAP1 POP SWAP2 SWAP1 POP JUMP JUMPDEST PUSH1 0x0 PUSH1 0x20 DUP3 ADD SWAP1 POP DUP2 DUP2 SUB PUSH1 0x0 DUP4 ADD MSTORE PUSH2 0x4C7B DUP2 PUSH2 0x4C3F JUMP JUMPDEST SWAP1 POP SWAP2 SWAP1 POP JUMP JUMPDEST PUSH32 0x50757A7A6C65206973206C6F636B656400000000000000000000000000000000 PUSH1 0x0 DUP3 ADD MSTORE POP JUMP JUMPDEST PUSH1 0x0 PUSH2 0x4CB8 PUSH1 0x10 DUP4 PUSH2 0x39CA JUMP JUMPDEST SWAP2 POP PUSH2 0x4CC3 DUP3 PUSH2 0x4C82 JUMP JUMPDEST PUSH1 0x20 DUP3 ADD SWAP1 POP SWAP2 SWAP1 POP JUMP JUMPDEST PUSH1 0x0 PUSH1 0x20 DUP3 ADD SWAP1 POP DUP2 DUP2 SUB PUSH1 0x0 DUP4 ADD MSTORE PUSH2 0x4CE7 DUP2 PUSH2 0x4CAB JUMP JUMPDEST SWAP1 POP SWAP2 SWAP1 POP JUMP JUMPDEST PUSH1 0x0 DUP2 SWAP1 POP SWAP3 SWAP2 POP POP JUMP JUMPDEST PUSH1 0x0 DUP2 SLOAD PUSH2 0x4D06 DUP2 PUSH2 0x42D8 JUMP JUMPDEST PUSH2 0x4D10 DUP2 DUP7 PUSH2 0x4CEE JUMP JUMPDEST SWAP5 POP PUSH1 0x1 DUP3 AND PUSH1 0x0 DUP2 EQ PUSH2 0x4D2B JUMPI PUSH1 0x1 DUP2 EQ PUSH2 0x4D40 JUMPI PUSH2 0x4D73 JUMP JUMPDEST PUSH1 0xFF NOT DUP4 AND DUP7 MSTORE DUP2 ISZERO ISZERO DUP3 MUL DUP7 ADD SWAP4 POP PUSH2 0x4D73 JUMP JUMPDEST PUSH2 0x4D49 DUP6 PUSH2 0x48C0 JUMP JUMPDEST PUSH1 0x0 JUMPDEST DUP4 DUP2 LT ISZERO PUSH2 0x4D6B JUMPI DUP2 SLOAD DUP2 DUP10 ADD MSTORE PUSH1 0x1 DUP3 ADD SWAP2 POP PUSH1 0x20 DUP2 ADD SWAP1 POP PUSH2 0x4D4C JUMP JUMPDEST DUP4 DUP9 ADD SWAP6 POP POP POP JUMPDEST POP POP POP SWAP3 SWAP2 POP POP JUMP JUMPDEST PUSH1 0x0 PUSH2 0x4D88 DUP3 DUP5 PUSH2 0x4CF9 JUMP JUMPDEST SWAP2 POP DUP2 SWAP1 POP SWAP3 SWAP2 POP POP JUMP JUMPDEST PUSH1 0x0 PUSH2 0x4D9E DUP3 PUSH2 0x39BF JUMP JUMPDEST PUSH2 0x4DA8 DUP2 DUP6 PUSH2 0x4CEE JUMP JUMPDEST SWAP4 POP PUSH2 0x4DB8 DUP2 DUP6 PUSH1 0x20 DUP7 ADD PUSH2 0x39DB JUMP JUMPDEST DUP1 DUP5 ADD SWAP2 POP POP SWAP3 SWAP2 POP POP JUMP JUMPDEST PUSH1 0x0 PUSH2 0x4DD0 DUP3 DUP5 PUSH2 0x4D93 JUMP JUMPDEST SWAP2 POP DUP2 SWAP1 POP SWAP3 SWAP2 POP POP JUMP JUMPDEST PUSH32 0x496E76616C696420736F6C7574696F6E00000000000000000000000000000000 PUSH1 0x0 DUP3 ADD MSTORE POP JUMP JUMPDEST PUSH1 0x0 PUSH2 0x4E11 PUSH1 0x10 DUP4 PUSH2 0x39CA JUMP JUMPDEST SWAP2 POP PUSH2 0x4E1C DUP3 PUSH2 0x4DDB JUMP JUMPDEST PUSH1 0x20 DUP3 ADD SWAP1 POP SWAP2 SWAP1 POP JUMP JUMPDEST PUSH1 0x0 PUSH1 0x20 DUP3 ADD SWAP1 POP DUP2 DUP2 SUB PUSH1 0x0 DUP4 ADD MSTORE PUSH2 0x4E40 DUP2 PUSH2 0x4E04 JUMP JUMPDEST SWAP1 POP SWAP2 SWAP1 POP JUMP JUMPDEST PUSH32 0x4552433732313A2061646472657373207A65726F206973206E6F742061207661 PUSH1 0x0 DUP3 ADD MSTORE PUSH32 0x6C6964206F776E65720000000000000000000000000000000000000000000000 PUSH1 0x20 DUP3 ADD MSTORE POP JUMP JUMPDEST PUSH1 0x0 PUSH2 0x4EA3 PUSH1 0x29 DUP4 PUSH2 0x39CA JUMP JUMPDEST SWAP2 POP PUSH2 0x4EAE DUP3 PUSH2 0x4E47 JUMP JUMPDEST PUSH1 0x40 DUP3 ADD SWAP1 POP SWAP2 SWAP1 POP JUMP JUMPDEST PUSH1 0x0 PUSH1 0x20 DUP3 ADD SWAP1 POP DUP2 DUP2 SUB PUSH1 0x0 DUP4 ADD MSTORE PUSH2 0x4ED2 DUP2 PUSH2 0x4E96 JUMP JUMPDEST SWAP1 POP SWAP2 SWAP1 POP JUMP JUMPDEST PUSH32 0x4E6F7420746F6B656E206F776E65720000000000000000000000000000000000 PUSH1 0x0 DUP3 ADD MSTORE POP JUMP JUMPDEST PUSH1 0x0 PUSH2 0x4F0F PUSH1 0xF DUP4 PUSH2 0x39CA JUMP JUMPDEST SWAP2 POP PUSH2 0x4F1A DUP3 PUSH2 0x4ED9 JUMP JUMPDEST PUSH1 0x20 DUP3 ADD SWAP1 POP SWAP2 SWAP1 POP JUMP JUMPDEST PUSH1 0x0 PUSH1 0x20 DUP3 ADD SWAP1 POP DUP2 DUP2 SUB PUSH1 0x0 DUP4 ADD MSTORE PUSH2 0x4F3E DUP2 PUSH2 0x4F02 JUMP JUMPDEST SWAP1 POP SWAP2 SWAP1 POP JUMP JUMPDEST PUSH32 0x4F776E61626C653A206E6577206F776E657220697320746865207A65726F2061 PUSH1 0x0 DUP3 ADD MSTORE PUSH32 0x6464726573730000000000000000000000000000000000000000000000000000 PUSH1 0x20 DUP3 ADD MSTORE POP JUMP JUMPDEST PUSH1 0x0 PUSH2 0x4FA1 PUSH1 0x26 DUP4 PUSH2 0x39CA JUMP JUMPDEST SWAP2 POP PUSH2 0x4FAC DUP3 PUSH2 0x4F45 JUMP JUMPDEST PUSH1 0x40 DUP3 ADD SWAP1 POP SWAP2 SWAP1 POP JUMP JUMPDEST PUSH1 0x0 PUSH1 0x20 DUP3 ADD SWAP1 POP DUP2 DUP2 SUB PUSH1 0x0 DUP4 ADD MSTORE PUSH2 0x4FD0 DUP2 PUSH2 0x4F94 JUMP JUMPDEST SWAP1 POP SWAP2 SWAP1 POP JUMP JUMPDEST PUSH32 0x4552433732313A207472616E736665722066726F6D20696E636F727265637420 PUSH1 0x0 DUP3 ADD MSTORE PUSH32 0x6F776E6572000000000000000000000000000000000000000000000000000000 PUSH1 0x20 DUP3 ADD MSTORE POP JUMP JUMPDEST PUSH1 0x0 PUSH2 0x5033 PUSH1 0x25 DUP4 PUSH2 0x39CA JUMP JUMPDEST SWAP2 POP PUSH2 0x503E DUP3 PUSH2 0x4FD7 JUMP JUMPDEST PUSH1 0x40 DUP3 ADD SWAP1 POP SWAP2 SWAP1 POP JUMP JUMPDEST PUSH1 0x0 PUSH1 0x20 DUP3 ADD SWAP1 POP DUP2 DUP2 SUB PUSH1 0x0 DUP4 ADD MSTORE PUSH2 0x5062 DUP2 PUSH2 0x5026 JUMP JUMPDEST SWAP1 POP SWAP2 SWAP1 POP JUMP JUMPDEST PUSH32 0x4552433732313A207472616E7366657220746F20746865207A65726F20616464 PUSH1 0x0 DUP3 ADD MSTORE PUSH32 0x7265737300000000000000000000000000000000000000000000000000000000 PUSH1 0x20 DUP3 ADD MSTORE POP JUMP JUMPDEST PUSH1 0x0 PUSH2 0x50C5 PUSH1 0x24 DUP4 PUSH2 0x39CA JUMP JUMPDEST SWAP2 POP PUSH2 0x50D0 DUP3 PUSH2 0x5069 JUMP JUMPDEST PUSH1 0x40 DUP3 ADD SWAP1 POP SWAP2 SWAP1 POP JUMP JUMPDEST PUSH1 0x0 PUSH1 0x20 DUP3 ADD SWAP1 POP DUP2 DUP2 SUB PUSH1 0x0 DUP4 ADD MSTORE PUSH2 0x50F4 DUP2 PUSH2 0x50B8 JUMP JUMPDEST SWAP1 POP SWAP2 SWAP1 POP JUMP JUMPDEST PUSH32 0x4F776E61626C653A2063616C6C6572206973206E6F7420746865206F776E6572 PUSH1 0x0 DUP3 ADD MSTORE POP JUMP JUMPDEST PUSH1 0x0 PUSH2 0x5131 PUSH1 0x20 DUP4 PUSH2 0x39CA JUMP JUMPDEST SWAP2 POP PUSH2 0x513C DUP3 PUSH2 0x50FB JUMP JUMPDEST PUSH1 0x20 DUP3 ADD SWAP1 POP SWAP2 SWAP1 POP JUMP JUMPDEST PUSH1 0x0 PUSH1 0x20 DUP3 ADD SWAP1 POP DUP2 DUP2 SUB PUSH1 0x0 DUP4 ADD MSTORE PUSH2 0x5160 DUP2 PUSH2 0x5124 JUMP JUMPDEST SWAP1 POP SWAP2 SWAP1 POP JUMP JUMPDEST PUSH32 0x5265656E7472616E637947756172643A207265656E7472616E742063616C6C00 PUSH1 0x0 DUP3 ADD MSTORE POP JUMP JUMPDEST PUSH1 0x0 PUSH2 0x519D PUSH1 0x1F DUP4 PUSH2 0x39CA JUMP JUMPDEST SWAP2 POP PUSH2 0x51A8 DUP3 PUSH2 0x5167 JUMP JUMPDEST PUSH1 0x20 DUP3 ADD SWAP1 POP SWAP2 SWAP1 POP JUMP JUMPDEST PUSH1 0x0 PUSH1 0x20 DUP3 ADD SWAP1 POP DUP2 DUP2 SUB PUSH1 0x0 DUP4 ADD MSTORE PUSH2 0x51CC DUP2 PUSH2 0x5190 JUMP JUMPDEST SWAP1 POP SWAP2 SWAP1 POP JUMP JUMPDEST PUSH32 0x45524337323155524953746F726167653A2055524920736574206F66206E6F6E PUSH1 0x0 DUP3 ADD MSTORE PUSH32 0x6578697374656E7420746F6B656E000000000000000000000000000000000000 PUSH1 0x20 DUP3 ADD MSTORE POP JUMP JUMPDEST PUSH1 0x0 PUSH2 0x522F PUSH1 0x2E DUP4 PUSH2 0x39CA JUMP JUMPDEST SWAP2 POP PUSH2 0x523A DUP3 PUSH2 0x51D3 JUMP JUMPDEST PUSH1 0x40 DUP3 ADD SWAP1 POP SWAP2 SWAP1 POP JUMP JUMPDEST PUSH1 0x0 PUSH1 0x20 DUP3 ADD SWAP1 POP DUP2 DUP2 SUB PUSH1 0x0 DUP4 ADD MSTORE PUSH2 0x525E DUP2 PUSH2 0x5222 JUMP JUMPDEST SWAP1 POP SWAP2 SWAP1 POP JUMP JUMPDEST PUSH32 0x4552433732313A20617070726F766520746F2063616C6C657200000000000000 PUSH1 0x0 DUP3 ADD MSTORE POP JUMP JUMPDEST PUSH1 0x0 PUSH2 0x529B PUSH1 0x19 DUP4 PUSH2 0x39CA JUMP JUMPDEST SWAP2 POP PUSH2 0x52A6 DUP3 PUSH2 0x5265 JUMP JUMPDEST PUSH1 0x20 DUP3 ADD SWAP1 POP SWAP2 SWAP1 POP JUMP JUMPDEST PUSH1 0x0 PUSH1 0x20 DUP3 ADD SWAP1 POP DUP2 DUP2 SUB PUSH1 0x0 DUP4 ADD MSTORE PUSH2 0x52CA DUP2 PUSH2 0x528E JUMP JUMPDEST SWAP1 POP SWAP2 SWAP1 POP JUMP JUMPDEST PUSH32 0x4552433732313A207472616E7366657220746F206E6F6E204552433732315265 PUSH1 0x0 DUP3 ADD MSTORE PUSH32 0x63656976657220696D706C656D656E7465720000000000000000000000000000 PUSH1 0x20 DUP3 ADD MSTORE POP JUMP JUMPDEST PUSH1 0x0 PUSH2 0x532D PUSH1 0x32 DUP4 PUSH2 0x39CA JUMP JUMPDEST SWAP2 POP PUSH2 0x5338 DUP3 PUSH2 0x52D1 JUMP JUMPDEST PUSH1 0x40 DUP3 ADD SWAP1 POP SWAP2 SWAP1 POP JUMP JUMPDEST PUSH1 0x0 PUSH1 0x20 DUP3 ADD SWAP1 POP DUP2 DUP2 SUB PUSH1 0x0 DUP4 ADD MSTORE PUSH2 0x535C DUP2 PUSH2 0x5320 JUMP JUMPDEST SWAP1 POP SWAP2 SWAP1 POP JUMP JUMPDEST PUSH1 0x0 PUSH2 0x536F DUP3 DUP6 PUSH2 0x4D93 JUMP JUMPDEST SWAP2 POP PUSH2 0x537B DUP3 DUP5 PUSH2 0x4D93 JUMP JUMPDEST SWAP2 POP DUP2 SWAP1 POP SWAP4 SWAP3 POP POP POP JUMP JUMPDEST PUSH1 0x0 DUP2 MLOAD SWAP1 POP SWAP2 SWAP1 POP JUMP JUMPDEST PUSH1 0x0 DUP3 DUP3 MSTORE PUSH1 0x20 DUP3 ADD SWAP1 POP SWAP3 SWAP2 POP POP JUMP JUMPDEST PUSH1 0x0 PUSH2 0x53AE DUP3 PUSH2 0x5387 JUMP JUMPDEST PUSH2 0x53B8 DUP2 DUP6 PUSH2 0x5392 JUMP JUMPDEST SWAP4 POP PUSH2 0x53C8 DUP2 DUP6 PUSH1 0x20 DUP7 ADD PUSH2 0x39DB JUMP JUMPDEST PUSH2 0x53D1 DUP2 PUSH2 0x3A05 JUMP JUMPDEST DUP5 ADD SWAP2 POP POP SWAP3 SWAP2 POP POP JUMP JUMPDEST PUSH1 0x0 PUSH1 0x80 DUP3 ADD SWAP1 POP PUSH2 0x53F1 PUSH1 0x0 DUP4 ADD DUP8 PUSH2 0x3B06 JUMP JUMPDEST PUSH2 0x53FE PUSH1 0x20 DUP4 ADD DUP7 PUSH2 0x3B06 JUMP JUMPDEST PUSH2 0x540B PUSH1 0x40 DUP4 ADD DUP6 PUSH2 0x3B9C JUMP JUMPDEST DUP2 DUP2 SUB PUSH1 0x60 DUP4 ADD MSTORE PUSH2 0x541D DUP2 DUP5 PUSH2 0x53A3 JUMP JUMPDEST SWAP1 POP SWAP6 SWAP5 POP POP POP POP POP JUMP JUMPDEST PUSH1 0x0 DUP2 MLOAD SWAP1 POP PUSH2 0x5437 DUP2 PUSH2 0x3930 JUMP JUMPDEST SWAP3 SWAP2 POP POP JUMP JUMPDEST PUSH1 0x0 PUSH1 0x20 DUP3 DUP5 SUB SLT ISZERO PUSH2 0x5453 JUMPI PUSH2 0x5452 PUSH2 0x38FA JUMP JUMPDEST JUMPDEST PUSH1 0x0 PUSH2 0x5461 DUP5 DUP3 DUP6 ADD PUSH2 0x5428 JUMP JUMPDEST SWAP2 POP POP SWAP3 SWAP2 POP POP JUMP JUMPDEST PUSH32 0x455243373231456E756D657261626C653A20636F6E7365637574697665207472 PUSH1 0x0 DUP3 ADD MSTORE PUSH32 0x616E7366657273206E6F7420737570706F727465640000000000000000000000 PUSH1 0x20 DUP3 ADD MSTORE POP JUMP JUMPDEST PUSH1 0x0 PUSH2 0x54C6 PUSH1 0x35 DUP4 PUSH2 0x39CA JUMP JUMPDEST SWAP2 POP PUSH2 0x54D1 DUP3 PUSH2 0x546A JUMP JUMPDEST PUSH1 0x40 DUP3 ADD SWAP1 POP SWAP2 SWAP1 POP JUMP JUMPDEST PUSH1 0x0 PUSH1 0x20 DUP3 ADD SWAP1 POP DUP2 DUP2 SUB PUSH1 0x0 DUP4 ADD MSTORE PUSH2 0x54F5 DUP2 PUSH2 0x54B9 JUMP JUMPDEST SWAP1 POP SWAP2 SWAP1 POP JUMP JUMPDEST PUSH32 0x4552433732313A206D696E7420746F20746865207A65726F2061646472657373 PUSH1 0x0 DUP3 ADD MSTORE POP JUMP JUMPDEST PUSH1 0x0 PUSH2 0x5532 PUSH1 0x20 DUP4 PUSH2 0x39CA JUMP JUMPDEST SWAP2 POP PUSH2 0x553D DUP3 PUSH2 0x54FC JUMP JUMPDEST PUSH1 0x20 DUP3 ADD SWAP1 POP SWAP2 SWAP1 POP JUMP JUMPDEST PUSH1 0x0 PUSH1 0x20 DUP3 ADD SWAP1 POP DUP2 DUP2 SUB PUSH1 0x0 DUP4 ADD MSTORE PUSH2 0x5561 DUP2 PUSH2 0x5525 JUMP JUMPDEST SWAP1 POP SWAP2 SWAP1 POP JUMP JUMPDEST PUSH32 0x4552433732313A20746F6B656E20616C7265616479206D696E74656400000000 PUSH1 0x0 DUP3 ADD MSTORE POP JUMP JUMPDEST PUSH1 0x0 PUSH2 0x559E PUSH1 0x1C DUP4 PUSH2 0x39CA JUMP JUMPDEST SWAP2 POP PUSH2 0x55A9 DUP3 PUSH2 0x5568 JUMP JUMPDEST PUSH1 0x20 DUP3 ADD SWAP1 POP SWAP2 SWAP1 POP JUMP JUMPDEST PUSH1 0x0 PUSH1 0x20 DUP3 ADD SWAP1 POP DUP2 DUP2 SUB PUSH1 0x0 DUP4 ADD MSTORE PUSH2 0x55CD DUP2 PUSH2 0x5591 JUMP JUMPDEST SWAP1 POP SWAP2 SWAP1 POP JUMP JUMPDEST PUSH32 0x4E487B7100000000000000000000000000000000000000000000000000000000 PUSH1 0x0 MSTORE PUSH1 0x12 PUSH1 0x4 MSTORE PUSH1 0x24 PUSH1 0x0 REVERT JUMPDEST PUSH32 0x4E487B7100000000000000000000000000000000000000000000000000000000 PUSH1 0x0 MSTORE PUSH1 0x11 PUSH1 0x4 MSTORE PUSH1 0x24 PUSH1 0x0 REVERT JUMPDEST PUSH1 0x0 PUSH2 0x563D DUP3 PUSH2 0x3A71 JUMP JUMPDEST SWAP2 POP PUSH2 0x5648 DUP4 PUSH2 0x3A71 JUMP JUMPDEST SWAP3 POP DUP3 DUP3 SUB SWAP1 POP DUP2 DUP2 GT ISZERO PUSH2 0x5660 JUMPI PUSH2 0x565F PUSH2 0x5603 JUMP JUMPDEST JUMPDEST SWAP3 SWAP2 POP POP JUMP JUMPDEST PUSH32 0x4E487B7100000000000000000000000000000000000000000000000000000000 PUSH1 0x0 MSTORE PUSH1 0x31 PUSH1 0x4 MSTORE PUSH1 0x24 PUSH1 0x0 REVERT INVALID LOG2 PUSH5 0x6970667358 0x22 SLT KECCAK256 BLOCKHASH BYTE DUP11 PUSH32 0xFC3ECD295965C9DDEF9AA69AACBDE5F9E68D0E04E4031E3B48EA0F4064736F6C PUSH4 0x43000813 STOP CALLER "},"methodIdentifiers":{"MAX_PER_WALLET()":"0f2cdd6c","MINT_PRICE()":"c002d23d","approve(address,uint256)":"095ea7b3","balanceOf(address)":"70a08231","checkPuzzleCompletion(uint256,address)":"314f210f","checkPuzzleExists(uint256)":"7f5c7437","completePuzzle(uint256,string)":"6bed4d47","getApproved(uint256)":"081812fc","getPuzzleDetails(uint256)":"f09f5cbb","hasCompleted(uint256,address)":"f9396577","hashToTokenId(string)":"f6d62d7e","isApprovedForAll(address,address)":"e985e9c5","maxSupply()":"d5abeb01","mintCount(address)":"ed9ec888","mintPuzzle(string,uint256,string,string,uint256,uint256)":"5087f6eb","mintingEnabled()":"9fd6db12","name()":"06fdde03","owner()":"8da5cb5b","ownerOf(uint256)":"6352211e","puzzleData(uint256)":"cf198afa","puzzleExists(uint256)":"d6b2ad97","renounceOwnership()":"715018a6","safeTransferFrom(address,address,uint256)":"42842e0e","safeTransferFrom(address,address,uint256,bytes)":"b88d4fde","setApprovalForAll(address,bool)":"a22cb465","setMaxSupply(uint256)":"6f8b44b0","setWhitelist(address,bool)":"53d6fd59","supportsInterface(bytes4)":"01ffc9a7","symbol()":"95d89b41","toggleMinting()":"7d55094d","togglePuzzleLock(uint256)":"f28a1c5c","tokenByIndex(uint256)":"4f6ccce7","tokenOfOwnerByIndex(address,uint256)":"2f745c59","tokenURI(uint256)":"c87b56dd","totalSupply()":"18160ddd","transferFrom(address,address,uint256)":"23b872dd","transferOwnership(address)":"f2fde38b","whitelist(address)":"9b19251a","withdraw()":"3ccfd60b"}}}}}