{
  "_format": "hh-sol-artifact-1",
  "contractName": "PuzzleNFT",
  "sourceName": "contracts/PuzzleNFT.sol",
  "abi": [
    {
      "inputs": [],
      "stateMutability": "nonpayable",
      "type": "constructor"
    },
    {
      "anonymous": false,
      "inputs": [
        {
          "indexed": true,
          "internalType": "address",
          "name": "owner",
          "type": "address"
        },
        {
          "indexed": true,
          "internalType": "address",
          "name": "approved",
          "type": "address"
        },
        {
          "indexed": true,
          "internalType": "uint256",
          "name": "tokenId",
          "type": "uint256"
        }
      ],
      "name": "Approval",
      "type": "event"
    },
    {
      "anonymous": false,
      "inputs": [
        {
          "indexed": true,
          "internalType": "address",
          "name": "owner",
          "type": "address"
        },
        {
          "indexed": true,
          "internalType": "address",
          "name": "operator",
          "type": "address"
        },
        {
          "indexed": false,
          "internalType": "bool",
          "name": "approved",
          "type": "bool"
        }
      ],
      "name": "ApprovalForAll",
      "type": "event"
    },
    {
      "anonymous": false,
      "inputs": [
        {
          "indexed": false,
          "internalType": "string",
          "name": "newBaseURI",
          "type": "string"
        }
      ],
      "name": "BaseURIUpdated",
      "type": "event"
    },
    {
      "anonymous": false,
      "inputs": [
        {
          "indexed": false,
          "internalType": "uint256",
          "name": "_fromTokenId",
          "type": "uint256"
        },
        {
          "indexed": false,
          "internalType": "uint256",
          "name": "_toTokenId",
          "type": "uint256"
        }
      ],
      "name": "BatchMetadataUpdate",
      "type": "event"
    },
    {
      "anonymous": false,
      "inputs": [
        {
          "indexed": false,
          "internalType": "uint256",
          "name": "_tokenId",
          "type": "uint256"
        }
      ],
      "name": "MetadataUpdate",
      "type": "event"
    },
    {
      "anonymous": false,
      "inputs": [
        {
          "indexed": true,
          "internalType": "address",
          "name": "previousOwner",
          "type": "address"
        },
        {
          "indexed": true,
          "internalType": "address",
          "name": "newOwner",
          "type": "address"
        }
      ],
      "name": "OwnershipTransferred",
      "type": "event"
    },
    {
      "anonymous": false,
      "inputs": [
        {
          "indexed": true,
          "internalType": "uint256",
          "name": "tokenId",
          "type": "uint256"
        },
        {
          "indexed": true,
          "internalType": "address",
          "name": "player",
          "type": "address"
        },
        {
          "indexed": false,
          "internalType": "string",
          "name": "resolverHash",
          "type": "string"
        }
      ],
      "name": "PuzzleCompleted",
      "type": "event"
    },
    {
      "anonymous": false,
      "inputs": [
        {
          "indexed": true,
          "internalType": "uint256",
          "name": "tokenId",
          "type": "uint256"
        },
        {
          "indexed": true,
          "internalType": "address",
          "name": "creator",
          "type": "address"
        },
        {
          "indexed": false,
          "internalType": "uint256",
          "name": "gridSize",
          "type": "uint256"
        }
      ],
      "name": "PuzzleCreated",
      "type": "event"
    },
    {
      "anonymous": false,
      "inputs": [
        {
          "indexed": true,
          "internalType": "uint256",
          "name": "tokenId",
          "type": "uint256"
        },
        {
          "indexed": false,
          "internalType": "bool",
          "name": "locked",
          "type": "bool"
        }
      ],
      "name": "PuzzleLocked",
      "type": "event"
    },
    {
      "anonymous": false,
      "inputs": [
        {
          "indexed": true,
          "internalType": "uint256",
          "name": "tokenId",
          "type": "uint256"
        },
        {
          "indexed": true,
          "internalType": "address",
          "name": "player",
          "type": "address"
        },
        {
          "indexed": false,
          "internalType": "uint256",
          "name": "amount",
          "type": "uint256"
        }
      ],
      "name": "RewardClaimed",
      "type": "event"
    },
    {
      "anonymous": false,
      "inputs": [
        {
          "indexed": true,
          "internalType": "address",
          "name": "from",
          "type": "address"
        },
        {
          "indexed": true,
          "internalType": "address",
          "name": "to",
          "type": "address"
        },
        {
          "indexed": true,
          "internalType": "uint256",
          "name": "tokenId",
          "type": "uint256"
        }
      ],
      "name": "Transfer",
      "type": "event"
    },
    {
      "inputs": [],
      "name": "MAX_PER_WALLET",
      "outputs": [
        {
          "internalType": "uint256",
          "name": "",
          "type": "uint256"
        }
      ],
      "stateMutability": "view",
      "type": "function"
    },
    {
      "inputs": [],
      "name": "MINT_PRICE",
      "outputs": [
        {
          "internalType": "uint256",
          "name": "",
          "type": "uint256"
        }
      ],
      "stateMutability": "view",
      "type": "function"
    },
    {
      "inputs": [
        {
          "internalType": "address",
          "name": "to",
          "type": "address"
        },
        {
          "internalType": "uint256",
          "name": "tokenId",
          "type": "uint256"
        }
      ],
      "name": "approve",
      "outputs": [],
      "stateMutability": "nonpayable",
      "type": "function"
    },
    {
      "inputs": [
        {
          "internalType": "address",
          "name": "owner",
          "type": "address"
        }
      ],
      "name": "balanceOf",
      "outputs": [
        {
          "internalType": "uint256",
          "name": "",
          "type": "uint256"
        }
      ],
      "stateMutability": "view",
      "type": "function"
    },
    {
      "inputs": [
        {
          "internalType": "uint256",
          "name": "tokenId",
          "type": "uint256"
        },
        {
          "internalType": "string",
          "name": "solution",
          "type": "string"
        }
      ],
      "name": "completePuzzle",
      "outputs": [],
      "stateMutability": "nonpayable",
      "type": "function"
    },
    {
      "inputs": [
        {
          "internalType": "uint256",
          "name": "tokenId",
          "type": "uint256"
        }
      ],
      "name": "getApproved",
      "outputs": [
        {
          "internalType": "address",
          "name": "",
          "type": "address"
        }
      ],
      "stateMutability": "view",
      "type": "function"
    },
    {
      "inputs": [
        {
          "internalType": "uint256",
          "name": "",
          "type": "uint256"
        },
        {
          "internalType": "address",
          "name": "",
          "type": "address"
        }
      ],
      "name": "hasCompleted",
      "outputs": [
        {
          "internalType": "bool",
          "name": "",
          "type": "bool"
        }
      ],
      "stateMutability": "view",
      "type": "function"
    },
    {
      "inputs": [
        {
          "internalType": "string",
          "name": "",
          "type": "string"
        }
      ],
      "name": "hashToTokenId",
      "outputs": [
        {
          "internalType": "uint256",
          "name": "",
          "type": "uint256"
        }
      ],
      "stateMutability": "view",
      "type": "function"
    },
    {
      "inputs": [
        {
          "internalType": "address",
          "name": "owner",
          "type": "address"
        },
        {
          "internalType": "address",
          "name": "operator",
          "type": "address"
        }
      ],
      "name": "isApprovedForAll",
      "outputs": [
        {
          "internalType": "bool",
          "name": "",
          "type": "bool"
        }
      ],
      "stateMutability": "view",
      "type": "function"
    },
    {
      "inputs": [],
      "name": "maxSupply",
      "outputs": [
        {
          "internalType": "uint256",
          "name": "",
          "type": "uint256"
        }
      ],
      "stateMutability": "view",
      "type": "function"
    },
    {
      "inputs": [
        {
          "internalType": "address",
          "name": "",
          "type": "address"
        }
      ],
      "name": "mintCount",
      "outputs": [
        {
          "internalType": "uint256",
          "name": "",
          "type": "uint256"
        }
      ],
      "stateMutability": "view",
      "type": "function"
    },
    {
      "inputs": [
        {
          "internalType": "string",
          "name": "metadataURI",
          "type": "string"
        },
        {
          "internalType": "uint256",
          "name": "gridSize",
          "type": "uint256"
        },
        {
          "internalType": "string",
          "name": "resolverHash",
          "type": "string"
        },
        {
          "internalType": "string",
          "name": "contentHash",
          "type": "string"
        },
        {
          "internalType": "uint256",
          "name": "completionReward",
          "type": "uint256"
        }
      ],
      "name": "mintPuzzle",
      "outputs": [],
      "stateMutability": "payable",
      "type": "function"
    },
    {
      "inputs": [],
      "name": "mintingEnabled",
      "outputs": [
        {
          "internalType": "bool",
          "name": "",
          "type": "bool"
        }
      ],
      "stateMutability": "view",
      "type": "function"
    },
    {
      "inputs": [],
      "name": "name",
      "outputs": [
        {
          "internalType": "string",
          "name": "",
          "type": "string"
        }
      ],
      "stateMutability": "view",
      "type": "function"
    },
    {
      "inputs": [],
      "name": "owner",
      "outputs": [
        {
          "internalType": "address",
          "name": "",
          "type": "address"
        }
      ],
      "stateMutability": "view",
      "type": "function"
    },
    {
      "inputs": [
        {
          "internalType": "uint256",
          "name": "tokenId",
          "type": "uint256"
        }
      ],
      "name": "ownerOf",
      "outputs": [
        {
          "internalType": "address",
          "name": "",
          "type": "address"
        }
      ],
      "stateMutability": "view",
      "type": "function"
    },
    {
      "inputs": [
        {
          "internalType": "uint256",
          "name": "",
          "type": "uint256"
        }
      ],
      "name": "puzzleData",
      "outputs": [
        {
          "internalType": "uint256",
          "name": "gridSize",
          "type": "uint256"
        },
        {
          "internalType": "string",
          "name": "resolverHash",
          "type": "string"
        },
        {
          "internalType": "address",
          "name": "creator",
          "type": "address"
        },
        {
          "internalType": "bool",
          "name": "isLocked",
          "type": "bool"
        },
        {
          "internalType": "uint256",
          "name": "completionReward",
          "type": "uint256"
        },
        {
          "internalType": "string",
          "name": "contentHash",
          "type": "string"
        }
      ],
      "stateMutability": "view",
      "type": "function"
    },
    {
      "inputs": [],
      "name": "renounceOwnership",
      "outputs": [],
      "stateMutability": "nonpayable",
      "type": "function"
    },
    {
      "inputs": [
        {
          "internalType": "address",
          "name": "from",
          "type": "address"
        },
        {
          "internalType": "address",
          "name": "to",
          "type": "address"
        },
        {
          "internalType": "uint256",
          "name": "tokenId",
          "type": "uint256"
        }
      ],
      "name": "safeTransferFrom",
      "outputs": [],
      "stateMutability": "nonpayable",
      "type": "function"
    },
    {
      "inputs": [
        {
          "internalType": "address",
          "name": "from",
          "type": "address"
        },
        {
          "internalType": "address",
          "name": "to",
          "type": "address"
        },
        {
          "internalType": "uint256",
          "name": "tokenId",
          "type": "uint256"
        },
        {
          "internalType": "bytes",
          "name": "data",
          "type": "bytes"
        }
      ],
      "name": "safeTransferFrom",
      "outputs": [],
      "stateMutability": "nonpayable",
      "type": "function"
    },
    {
      "inputs": [
        {
          "internalType": "address",
          "name": "operator",
          "type": "address"
        },
        {
          "internalType": "bool",
          "name": "approved",
          "type": "bool"
        }
      ],
      "name": "setApprovalForAll",
      "outputs": [],
      "stateMutability": "nonpayable",
      "type": "function"
    },
    {
      "inputs": [
        {
          "internalType": "string",
          "name": "baseURI",
          "type": "string"
        }
      ],
      "name": "setBaseURI",
      "outputs": [],
      "stateMutability": "nonpayable",
      "type": "function"
    },
    {
      "inputs": [
        {
          "internalType": "uint256",
          "name": "_maxSupply",
          "type": "uint256"
        }
      ],
      "name": "setMaxSupply",
      "outputs": [],
      "stateMutability": "nonpayable",
      "type": "function"
    },
    {
      "inputs": [
        {
          "internalType": "bytes4",
          "name": "interfaceId",
          "type": "bytes4"
        }
      ],
      "name": "supportsInterface",
      "outputs": [
        {
          "internalType": "bool",
          "name": "",
          "type": "bool"
        }
      ],
      "stateMutability": "view",
      "type": "function"
    },
    {
      "inputs": [],
      "name": "symbol",
      "outputs": [
        {
          "internalType": "string",
          "name": "",
          "type": "string"
        }
      ],
      "stateMutability": "view",
      "type": "function"
    },
    {
      "inputs": [],
      "name": "toggleMinting",
      "outputs": [],
      "stateMutability": "nonpayable",
      "type": "function"
    },
    {
      "inputs": [
        {
          "internalType": "uint256",
          "name": "tokenId",
          "type": "uint256"
        }
      ],
      "name": "togglePuzzleLock",
      "outputs": [],
      "stateMutability": "nonpayable",
      "type": "function"
    },
    {
      "inputs": [
        {
          "internalType": "uint256",
          "name": "index",
          "type": "uint256"
        }
      ],
      "name": "tokenByIndex",
      "outputs": [
        {
          "internalType": "uint256",
          "name": "",
          "type": "uint256"
        }
      ],
      "stateMutability": "view",
      "type": "function"
    },
    {
      "inputs": [
        {
          "internalType": "address",
          "name": "owner",
          "type": "address"
        },
        {
          "internalType": "uint256",
          "name": "index",
          "type": "uint256"
        }
      ],
      "name": "tokenOfOwnerByIndex",
      "outputs": [
        {
          "internalType": "uint256",
          "name": "",
          "type": "uint256"
        }
      ],
      "stateMutability": "view",
      "type": "function"
    },
    {
      "inputs": [
        {
          "internalType": "uint256",
          "name": "tokenId",
          "type": "uint256"
        }
      ],
      "name": "tokenURI",
      "outputs": [
        {
          "internalType": "string",
          "name": "",
          "type": "string"
        }
      ],
      "stateMutability": "view",
      "type": "function"
    },
    {
      "inputs": [],
      "name": "totalSupply",
      "outputs": [
        {
          "internalType": "uint256",
          "name": "",
          "type": "uint256"
        }
      ],
      "stateMutability": "view",
      "type": "function"
    },
    {
      "inputs": [
        {
          "internalType": "address",
          "name": "from",
          "type": "address"
        },
        {
          "internalType": "address",
          "name": "to",
          "type": "address"
        },
        {
          "internalType": "uint256",
          "name": "tokenId",
          "type": "uint256"
        }
      ],
      "name": "transferFrom",
      "outputs": [],
      "stateMutability": "nonpayable",
      "type": "function"
    },
    {
      "inputs": [
        {
          "internalType": "address",
          "name": "newOwner",
          "type": "address"
        }
      ],
      "name": "transferOwnership",
      "outputs": [],
      "stateMutability": "nonpayable",
      "type": "function"
    },
    {
      "inputs": [],
      "name": "withdraw",
      "outputs": [],
      "stateMutability": "nonpayable",
      "type": "function"
    }
  ],
  "bytecode": "0x60806040526127106012556013805460ff191660011790553480156200002457600080fd5b50604080518082018252601681527f496e7465726163746976652050757a7a6c65204e46540000000000000000000060208083019182528351808501909452600684526550555a5a4c4560d01b90840152815191929162000088916000916200012a565b5080516200009e9060019060208401906200012a565b50506001600b5550620000b133620000d8565b604080516020810191829052600090819052620000d1916014916200012a565b506200020d565b600c80546001600160a01b038381166001600160a01b0319831681179093556040519116919082907f8be0079c531659141344cd1fd0a4f28419497f9722a3daafe3b4186f6b6457e090600090a35050565b8280546200013890620001d0565b90600052602060002090601f0160209004810192826200015c5760008555620001a7565b82601f106200017757805160ff1916838001178555620001a7565b82800160010185558215620001a7579182015b82811115620001a75782518255916020019190600101906200018a565b50620001b5929150620001b9565b5090565b5b80821115620001b55760008155600101620001ba565b600181811c90821680620001e557607f821691505b602082108114156200020757634e487b7160e01b600052602260045260246000fd5b50919050565b612b77806200021d6000396000f3fe6080604052600436106101f95760003560e01c80637d55094d1161010d578063c87b56dd116100a0578063ed9ec8881161006f578063ed9ec888146105b2578063f28a1c5c146105df578063f2fde38b146105ff578063f6d62d7e1461061f578063f93965771461065757600080fd5b8063c87b56dd14610501578063cf198afa14610521578063d5abeb0114610553578063e985e9c51461056957600080fd5b80639fd6db12116100dc5780639fd6db121461048c578063a22cb465146104a6578063b88d4fde146104c6578063c002d23d146104e657600080fd5b80637d55094d146104315780638da5cb5b1461044657806395d89b41146104645780639e16df641461047957600080fd5b80633ccfd60b116101905780636352211e1161015f5780636352211e1461039c5780636bed4d47146103bc5780636f8b44b0146103dc57806370a08231146103fc578063715018a61461041c57600080fd5b80633ccfd60b1461032757806342842e0e1461033c5780634f6ccce71461035c57806355f804b31461037c57600080fd5b80630f2cdd6c116101cc5780630f2cdd6c146102af57806318160ddd146102d257806323b872dd146102e75780632f745c591461030757600080fd5b806301ffc9a7146101fe57806306fdde0314610233578063081812fc14610255578063095ea7b31461028d575b600080fd5b34801561020a57600080fd5b5061021e610219366004612409565b610692565b60405190151581526020015b60405180910390f35b34801561023f57600080fd5b506102486106a3565b60405161022a919061247e565b34801561026157600080fd5b50610275610270366004612491565b610735565b6040516001600160a01b03909116815260200161022a565b34801561029957600080fd5b506102ad6102a83660046124c6565b61075c565b005b3480156102bb57600080fd5b506102c4601981565b60405190815260200161022a565b3480156102de57600080fd5b506009546102c4565b3480156102f357600080fd5b506102ad6103023660046124f0565b610877565b34801561031357600080fd5b506102c46103223660046124c6565b6108a8565b34801561033357600080fd5b506102ad61093e565b34801561034857600080fd5b506102ad6103573660046124f0565b610995565b34801561036857600080fd5b506102c4610377366004612491565b6109b0565b34801561038857600080fd5b506102ad6103973660046125d8565b610a43565b3480156103a857600080fd5b506102756103b7366004612491565b610a99565b3480156103c857600080fd5b506102ad6103d736600461260d565b610af9565b3480156103e857600080fd5b506102ad6103f7366004612491565b610d9a565b34801561040857600080fd5b506102c4610417366004612654565b610da7565b34801561042857600080fd5b506102ad610e2d565b34801561043d57600080fd5b506102ad610e41565b34801561045257600080fd5b50600c546001600160a01b0316610275565b34801561047057600080fd5b50610248610e5d565b6102ad61048736600461266f565b610e6c565b34801561049857600080fd5b5060135461021e9060ff1681565b3480156104b257600080fd5b506102ad6104c1366004612709565b611172565b3480156104d257600080fd5b506102ad6104e1366004612745565b61117d565b3480156104f257600080fd5b506102c466038d7ea4c6800081565b34801561050d57600080fd5b5061024861051c366004612491565b6111b5565b34801561052d57600080fd5b5061054161053c366004612491565b6111c0565b60405161022a969594939291906127c1565b34801561055f57600080fd5b506102c460125481565b34801561057557600080fd5b5061021e610584366004612817565b6001600160a01b03918216600090815260056020908152604080832093909416825291909152205460ff1690565b3480156105be57600080fd5b506102c46105cd366004612654565b60106020526000908152604090205481565b3480156105eb57600080fd5b506102ad6105fa366004612491565b611317565b34801561060b57600080fd5b506102ad61061a366004612654565b61142c565b34801561062b57600080fd5b506102c461063a3660046125d8565b8051602081830181018051600f8252928201919093012091525481565b34801561066357600080fd5b5061021e61067236600461284a565b601160209081526000928352604080842090915290825290205460ff1681565b600061069d826114a5565b92915050565b6060600080546106b29061286d565b80601f01602080910402602001604051908101604052809291908181526020018280546106de9061286d565b801561072b5780601f106107005761010080835404028352916020019161072b565b820191906000526020600020905b81548152906001019060200180831161070e57829003601f168201915b5050505050905090565b6000610740826114ca565b506000908152600460205260409020546001600160a01b031690565b600061076782610a99565b9050806001600160a01b0316836001600160a01b031614156107da5760405162461bcd60e51b815260206004820152602160248201527f4552433732313a20617070726f76616c20746f2063757272656e74206f776e656044820152603960f91b60648201526084015b60405180910390fd5b336001600160a01b03821614806107f657506107f68133610584565b6108685760405162461bcd60e51b815260206004820152603d60248201527f4552433732313a20617070726f76652063616c6c6572206973206e6f7420746f60448201527f6b656e206f776e6572206f7220617070726f76656420666f7220616c6c00000060648201526084016107d1565b610872838361151a565b505050565b6108813382611588565b61089d5760405162461bcd60e51b81526004016107d1906128a8565b610872838383611607565b60006108b383610da7565b82106109155760405162461bcd60e51b815260206004820152602b60248201527f455243373231456e756d657261626c653a206f776e657220696e646578206f7560448201526a74206f6620626f756e647360a81b60648201526084016107d1565b506001600160a01b03919091166000908152600760209081526040808320938352929052205490565b610946611778565b47610959600c546001600160a01b031690565b6001600160a01b03166108fc829081150290604051600060405180830381858888f19350505050158015610991573d6000803e3d6000fd5b5050565b6108728383836040518060200160405280600081525061117d565b60006109bb60095490565b8210610a1e5760405162461bcd60e51b815260206004820152602c60248201527f455243373231456e756d657261626c653a20676c6f62616c20696e646578206f60448201526b7574206f6620626f756e647360a01b60648201526084016107d1565b60098281548110610a3157610a316128f5565b90600052602060002001549050919050565b610a4b611778565b8051610a5e90601490602084019061235a565b507f6741b2fc379fad678116fe3d4d4b9a1a184ab53ba36b86ad0fa66340b1ab41ad81604051610a8e919061247e565b60405180910390a150565b6000818152600260205260408120546001600160a01b03168061069d5760405162461bcd60e51b8152602060048201526018602482015277115490cdcc8c4e881a5b9d985b1a59081d1bdad95b88125160421b60448201526064016107d1565b610b02826117d2565b610b455760405162461bcd60e51b8152602060048201526014602482015273151bdad95b88191bd95cc81b9bdd08195e1a5cdd60621b60448201526064016107d1565b600082815260116020908152604080832033845290915290205460ff1615610ba35760405162461bcd60e51b8152602060048201526011602482015270105b1c9958591e4818dbdb5c1b195d1959607a1b60448201526064016107d1565b6000828152600e6020526040902060020154600160a01b900460ff1615610bff5760405162461bcd60e51b815260206004820152601060248201526f141d5e9e9b19481a5cc81b1bd8dad95960821b60448201526064016107d1565b6000828152600e60209081526040918290209151610c2192600101910161290b565b6040516020818303038152906040528051906020012081604051602001610c4891906129a7565b6040516020818303038152906040528051906020012014610c9e5760405162461bcd60e51b815260206004820152601060248201526f24b73b30b634b21039b7b63aba34b7b760811b60448201526064016107d1565b60008281526011602090815260408083203384528252808320805460ff19166001179055848352600e90915290206003015415610d54576000828152600e602052604080822060030180549083905590519091339183156108fc0291849190818181858888f19350505050158015610d1a573d6000803e3d6000fd5b50604051818152339084907f24b5efa61dd1cfc659205a97fb8ed868f3cb8c81922bab2b96423e5de1de2cb79060200160405180910390a3505b336001600160a01b0316827f0f292a557ab88b7fad539454fefe748c9661cd2981acd9a1d1c5b14f0087936283604051610d8e919061247e565b60405180910390a35050565b610da2611778565b601255565b60006001600160a01b038216610e115760405162461bcd60e51b815260206004820152602960248201527f4552433732313a2061646472657373207a65726f206973206e6f7420612076616044820152683634b21037bbb732b960b91b60648201526084016107d1565b506001600160a01b031660009081526003602052604090205490565b610e35611778565b610e3f60006117ef565b565b610e49611778565b6013805460ff19811660ff90911615179055565b6060600180546106b29061286d565b610e74611841565b60135460ff16610ebc5760405162461bcd60e51b8152602060048201526013602482015272135a5b9d1a5b99c81a5cc8191a5cd8589b1959606a1b60448201526064016107d1565b66038d7ea4c68000341015610f0a5760405162461bcd60e51b8152602060048201526014602482015273125b9cdd59999a58da595b9d081c185e5b595b9d60621b60448201526064016107d1565b33600090815260106020526040902054601911610f625760405162461bcd60e51b8152602060048201526016602482015275115e18d959591cc81b585e081c195c881dd85b1b195d60521b60448201526064016107d1565b601254600d5410610faa5760405162461bcd60e51b815260206004820152601260248201527113585e081cdd5c1c1b1e481c995858da195960721b60448201526064016107d1565b600184118015610fbb5750600a8411155b610ffb5760405162461bcd60e51b8152602060048201526011602482015270496e76616c696420677269642073697a6560781b60448201526064016107d1565b6000611006600d5490565b9050611016600d80546001019055565b6040805160c081018252868152602080820187815233838501526000606084018190526080840187905260a08401889052858152600e835293909320825181559251805192939261106d926001850192019061235a565b50604082015160028201805460608501511515600160a01b026001600160a81b03199091166001600160a01b03909316929092179190911790556080820151600382015560a082015180516110cc91600484019160209091019061235a565b5090505080600f856040516110e191906129a7565b9081526040805160209281900383019020929092553360009081526010909152908120805491611110836129d9565b919050555061111f338261189b565b61112981876118b5565b604051858152339082907f09664ddcf23fddada30bbdebf70f87d2d99cd40a4dc0fac8b5c54cff487e0ced9060200160405180910390a35061116b6001600b55565b5050505050565b610991338383611978565b6111873383611588565b6111a35760405162461bcd60e51b81526004016107d1906128a8565b6111af84848484611a47565b50505050565b606061069d82611a7a565b600e60205260009081526040902080546001820180549192916111e29061286d565b80601f016020809104026020016040519081016040528092919081815260200182805461120e9061286d565b801561125b5780601f106112305761010080835404028352916020019161125b565b820191906000526020600020905b81548152906001019060200180831161123e57829003601f168201915b505050506002830154600384015460048501805494956001600160a01b03841695600160a01b90940460ff16945091926112949061286d565b80601f01602080910402602001604051908101604052809291908181526020018280546112c09061286d565b801561130d5780601f106112e25761010080835404028352916020019161130d565b820191906000526020600020905b8154815290600101906020018083116112f057829003601f168201915b5050505050905086565b611320816117d2565b6113635760405162461bcd60e51b8152602060048201526014602482015273151bdad95b88191bd95cc81b9bdd08195e1a5cdd60621b60448201526064016107d1565b3361136d82610a99565b6001600160a01b0316146113b55760405162461bcd60e51b815260206004820152600f60248201526e2737ba103a37b5b2b71037bbb732b960891b60448201526064016107d1565b6000818152600e602052604090819020600201805460ff600160a01b808304821615810260ff60a01b199093169290921792839055925184937f10c65bf7a9feb8308f4bd53d052cd5b3b7dcfad9b9e51eb190372786fec643a293611421939004161515815260200190565b60405180910390a250565b611434611778565b6001600160a01b0381166114995760405162461bcd60e51b815260206004820152602660248201527f4f776e61626c653a206e6577206f776e657220697320746865207a65726f206160448201526564647265737360d01b60648201526084016107d1565b6114a2816117ef565b50565b60006001600160e01b0319821663780e9d6360e01b148061069d575061069d82611b76565b6114d3816117d2565b6114a25760405162461bcd60e51b8152602060048201526018602482015277115490cdcc8c4e881a5b9d985b1a59081d1bdad95b88125160421b60448201526064016107d1565b600081815260046020526040902080546001600160a01b0319166001600160a01b038416908117909155819061154f82610a99565b6001600160a01b03167f8c5be1e5ebec7d5bd14f71427d1e84f3dd0314c0f7b2291e5b200ac8c7c3b92560405160405180910390a45050565b60008061159483610a99565b9050806001600160a01b0316846001600160a01b031614806115db57506001600160a01b0380821660009081526005602090815260408083209388168352929052205460ff165b806115ff5750836001600160a01b03166115f484610735565b6001600160a01b0316145b949350505050565b826001600160a01b031661161a82610a99565b6001600160a01b0316146116405760405162461bcd60e51b81526004016107d1906129f4565b6001600160a01b0382166116a25760405162461bcd60e51b8152602060048201526024808201527f4552433732313a207472616e7366657220746f20746865207a65726f206164646044820152637265737360e01b60648201526084016107d1565b6116af8383836001611b9b565b826001600160a01b03166116c282610a99565b6001600160a01b0316146116e85760405162461bcd60e51b81526004016107d1906129f4565b600081815260046020908152604080832080546001600160a01b03199081169091556001600160a01b0387811680865260038552838620805460001901905590871680865283862080546001019055868652600290945282852080549092168417909155905184937fddf252ad1be2c89b69c2b068fc378daa952ba7f163c4a11628f55a4df523b3ef91a4505050565b600c546001600160a01b03163314610e3f5760405162461bcd60e51b815260206004820181905260248201527f4f776e61626c653a2063616c6c6572206973206e6f7420746865206f776e657260448201526064016107d1565b6000908152600260205260409020546001600160a01b0316151590565b600c80546001600160a01b038381166001600160a01b0319831681179093556040519116919082907f8be0079c531659141344cd1fd0a4f28419497f9722a3daafe3b4186f6b6457e090600090a35050565b6002600b5414156118945760405162461bcd60e51b815260206004820152601f60248201527f5265656e7472616e637947756172643a207265656e7472616e742063616c6c0060448201526064016107d1565b6002600b55565b610991828260405180602001604052806000815250611ba7565b6118be826117d2565b6119215760405162461bcd60e51b815260206004820152602e60248201527f45524337323155524953746f726167653a2055524920736574206f66206e6f6e60448201526d32bc34b9ba32b73a103a37b5b2b760911b60648201526084016107d1565b600082815260066020908152604090912082516119409284019061235a565b506040518281527ff8e1a15aba9398e019f0b49df1a4fde98ee17ae345cb5f6b5e2c27f5033e8ce79060200160405180910390a15050565b816001600160a01b0316836001600160a01b031614156119da5760405162461bcd60e51b815260206004820152601960248201527f4552433732313a20617070726f766520746f2063616c6c65720000000000000060448201526064016107d1565b6001600160a01b03838116600081815260056020908152604080832094871680845294825291829020805460ff191686151590811790915591519182527f17307eab39ab6107e8899845ad3d59bd9653f200f220920489ca2b5937696c31910160405180910390a3505050565b611a52848484611607565b611a5e84848484611bda565b6111af5760405162461bcd60e51b81526004016107d190612a39565b6060611a85826114ca565b60008281526006602052604081208054611a9e9061286d565b80601f0160208091040260200160405190810160405280929190818152602001828054611aca9061286d565b8015611b175780601f10611aec57610100808354040283529160200191611b17565b820191906000526020600020905b815481529060010190602001808311611afa57829003601f168201915b505050505090506000611b28611ce7565b9050805160001415611b3b575092915050565b815115611b6d578082604051602001611b55929190612a8b565b60405160208183030381529060405292505050919050565b6115ff84611cf6565b60006001600160e01b03198216632483248360e11b148061069d575061069d82611d5d565b6111af84848484611dad565b611bb18383611eda565b611bbe6000848484611bda565b6108725760405162461bcd60e51b81526004016107d190612a39565b60006001600160a01b0384163b15611cdc57604051630a85bd0160e11b81526001600160a01b0385169063150b7a0290611c1e903390899088908890600401612aba565b602060405180830381600087803b158015611c3857600080fd5b505af1925050508015611c68575060408051601f3d908101601f19168201909252611c6591810190612af7565b60015b611cc2573d808015611c96576040519150601f19603f3d011682016040523d82523d6000602084013e611c9b565b606091505b508051611cba5760405162461bcd60e51b81526004016107d190612a39565b805181602001fd5b6001600160e01b031916630a85bd0160e11b1490506115ff565b506001949350505050565b6060601480546106b29061286d565b6060611d01826114ca565b6000611d0b611ce7565b90506000815111611d2b5760405180602001604052806000815250611d56565b80611d3584612055565b604051602001611d46929190612a8b565b6040516020818303038152906040525b9392505050565b60006001600160e01b031982166380ac58cd60e01b1480611d8e57506001600160e01b03198216635b5e139f60e01b145b8061069d57506301ffc9a760e01b6001600160e01b031983161461069d565b6001811115611e1c5760405162461bcd60e51b815260206004820152603560248201527f455243373231456e756d657261626c653a20636f6e7365637574697665207472604482015274185b9cd9995c9cc81b9bdd081cdd5c1c1bdc9d1959605a1b60648201526084016107d1565b816001600160a01b038516611e7857611e7381600980546000838152600a60205260408120829055600182018355919091527f6e1540171b6c0c960b71a7020d9f60077f6af931a8bbf590da0223dacf75c7af0155565b611e9b565b836001600160a01b0316856001600160a01b031614611e9b57611e9b85826120f2565b6001600160a01b038416611eb757611eb28161218f565b61116b565b846001600160a01b0316846001600160a01b03161461116b5761116b848261223e565b6001600160a01b038216611f305760405162461bcd60e51b815260206004820181905260248201527f4552433732313a206d696e7420746f20746865207a65726f206164647265737360448201526064016107d1565b611f39816117d2565b15611f865760405162461bcd60e51b815260206004820152601c60248201527f4552433732313a20746f6b656e20616c7265616479206d696e7465640000000060448201526064016107d1565b611f94600083836001611b9b565b611f9d816117d2565b15611fea5760405162461bcd60e51b815260206004820152601c60248201527f4552433732313a20746f6b656e20616c7265616479206d696e7465640000000060448201526064016107d1565b6001600160a01b038216600081815260036020908152604080832080546001019055848352600290915280822080546001600160a01b0319168417905551839291907fddf252ad1be2c89b69c2b068fc378daa952ba7f163c4a11628f55a4df523b3ef908290a45050565b6060600061206283612282565b600101905060008167ffffffffffffffff8111156120825761208261252c565b6040519080825280601f01601f1916602001820160405280156120ac576020820181803683370190505b5090508181016020015b600019016f181899199a1a9b1b9c1cb0b131b232b360811b600a86061a8153600a85049450846120e5576120ea565b6120b6565b509392505050565b600060016120ff84610da7565b6121099190612b14565b60008381526008602052604090205490915080821461215c576001600160a01b03841660009081526007602090815260408083208584528252808320548484528184208190558352600890915290208190555b5060009182526008602090815260408084208490556001600160a01b039094168352600781528383209183525290812055565b6009546000906121a190600190612b14565b6000838152600a6020526040812054600980549394509092849081106121c9576121c96128f5565b9060005260206000200154905080600983815481106121ea576121ea6128f5565b6000918252602080832090910192909255828152600a9091526040808220849055858252812055600980548061222257612222612b2b565b6001900381819060005260206000200160009055905550505050565b600061224983610da7565b6001600160a01b039093166000908152600760209081526040808320868452825280832085905593825260089052919091209190915550565b60008072184f03e93ff9f4daa797ed6e38ed64bf6a1f0160401b83106122c15772184f03e93ff9f4daa797ed6e38ed64bf6a1f0160401b830492506040015b6d04ee2d6d415b85acef810000000083106122ed576d04ee2d6d415b85acef8100000000830492506020015b662386f26fc10000831061230b57662386f26fc10000830492506010015b6305f5e1008310612323576305f5e100830492506008015b612710831061233757612710830492506004015b60648310612349576064830492506002015b600a831061069d5760010192915050565b8280546123669061286d565b90600052602060002090601f01602090048101928261238857600085556123ce565b82601f106123a157805160ff19168380011785556123ce565b828001600101855582156123ce579182015b828111156123ce5782518255916020019190600101906123b3565b506123da9291506123de565b5090565b5b808211156123da57600081556001016123df565b6001600160e01b0319811681146114a257600080fd5b60006020828403121561241b57600080fd5b8135611d56816123f3565b60005b83811015612441578181015183820152602001612429565b838111156111af5750506000910152565b6000815180845261246a816020860160208601612426565b601f01601f19169290920160200192915050565b602081526000611d566020830184612452565b6000602082840312156124a357600080fd5b5035919050565b80356001600160a01b03811681146124c157600080fd5b919050565b600080604083850312156124d957600080fd5b6124e2836124aa565b946020939093013593505050565b60008060006060848603121561250557600080fd5b61250e846124aa565b925061251c602085016124aa565b9150604084013590509250925092565b634e487b7160e01b600052604160045260246000fd5b600067ffffffffffffffff8084111561255d5761255d61252c565b604051601f8501601f19908116603f011681019082821181831017156125855761258561252c565b8160405280935085815286868601111561259e57600080fd5b858560208301376000602087830101525050509392505050565b600082601f8301126125c957600080fd5b611d5683833560208501612542565b6000602082840312156125ea57600080fd5b813567ffffffffffffffff81111561260157600080fd5b6115ff848285016125b8565b6000806040838503121561262057600080fd5b82359150602083013567ffffffffffffffff81111561263e57600080fd5b61264a858286016125b8565b9150509250929050565b60006020828403121561266657600080fd5b611d56826124aa565b600080600080600060a0868803121561268757600080fd5b853567ffffffffffffffff8082111561269f57600080fd5b6126ab89838a016125b8565b96506020880135955060408801359150808211156126c857600080fd5b6126d489838a016125b8565b945060608801359150808211156126ea57600080fd5b506126f7888289016125b8565b95989497509295608001359392505050565b6000806040838503121561271c57600080fd5b612725836124aa565b91506020830135801515811461273a57600080fd5b809150509250929050565b6000806000806080858703121561275b57600080fd5b612764856124aa565b9350612772602086016124aa565b925060408501359150606085013567ffffffffffffffff81111561279557600080fd5b8501601f810187136127a657600080fd5b6127b587823560208401612542565b91505092959194509250565b86815260c0602082015260006127da60c0830188612452565b6001600160a01b038716604084015285151560608401526080830185905282810360a084015261280a8185612452565b9998505050505050505050565b6000806040838503121561282a57600080fd5b612833836124aa565b9150612841602084016124aa565b90509250929050565b6000806040838503121561285d57600080fd5b82359150612841602084016124aa565b600181811c9082168061288157607f821691505b602082108114156128a257634e487b7160e01b600052602260045260246000fd5b50919050565b6020808252602d908201527f4552433732313a2063616c6c6572206973206e6f7420746f6b656e206f776e6560408201526c1c881bdc88185c1c1c9bdd9959609a1b606082015260800190565b634e487b7160e01b600052603260045260246000fd5b600080835481600182811c91508083168061292757607f831692505b602080841082141561294757634e487b7160e01b86526022600452602486fd5b81801561295b576001811461296c57612999565b60ff19861689528489019650612999565b60008a81526020902060005b868110156129915781548b820152908501908301612978565b505084890196505b509498975050505050505050565b600082516129b9818460208701612426565b9190910192915050565b634e487b7160e01b600052601160045260246000fd5b60006000198214156129ed576129ed6129c3565b5060010190565b60208082526025908201527f4552433732313a207472616e736665722066726f6d20696e636f72726563742060408201526437bbb732b960d91b606082015260800190565b60208082526032908201527f4552433732313a207472616e7366657220746f206e6f6e20455243373231526560408201527131b2b4bb32b91034b6b83632b6b2b73a32b960711b606082015260800190565b60008351612a9d818460208801612426565b835190830190612ab1818360208801612426565b01949350505050565b6001600160a01b0385811682528416602082015260408101839052608060608201819052600090612aed90830184612452565b9695505050505050565b600060208284031215612b0957600080fd5b8151611d56816123f3565b600082821015612b2657612b266129c3565b500390565b634e487b7160e01b600052603160045260246000fdfea264697066735822122017885b5953da6736333d207d0396c6631fe75f5604a9fc00e46887f9c650194b64736f6c63430008090033",
  "linkReferences": {},
  "deployedLinkReferences": {}
}