{
  "_format": "hh-sol-artifact-1",
  "contractName": "PuzzleNFT",
  "sourceName": "contracts/PuzzleNFT.sol",
  "abi": [
    {
      "inputs": [],
      "stateMutability": "nonpayable",
      "type": "constructor"
    },
    {
      "anonymous": false,
      "inputs": [
        {
          "indexed": true,
          "internalType": "address",
          "name": "owner",
          "type": "address"
        },
        {
          "indexed": true,
          "internalType": "address",
          "name": "approved",
          "type": "address"
        },
        {
          "indexed": true,
          "internalType": "uint256",
          "name": "tokenId",
          "type": "uint256"
        }
      ],
      "name": "Approval",
      "type": "event"
    },
    {
      "anonymous": false,
      "inputs": [
        {
          "indexed": true,
          "internalType": "address",
          "name": "owner",
          "type": "address"
        },
        {
          "indexed": true,
          "internalType": "address",
          "name": "operator",
          "type": "address"
        },
        {
          "indexed": false,
          "internalType": "bool",
          "name": "approved",
          "type": "bool"
        }
      ],
      "name": "ApprovalForAll",
      "type": "event"
    },
    {
      "anonymous": false,
      "inputs": [
        {
          "indexed": false,
          "internalType": "string",
          "name": "newBaseURI",
          "type": "string"
        }
      ],
      "name": "BaseURIUpdated",
      "type": "event"
    },
    {
      "anonymous": false,
      "inputs": [
        {
          "indexed": false,
          "internalType": "uint256",
          "name": "_fromTokenId",
          "type": "uint256"
        },
        {
          "indexed": false,
          "internalType": "uint256",
          "name": "_toTokenId",
          "type": "uint256"
        }
      ],
      "name": "BatchMetadataUpdate",
      "type": "event"
    },
    {
      "anonymous": false,
      "inputs": [
        {
          "indexed": false,
          "internalType": "uint256",
          "name": "_tokenId",
          "type": "uint256"
        }
      ],
      "name": "MetadataUpdate",
      "type": "event"
    },
    {
      "anonymous": false,
      "inputs": [
        {
          "indexed": true,
          "internalType": "address",
          "name": "previousOwner",
          "type": "address"
        },
        {
          "indexed": true,
          "internalType": "address",
          "name": "newOwner",
          "type": "address"
        }
      ],
      "name": "OwnershipTransferred",
      "type": "event"
    },
    {
      "anonymous": false,
      "inputs": [
        {
          "indexed": true,
          "internalType": "uint256",
          "name": "tokenId",
          "type": "uint256"
        },
        {
          "indexed": true,
          "internalType": "address",
          "name": "player",
          "type": "address"
        }
      ],
      "name": "PuzzleCompleted",
      "type": "event"
    },
    {
      "anonymous": false,
      "inputs": [
        {
          "indexed": true,
          "internalType": "uint256",
          "name": "tokenId",
          "type": "uint256"
        },
        {
          "indexed": true,
          "internalType": "address",
          "name": "creator",
          "type": "address"
        },
        {
          "indexed": false,
          "internalType": "uint256",
          "name": "gridSize",
          "type": "uint256"
        }
      ],
      "name": "PuzzleCreated",
      "type": "event"
    },
    {
      "anonymous": false,
      "inputs": [
        {
          "indexed": true,
          "internalType": "uint256",
          "name": "tokenId",
          "type": "uint256"
        },
        {
          "indexed": false,
          "internalType": "bool",
          "name": "locked",
          "type": "bool"
        }
      ],
      "name": "PuzzleLocked",
      "type": "event"
    },
    {
      "anonymous": false,
      "inputs": [
        {
          "indexed": true,
          "internalType": "uint256",
          "name": "tokenId",
          "type": "uint256"
        },
        {
          "indexed": true,
          "internalType": "address",
          "name": "player",
          "type": "address"
        },
        {
          "indexed": false,
          "internalType": "uint256",
          "name": "amount",
          "type": "uint256"
        }
      ],
      "name": "RewardClaimed",
      "type": "event"
    },
    {
      "anonymous": false,
      "inputs": [
        {
          "indexed": true,
          "internalType": "address",
          "name": "receiver",
          "type": "address"
        },
        {
          "indexed": false,
          "internalType": "uint256",
          "name": "percentage",
          "type": "uint256"
        }
      ],
      "name": "RoyaltyUpdated",
      "type": "event"
    },
    {
      "anonymous": false,
      "inputs": [
        {
          "indexed": true,
          "internalType": "address",
          "name": "from",
          "type": "address"
        },
        {
          "indexed": true,
          "internalType": "address",
          "name": "to",
          "type": "address"
        },
        {
          "indexed": true,
          "internalType": "uint256",
          "name": "tokenId",
          "type": "uint256"
        }
      ],
      "name": "Transfer",
      "type": "event"
    },
    {
      "anonymous": false,
      "inputs": [
        {
          "indexed": true,
          "internalType": "address",
          "name": "account",
          "type": "address"
        },
        {
          "indexed": false,
          "internalType": "bool",
          "name": "whitelisted",
          "type": "bool"
        }
      ],
      "name": "WhitelistUpdated",
      "type": "event"
    },
    {
      "inputs": [],
      "name": "MAX_PER_WALLET",
      "outputs": [
        {
          "internalType": "uint256",
          "name": "",
          "type": "uint256"
        }
      ],
      "stateMutability": "view",
      "type": "function"
    },
    {
      "inputs": [],
      "name": "MINT_PRICE",
      "outputs": [
        {
          "internalType": "uint256",
          "name": "",
          "type": "uint256"
        }
      ],
      "stateMutability": "view",
      "type": "function"
    },
    {
      "inputs": [
        {
          "internalType": "address",
          "name": "to",
          "type": "address"
        },
        {
          "internalType": "uint256",
          "name": "tokenId",
          "type": "uint256"
        }
      ],
      "name": "approve",
      "outputs": [],
      "stateMutability": "nonpayable",
      "type": "function"
    },
    {
      "inputs": [
        {
          "internalType": "address",
          "name": "owner",
          "type": "address"
        }
      ],
      "name": "balanceOf",
      "outputs": [
        {
          "internalType": "uint256",
          "name": "",
          "type": "uint256"
        }
      ],
      "stateMutability": "view",
      "type": "function"
    },
    {
      "inputs": [
        {
          "internalType": "uint256",
          "name": "tokenId",
          "type": "uint256"
        },
        {
          "internalType": "address",
          "name": "player",
          "type": "address"
        }
      ],
      "name": "checkPuzzleCompletion",
      "outputs": [
        {
          "internalType": "bool",
          "name": "",
          "type": "bool"
        }
      ],
      "stateMutability": "view",
      "type": "function"
    },
    {
      "inputs": [
        {
          "internalType": "uint256",
          "name": "originalTokenId",
          "type": "uint256"
        }
      ],
      "name": "checkPuzzleExists",
      "outputs": [
        {
          "internalType": "bool",
          "name": "",
          "type": "bool"
        }
      ],
      "stateMutability": "view",
      "type": "function"
    },
    {
      "inputs": [
        {
          "internalType": "uint256",
          "name": "tokenId",
          "type": "uint256"
        },
        {
          "internalType": "string",
          "name": "solution",
          "type": "string"
        }
      ],
      "name": "completePuzzle",
      "outputs": [],
      "stateMutability": "nonpayable",
      "type": "function"
    },
    {
      "inputs": [
        {
          "internalType": "uint256",
          "name": "tokenId",
          "type": "uint256"
        }
      ],
      "name": "getApproved",
      "outputs": [
        {
          "internalType": "address",
          "name": "",
          "type": "address"
        }
      ],
      "stateMutability": "view",
      "type": "function"
    },
    {
      "inputs": [
        {
          "internalType": "uint256",
          "name": "tokenId",
          "type": "uint256"
        }
      ],
      "name": "getPuzzleDetails",
      "outputs": [
        {
          "components": [
            {
              "internalType": "uint256",
              "name": "gridSize",
              "type": "uint256"
            },
            {
              "internalType": "string",
              "name": "resolverHash",
              "type": "string"
            },
            {
              "internalType": "address",
              "name": "creator",
              "type": "address"
            },
            {
              "internalType": "bool",
              "name": "isLocked",
              "type": "bool"
            },
            {
              "internalType": "uint256",
              "name": "completionReward",
              "type": "uint256"
            },
            {
              "internalType": "string",
              "name": "contentHash",
              "type": "string"
            }
          ],
          "internalType": "struct PuzzleNFT.PuzzleData",
          "name": "",
          "type": "tuple"
        }
      ],
      "stateMutability": "view",
      "type": "function"
    },
    {
      "inputs": [
        {
          "internalType": "uint256",
          "name": "tokenId",
          "type": "uint256"
        },
        {
          "internalType": "uint256",
          "name": "salePrice",
          "type": "uint256"
        }
      ],
      "name": "getRoyaltyInfo",
      "outputs": [
        {
          "internalType": "address",
          "name": "receiver",
          "type": "address"
        },
        {
          "internalType": "uint256",
          "name": "royaltyAmount",
          "type": "uint256"
        }
      ],
      "stateMutability": "view",
      "type": "function"
    },
    {
      "inputs": [
        {
          "internalType": "uint256",
          "name": "",
          "type": "uint256"
        },
        {
          "internalType": "address",
          "name": "",
          "type": "address"
        }
      ],
      "name": "hasCompleted",
      "outputs": [
        {
          "internalType": "bool",
          "name": "",
          "type": "bool"
        }
      ],
      "stateMutability": "view",
      "type": "function"
    },
    {
      "inputs": [
        {
          "internalType": "string",
          "name": "",
          "type": "string"
        }
      ],
      "name": "hashToTokenId",
      "outputs": [
        {
          "internalType": "uint256",
          "name": "",
          "type": "uint256"
        }
      ],
      "stateMutability": "view",
      "type": "function"
    },
    {
      "inputs": [
        {
          "internalType": "address",
          "name": "owner",
          "type": "address"
        },
        {
          "internalType": "address",
          "name": "operator",
          "type": "address"
        }
      ],
      "name": "isApprovedForAll",
      "outputs": [
        {
          "internalType": "bool",
          "name": "",
          "type": "bool"
        }
      ],
      "stateMutability": "view",
      "type": "function"
    },
    {
      "inputs": [],
      "name": "maxSupply",
      "outputs": [
        {
          "internalType": "uint256",
          "name": "",
          "type": "uint256"
        }
      ],
      "stateMutability": "view",
      "type": "function"
    },
    {
      "inputs": [
        {
          "internalType": "address",
          "name": "",
          "type": "address"
        }
      ],
      "name": "mintCount",
      "outputs": [
        {
          "internalType": "uint256",
          "name": "",
          "type": "uint256"
        }
      ],
      "stateMutability": "view",
      "type": "function"
    },
    {
      "inputs": [
        {
          "internalType": "string",
          "name": "metadataURI",
          "type": "string"
        },
        {
          "internalType": "uint256",
          "name": "gridSize",
          "type": "uint256"
        },
        {
          "internalType": "string",
          "name": "resolverHash",
          "type": "string"
        },
        {
          "internalType": "string",
          "name": "contentHash",
          "type": "string"
        },
        {
          "internalType": "uint256",
          "name": "completionReward",
          "type": "uint256"
        },
        {
          "internalType": "uint256",
          "name": "originalTokenId",
          "type": "uint256"
        }
      ],
      "name": "mintPuzzle",
      "outputs": [],
      "stateMutability": "payable",
      "type": "function"
    },
    {
      "inputs": [],
      "name": "mintingEnabled",
      "outputs": [
        {
          "internalType": "bool",
          "name": "",
          "type": "bool"
        }
      ],
      "stateMutability": "view",
      "type": "function"
    },
    {
      "inputs": [],
      "name": "name",
      "outputs": [
        {
          "internalType": "string",
          "name": "",
          "type": "string"
        }
      ],
      "stateMutability": "view",
      "type": "function"
    },
    {
      "inputs": [],
      "name": "owner",
      "outputs": [
        {
          "internalType": "address",
          "name": "",
          "type": "address"
        }
      ],
      "stateMutability": "view",
      "type": "function"
    },
    {
      "inputs": [
        {
          "internalType": "uint256",
          "name": "tokenId",
          "type": "uint256"
        }
      ],
      "name": "ownerOf",
      "outputs": [
        {
          "internalType": "address",
          "name": "",
          "type": "address"
        }
      ],
      "stateMutability": "view",
      "type": "function"
    },
    {
      "inputs": [
        {
          "internalType": "uint256",
          "name": "",
          "type": "uint256"
        }
      ],
      "name": "puzzleData",
      "outputs": [
        {
          "internalType": "uint256",
          "name": "gridSize",
          "type": "uint256"
        },
        {
          "internalType": "string",
          "name": "resolverHash",
          "type": "string"
        },
        {
          "internalType": "address",
          "name": "creator",
          "type": "address"
        },
        {
          "internalType": "bool",
          "name": "isLocked",
          "type": "bool"
        },
        {
          "internalType": "uint256",
          "name": "completionReward",
          "type": "uint256"
        },
        {
          "internalType": "string",
          "name": "contentHash",
          "type": "string"
        }
      ],
      "stateMutability": "view",
      "type": "function"
    },
    {
      "inputs": [
        {
          "internalType": "uint256",
          "name": "",
          "type": "uint256"
        }
      ],
      "name": "puzzleExists",
      "outputs": [
        {
          "internalType": "bool",
          "name": "",
          "type": "bool"
        }
      ],
      "stateMutability": "view",
      "type": "function"
    },
    {
      "inputs": [],
      "name": "renounceOwnership",
      "outputs": [],
      "stateMutability": "nonpayable",
      "type": "function"
    },
    {
      "inputs": [],
      "name": "royaltyPercentage",
      "outputs": [
        {
          "internalType": "uint256",
          "name": "",
          "type": "uint256"
        }
      ],
      "stateMutability": "view",
      "type": "function"
    },
    {
      "inputs": [],
      "name": "royaltyReceiver",
      "outputs": [
        {
          "internalType": "address",
          "name": "",
          "type": "address"
        }
      ],
      "stateMutability": "view",
      "type": "function"
    },
    {
      "inputs": [
        {
          "internalType": "address",
          "name": "from",
          "type": "address"
        },
        {
          "internalType": "address",
          "name": "to",
          "type": "address"
        },
        {
          "internalType": "uint256",
          "name": "tokenId",
          "type": "uint256"
        }
      ],
      "name": "safeTransferFrom",
      "outputs": [],
      "stateMutability": "nonpayable",
      "type": "function"
    },
    {
      "inputs": [
        {
          "internalType": "address",
          "name": "from",
          "type": "address"
        },
        {
          "internalType": "address",
          "name": "to",
          "type": "address"
        },
        {
          "internalType": "uint256",
          "name": "tokenId",
          "type": "uint256"
        },
        {
          "internalType": "bytes",
          "name": "data",
          "type": "bytes"
        }
      ],
      "name": "safeTransferFrom",
      "outputs": [],
      "stateMutability": "nonpayable",
      "type": "function"
    },
    {
      "inputs": [
        {
          "internalType": "address",
          "name": "operator",
          "type": "address"
        },
        {
          "internalType": "bool",
          "name": "approved",
          "type": "bool"
        }
      ],
      "name": "setApprovalForAll",
      "outputs": [],
      "stateMutability": "nonpayable",
      "type": "function"
    },
    {
      "inputs": [
        {
          "internalType": "uint256",
          "name": "_maxSupply",
          "type": "uint256"
        }
      ],
      "name": "setMaxSupply",
      "outputs": [],
      "stateMutability": "nonpayable",
      "type": "function"
    },
    {
      "inputs": [
        {
          "internalType": "uint256",
          "name": "_percentage",
          "type": "uint256"
        }
      ],
      "name": "setRoyaltyPercentage",
      "outputs": [],
      "stateMutability": "nonpayable",
      "type": "function"
    },
    {
      "inputs": [
        {
          "internalType": "address",
          "name": "_receiver",
          "type": "address"
        }
      ],
      "name": "setRoyaltyReceiver",
      "outputs": [],
      "stateMutability": "nonpayable",
      "type": "function"
    },
    {
      "inputs": [
        {
          "internalType": "address",
          "name": "account",
          "type": "address"
        },
        {
          "internalType": "bool",
          "name": "whitelisted",
          "type": "bool"
        }
      ],
      "name": "setWhitelist",
      "outputs": [],
      "stateMutability": "nonpayable",
      "type": "function"
    },
    {
      "inputs": [
        {
          "internalType": "bytes4",
          "name": "interfaceId",
          "type": "bytes4"
        }
      ],
      "name": "supportsInterface",
      "outputs": [
        {
          "internalType": "bool",
          "name": "",
          "type": "bool"
        }
      ],
      "stateMutability": "view",
      "type": "function"
    },
    {
      "inputs": [],
      "name": "symbol",
      "outputs": [
        {
          "internalType": "string",
          "name": "",
          "type": "string"
        }
      ],
      "stateMutability": "view",
      "type": "function"
    },
    {
      "inputs": [],
      "name": "toggleMinting",
      "outputs": [],
      "stateMutability": "nonpayable",
      "type": "function"
    },
    {
      "inputs": [
        {
          "internalType": "uint256",
          "name": "tokenId",
          "type": "uint256"
        }
      ],
      "name": "togglePuzzleLock",
      "outputs": [],
      "stateMutability": "nonpayable",
      "type": "function"
    },
    {
      "inputs": [
        {
          "internalType": "uint256",
          "name": "index",
          "type": "uint256"
        }
      ],
      "name": "tokenByIndex",
      "outputs": [
        {
          "internalType": "uint256",
          "name": "",
          "type": "uint256"
        }
      ],
      "stateMutability": "view",
      "type": "function"
    },
    {
      "inputs": [
        {
          "internalType": "address",
          "name": "owner",
          "type": "address"
        },
        {
          "internalType": "uint256",
          "name": "index",
          "type": "uint256"
        }
      ],
      "name": "tokenOfOwnerByIndex",
      "outputs": [
        {
          "internalType": "uint256",
          "name": "",
          "type": "uint256"
        }
      ],
      "stateMutability": "view",
      "type": "function"
    },
    {
      "inputs": [
        {
          "internalType": "uint256",
          "name": "tokenId",
          "type": "uint256"
        }
      ],
      "name": "tokenURI",
      "outputs": [
        {
          "internalType": "string",
          "name": "",
          "type": "string"
        }
      ],
      "stateMutability": "view",
      "type": "function"
    },
    {
      "inputs": [],
      "name": "totalSupply",
      "outputs": [
        {
          "internalType": "uint256",
          "name": "",
          "type": "uint256"
        }
      ],
      "stateMutability": "view",
      "type": "function"
    },
    {
      "inputs": [
        {
          "internalType": "address",
          "name": "from",
          "type": "address"
        },
        {
          "internalType": "address",
          "name": "to",
          "type": "address"
        },
        {
          "internalType": "uint256",
          "name": "tokenId",
          "type": "uint256"
        }
      ],
      "name": "transferFrom",
      "outputs": [],
      "stateMutability": "nonpayable",
      "type": "function"
    },
    {
      "inputs": [
        {
          "internalType": "address",
          "name": "newOwner",
          "type": "address"
        }
      ],
      "name": "transferOwnership",
      "outputs": [],
      "stateMutability": "nonpayable",
      "type": "function"
    },
    {
      "inputs": [
        {
          "internalType": "address",
          "name": "",
          "type": "address"
        }
      ],
      "name": "whitelist",
      "outputs": [
        {
          "internalType": "bool",
          "name": "",
          "type": "bool"
        }
      ],
      "stateMutability": "view",
      "type": "function"
    },
    {
      "inputs": [],
      "name": "withdraw",
      "outputs": [],
      "stateMutability": "nonpayable",
      "type": "function"
    }
  ],
  "bytecode": "0x60806040526127106014556001601560006101000a81548160ff02191690831515021790555060fa6016553480156200003757600080fd5b506040518060400160405280601681526020017f496e7465726163746976652050757a7a6c65204e4654000000000000000000008152506040518060400160405280600681526020017f50555a5a4c4500000000000000000000000000000000000000000000000000008152508160009081620000b59190620004a9565b508060019081620000c79190620004a9565b5050506001600b81905550620000f2620000e66200014b60201b60201c565b6200015360201b60201c565b62000104600d6200021960201b60201c565b33601760006101000a81548173ffffffffffffffffffffffffffffffffffffffff021916908373ffffffffffffffffffffffffffffffffffffffff16021790555062000590565b600033905090565b6000600c60009054906101000a900473ffffffffffffffffffffffffffffffffffffffff16905081600c60006101000a81548173ffffffffffffffffffffffffffffffffffffffff021916908373ffffffffffffffffffffffffffffffffffffffff1602179055508173ffffffffffffffffffffffffffffffffffffffff168173ffffffffffffffffffffffffffffffffffffffff167f8be0079c531659141344cd1fd0a4f28419497f9722a3daafe3b4186f6b6457e060405160405180910390a35050565b6001816000016000828254019250508190555050565b600081519050919050565b7f4e487b7100000000000000000000000000000000000000000000000000000000600052604160045260246000fd5b7f4e487b7100000000000000000000000000000000000000000000000000000000600052602260045260246000fd5b60006002820490506001821680620002b157607f821691505b602082108103620002c757620002c662000269565b5b50919050565b60008190508160005260206000209050919050565b60006020601f8301049050919050565b600082821b905092915050565b600060088302620003317fffffffffffffffffffffffffffffffffffffffffffffffffffffffffffffffff82620002f2565b6200033d8683620002f2565b95508019841693508086168417925050509392505050565b6000819050919050565b6000819050919050565b60006200038a620003846200037e8462000355565b6200035f565b62000355565b9050919050565b6000819050919050565b620003a68362000369565b620003be620003b58262000391565b848454620002ff565b825550505050565b600090565b620003d5620003c6565b620003e28184846200039b565b505050565b5b818110156200040a57620003fe600082620003cb565b600181019050620003e8565b5050565b601f82111562000459576200042381620002cd565b6200042e84620002e2565b810160208510156200043e578190505b620004566200044d85620002e2565b830182620003e7565b50505b505050565b600082821c905092915050565b60006200047e600019846008026200045e565b1980831691505092915050565b60006200049983836200046b565b9150826002028217905092915050565b620004b4826200022f565b67ffffffffffffffff811115620004d057620004cf6200023a565b5b620004dc825462000298565b620004e98282856200040e565b600060209050601f8311600181146200052157600084156200050c578287015190505b6200051885826200048b565b86555062000588565b601f1984166200053186620002cd565b60005b828110156200055b5784890151825560018201915060208501945060208101905062000534565b868310156200057b578489015162000577601f8916826200046b565b8355505b6001600288020188555050505b505050505050565b615d3880620005a06000396000f3fe6080604052600436106102675760003560e01c80638a71bb2d11610144578063c87b56dd116100b6578063ed9ec8881161007a578063ed9ec88814610971578063f09f5cbb146109ae578063f28a1c5c146109eb578063f2fde38b14610a14578063f6d62d7e14610a3d578063f939657714610a7a57610267565b8063c87b56dd1461084d578063cf198afa1461088a578063d5abeb01146108cc578063d6b2ad97146108f7578063e985e9c51461093457610267565b80639fbc8713116101085780639fbc87131461073c5780639fd6db1214610767578063a22cb46514610792578063b88d4fde146107bb578063c002d23d146107e4578063c7ed115e1461080f57610267565b80638a71bb2d146106555780638da5cb5b146106805780638dc251e3146106ab57806395d89b41146106d45780639b19251a146106ff57610267565b80634f6ccce7116101dd5780636bed4d47116101a15780636bed4d471461055b5780636f8b44b01461058457806370a08231146105ad578063715018a6146105ea5780637d55094d146106015780637f5c74371461061857610267565b80634f6ccce7146104735780635087f6eb146104b057806353d6fd59146104cc57806361ba27da146104f55780636352211e1461051e57610267565b806318160ddd1161022f57806318160ddd1461036557806323b872dd146103905780632f745c59146103b9578063314f210f146103f65780633ccfd60b1461043357806342842e0e1461044a57610267565b806301ffc9a71461026c57806306fdde03146102a9578063081812fc146102d4578063095ea7b3146103115780630f2cdd6c1461033a575b600080fd5b34801561027857600080fd5b50610293600480360381019061028e9190613dcd565b610ab7565b6040516102a09190613e15565b60405180910390f35b3480156102b557600080fd5b506102be610b00565b6040516102cb9190613ec0565b60405180910390f35b3480156102e057600080fd5b506102fb60048036038101906102f69190613f18565b610b92565b6040516103089190613f86565b60405180910390f35b34801561031d57600080fd5b5061033860048036038101906103339190613fcd565b610bd8565b005b34801561034657600080fd5b5061034f610cef565b60405161035c919061401c565b60405180910390f35b34801561037157600080fd5b5061037a610cf4565b604051610387919061401c565b60405180910390f35b34801561039c57600080fd5b506103b760048036038101906103b29190614037565b610d11565b005b3480156103c557600080fd5b506103e060048036038101906103db9190613fcd565b610d71565b6040516103ed919061401c565b60405180910390f35b34801561040257600080fd5b5061041d6004803603810190610418919061408a565b610e16565b60405161042a9190613e15565b60405180910390f35b34801561043f57600080fd5b50610448610e7e565b005b34801561045657600080fd5b50610471600480360381019061046c9190614037565b610edc565b005b34801561047f57600080fd5b5061049a60048036038101906104959190613f18565b610efc565b6040516104a7919061401c565b60405180910390f35b6104ca60048036038101906104c591906141ff565b610f6d565b005b3480156104d857600080fd5b506104f360048036038101906104ee919061430c565b611431565b005b34801561050157600080fd5b5061051c60048036038101906105179190613f18565b6114e2565b005b34801561052a57600080fd5b5061054560048036038101906105409190613f18565b6115ab565b6040516105529190613f86565b60405180910390f35b34801561056757600080fd5b50610582600480360381019061057d919061434c565b611631565b005b34801561059057600080fd5b506105ab60048036038101906105a69190613f18565b6119bd565b005b3480156105b957600080fd5b506105d460048036038101906105cf91906143a8565b6119cf565b6040516105e1919061401c565b60405180910390f35b3480156105f657600080fd5b506105ff611a86565b005b34801561060d57600080fd5b50610616611a9a565b005b34801561062457600080fd5b5061063f600480360381019061063a9190613f18565b611ace565b60405161064c9190613e15565b60405180910390f35b34801561066157600080fd5b5061066a611af8565b604051610677919061401c565b60405180910390f35b34801561068c57600080fd5b50610695611afe565b6040516106a29190613f86565b60405180910390f35b3480156106b757600080fd5b506106d260048036038101906106cd91906143a8565b611b28565b005b3480156106e057600080fd5b506106e9611c55565b6040516106f69190613ec0565b60405180910390f35b34801561070b57600080fd5b50610726600480360381019061072191906143a8565b611ce7565b6040516107339190613e15565b60405180910390f35b34801561074857600080fd5b50610751611d07565b60405161075e9190613f86565b60405180910390f35b34801561077357600080fd5b5061077c611d2d565b6040516107899190613e15565b60405180910390f35b34801561079e57600080fd5b506107b960048036038101906107b4919061430c565b611d40565b005b3480156107c757600080fd5b506107e260048036038101906107dd9190614476565b611d56565b005b3480156107f057600080fd5b506107f9611db8565b604051610806919061401c565b60405180910390f35b34801561081b57600080fd5b50610836600480360381019061083191906144f9565b611dc3565b604051610844929190614539565b60405180910390f35b34801561085957600080fd5b50610874600480360381019061086f9190613f18565b611e5d565b6040516108819190613ec0565b60405180910390f35b34801561089657600080fd5b506108b160048036038101906108ac9190613f18565b611e6f565b6040516108c396959493929190614562565b60405180910390f35b3480156108d857600080fd5b506108e1611fe8565b6040516108ee919061401c565b60405180910390f35b34801561090357600080fd5b5061091e60048036038101906109199190613f18565b611fee565b60405161092b9190613e15565b60405180910390f35b34801561094057600080fd5b5061095b600480360381019061095691906145d1565b61200e565b6040516109689190613e15565b60405180910390f35b34801561097d57600080fd5b50610998600480360381019061099391906143a8565b6120a2565b6040516109a5919061401c565b60405180910390f35b3480156109ba57600080fd5b506109d560048036038101906109d09190613f18565b6120ba565b6040516109e29190614718565b60405180910390f35b3480156109f757600080fd5b50610a126004803603810190610a0d9190613f18565b6122d8565b005b348015610a2057600080fd5b50610a3b6004803603810190610a3691906143a8565b612446565b005b348015610a4957600080fd5b50610a646004803603810190610a5f919061473a565b6124c9565b604051610a71919061401c565b60405180910390f35b348015610a8657600080fd5b50610aa16004803603810190610a9c919061408a565b6124f7565b604051610aae9190613e15565b60405180910390f35b6000632a55205a60e01b827bffffffffffffffffffffffffffffffffffffffffffffffffffffffff191603610aef5760019050610afb565b610af882612526565b90505b919050565b606060008054610b0f906147b2565b80601f0160208091040260200160405190810160405280929190818152602001828054610b3b906147b2565b8015610b885780601f10610b5d57610100808354040283529160200191610b88565b820191906000526020600020905b815481529060010190602001808311610b6b57829003601f168201915b5050505050905090565b6000610b9d826125a0565b6004600083815260200190815260200160002060009054906101000a900473ffffffffffffffffffffffffffffffffffffffff169050919050565b6000610be3826115ab565b90508073ffffffffffffffffffffffffffffffffffffffff168373ffffffffffffffffffffffffffffffffffffffff1603610c53576040517f08c379a0000000000000000000000000000000000000000000000000000000008152600401610c4a90614855565b60405180910390fd5b8073ffffffffffffffffffffffffffffffffffffffff16610c726125eb565b73ffffffffffffffffffffffffffffffffffffffff161480610ca15750610ca081610c9b6125eb565b61200e565b5b610ce0576040517f08c379a0000000000000000000000000000000000000000000000000000000008152600401610cd7906148e7565b60405180910390fd5b610cea83836125f3565b505050565b603281565b60006001610d02600d6126ac565b610d0c9190614936565b905090565b610d22610d1c6125eb565b826126ba565b610d61576040517f08c379a0000000000000000000000000000000000000000000000000000000008152600401610d58906149dc565b60405180910390fd5b610d6c83838361274f565b505050565b6000610d7c836119cf565b8210610dbd576040517f08c379a0000000000000000000000000000000000000000000000000000000008152600401610db490614a6e565b60405180910390fd5b600760008473ffffffffffffffffffffffffffffffffffffffff1673ffffffffffffffffffffffffffffffffffffffff168152602001908152602001600020600083815260200190815260200160002054905092915050565b60006011600084815260200190815260200160002060008373ffffffffffffffffffffffffffffffffffffffff1673ffffffffffffffffffffffffffffffffffffffff16815260200190815260200160002060009054906101000a900460ff16905092915050565b610e86612a48565b6000479050610e93611afe565b73ffffffffffffffffffffffffffffffffffffffff166108fc829081150290604051600060405180830381858888f19350505050158015610ed8573d6000803e3d6000fd5b5050565b610ef783838360405180602001604052806000815250611d56565b505050565b6000610f06612ac6565b8210610f47576040517f08c379a0000000000000000000000000000000000000000000000000000000008152600401610f3e90614b00565b60405180910390fd5b60098281548110610f5b57610f5a614b20565b5b90600052602060002001549050919050565b610f75612ad3565b601560009054906101000a900460ff16610fc4576040517f08c379a0000000000000000000000000000000000000000000000000000000008152600401610fbb90614b9b565b60405180910390fd5b601454610fd1600d6126ac565b10611011576040517f08c379a000000000000000000000000000000000000000000000000000000000815260040161100890614c07565b60405180910390fd5b6001851180156110225750600a8511155b611061576040517f08c379a000000000000000000000000000000000000000000000000000000000815260040161105890614c73565b60405180910390fd5b6013600082815260200190815260200160002060009054906101000a900460ff16156110c2576040517f08c379a00000000000000000000000000000000000000000000000000000000081526004016110b990614d05565b60405180910390fd5b6110ca611afe565b73ffffffffffffffffffffffffffffffffffffffff163373ffffffffffffffffffffffffffffffffffffffff161415801561114f5750601260003373ffffffffffffffffffffffffffffffffffffffff1673ffffffffffffffffffffffffffffffffffffffff16815260200190815260200160002060009054906101000a900460ff16155b156112215766038d7ea4c6800034101561119e576040517f08c379a000000000000000000000000000000000000000000000000000000000815260040161119590614d71565b60405180910390fd5b6032601060003373ffffffffffffffffffffffffffffffffffffffff1673ffffffffffffffffffffffffffffffffffffffff1681526020019081526020016000205410611220576040517f08c379a000000000000000000000000000000000000000000000000000000000815260040161121790614ddd565b60405180910390fd5b5b600061122d600d6126ac565b9050611239600d612b22565b6040518060c001604052808781526020018681526020013373ffffffffffffffffffffffffffffffffffffffff16815260200160001515815260200184815260200185815250600e60008381526020019081526020016000206000820151816000015560208201518160010190816112b19190614fa9565b5060408201518160020160006101000a81548173ffffffffffffffffffffffffffffffffffffffff021916908373ffffffffffffffffffffffffffffffffffffffff16021790555060608201518160020160146101000a81548160ff0219169083151502179055506080820151816003015560a08201518160040190816113389190614fa9565b5090505060016013600084815260200190815260200160002060006101000a81548160ff021916908315150217905550601060003373ffffffffffffffffffffffffffffffffffffffff1673ffffffffffffffffffffffffffffffffffffffff16815260200190815260200160002060008154809291906113b89061507b565b91905055506113c73382612b38565b6113d18188612b56565b3373ffffffffffffffffffffffffffffffffffffffff16817f09664ddcf23fddada30bbdebf70f87d2d99cd40a4dc0fac8b5c54cff487e0ced88604051611418919061401c565b60405180910390a350611429612bfa565b505050505050565b611439612a48565b80601260008473ffffffffffffffffffffffffffffffffffffffff1673ffffffffffffffffffffffffffffffffffffffff16815260200190815260200160002060006101000a81548160ff0219169083151502179055508173ffffffffffffffffffffffffffffffffffffffff167ff93f9a76c1bf3444d22400a00cb9fe990e6abe9dbb333fda48859cfee864543d826040516114d69190613e15565b60405180910390a25050565b6114ea612a48565b6103e881111561152f576040517f08c379a00000000000000000000000000000000000000000000000000000000081526004016115269061510f565b60405180910390fd5b80601681905550601760009054906101000a900473ffffffffffffffffffffffffffffffffffffffff1673ffffffffffffffffffffffffffffffffffffffff167faf1c0be9124aef2948fc934d6013ed3f705d2869bc4955cb4f655b0bc2952f656016546040516115a0919061401c565b60405180910390a250565b6000806115b783612c04565b9050600073ffffffffffffffffffffffffffffffffffffffff168173ffffffffffffffffffffffffffffffffffffffff1603611628576040517f08c379a000000000000000000000000000000000000000000000000000000000815260040161161f9061517b565b60405180910390fd5b80915050919050565b61163a82612c41565b611679576040517f08c379a0000000000000000000000000000000000000000000000000000000008152600401611670906151e7565b60405180910390fd5b6011600083815260200190815260200160002060003373ffffffffffffffffffffffffffffffffffffffff1673ffffffffffffffffffffffffffffffffffffffff16815260200190815260200160002060009054906101000a900460ff1615611717576040517f08c379a000000000000000000000000000000000000000000000000000000000815260040161170e90615253565b60405180910390fd5b600e600083815260200190815260200160002060020160149054906101000a900460ff161561177b576040517f08c379a0000000000000000000000000000000000000000000000000000000008152600401611772906152bf565b60405180910390fd5b600e60008381526020019081526020016000206001016040516020016117a1919061536d565b60405160208183030381529060405280519060200120816040516020016117c891906153b5565b604051602081830303815290604052805190602001201461181e576040517f08c379a000000000000000000000000000000000000000000000000000000000815260040161181590615418565b60405180910390fd5b60016011600084815260200190815260200160002060003373ffffffffffffffffffffffffffffffffffffffff1673ffffffffffffffffffffffffffffffffffffffff16815260200190815260200160002060006101000a81548160ff0219169083151502179055506000600e6000848152602001908152602001600020600301541115611975576000600e60008481526020019081526020016000206003015490506000600e6000858152602001908152602001600020600301819055503373ffffffffffffffffffffffffffffffffffffffff166108fc829081150290604051600060405180830381858888f19350505050158015611923573d6000803e3d6000fd5b503373ffffffffffffffffffffffffffffffffffffffff16837f24b5efa61dd1cfc659205a97fb8ed868f3cb8c81922bab2b96423e5de1de2cb78360405161196b919061401c565b60405180910390a3505b3373ffffffffffffffffffffffffffffffffffffffff16827f90716828de4240c2d0e1f7916fc95ed6b6fc6e23fe0eec2f8dda4b8acc82898e60405160405180910390a35050565b6119c5612a48565b8060148190555050565b60008073ffffffffffffffffffffffffffffffffffffffff168273ffffffffffffffffffffffffffffffffffffffff1603611a3f576040517f08c379a0000000000000000000000000000000000000000000000000000000008152600401611a36906154aa565b60405180910390fd5b600360008373ffffffffffffffffffffffffffffffffffffffff1673ffffffffffffffffffffffffffffffffffffffff168152602001908152602001600020549050919050565b611a8e612a48565b611a986000612c82565b565b611aa2612a48565b601560009054906101000a900460ff1615601560006101000a81548160ff021916908315150217905550565b60006013600083815260200190815260200160002060009054906101000a900460ff169050919050565b60165481565b6000600c60009054906101000a900473ffffffffffffffffffffffffffffffffffffffff16905090565b611b30612a48565b600073ffffffffffffffffffffffffffffffffffffffff168173ffffffffffffffffffffffffffffffffffffffff1603611b9f576040517f08c379a0000000000000000000000000000000000000000000000000000000008152600401611b9690615516565b60405180910390fd5b80601760006101000a81548173ffffffffffffffffffffffffffffffffffffffff021916908373ffffffffffffffffffffffffffffffffffffffff160217905550601760009054906101000a900473ffffffffffffffffffffffffffffffffffffffff1673ffffffffffffffffffffffffffffffffffffffff167faf1c0be9124aef2948fc934d6013ed3f705d2869bc4955cb4f655b0bc2952f65601654604051611c4a919061401c565b60405180910390a250565b606060018054611c64906147b2565b80601f0160208091040260200160405190810160405280929190818152602001828054611c90906147b2565b8015611cdd5780601f10611cb257610100808354040283529160200191611cdd565b820191906000526020600020905b815481529060010190602001808311611cc057829003601f168201915b5050505050905090565b60126020528060005260406000206000915054906101000a900460ff1681565b601760009054906101000a900473ffffffffffffffffffffffffffffffffffffffff1681565b601560009054906101000a900460ff1681565b611d52611d4b6125eb565b8383612d48565b5050565b611d67611d616125eb565b836126ba565b611da6576040517f08c379a0000000000000000000000000000000000000000000000000000000008152600401611d9d906149dc565b60405180910390fd5b611db284848484612eb4565b50505050565b66038d7ea4c6800081565b600080611dcf84612c41565b611e0e576040517f08c379a0000000000000000000000000000000000000000000000000000000008152600401611e05906151e7565b60405180910390fd5b600061271060165485611e219190615536565b611e2b91906155a7565b9050601760009054906101000a900473ffffffffffffffffffffffffffffffffffffffff168192509250509250929050565b6060611e6882612f10565b9050919050565b600e602052806000526040600020600091509050806000015490806001018054611e98906147b2565b80601f0160208091040260200160405190810160405280929190818152602001828054611ec4906147b2565b8015611f115780601f10611ee657610100808354040283529160200191611f11565b820191906000526020600020905b815481529060010190602001808311611ef457829003601f168201915b5050505050908060020160009054906101000a900473ffffffffffffffffffffffffffffffffffffffff16908060020160149054906101000a900460ff1690806003015490806004018054611f65906147b2565b80601f0160208091040260200160405190810160405280929190818152602001828054611f91906147b2565b8015611fde5780601f10611fb357610100808354040283529160200191611fde565b820191906000526020600020905b815481529060010190602001808311611fc157829003601f168201915b5050505050905086565b60145481565b60136020528060005260406000206000915054906101000a900460ff1681565b6000600560008473ffffffffffffffffffffffffffffffffffffffff1673ffffffffffffffffffffffffffffffffffffffff16815260200190815260200160002060008373ffffffffffffffffffffffffffffffffffffffff1673ffffffffffffffffffffffffffffffffffffffff16815260200190815260200160002060009054906101000a900460ff16905092915050565b60106020528060005260406000206000915090505481565b6120c2613d13565b6120cb82612c41565b61210a576040517f08c379a0000000000000000000000000000000000000000000000000000000008152600401612101906151e7565b60405180910390fd5b600e60008381526020019081526020016000206040518060c001604052908160008201548152602001600182018054612142906147b2565b80601f016020809104026020016040519081016040528092919081815260200182805461216e906147b2565b80156121bb5780601f10612190576101008083540402835291602001916121bb565b820191906000526020600020905b81548152906001019060200180831161219e57829003601f168201915b505050505081526020016002820160009054906101000a900473ffffffffffffffffffffffffffffffffffffffff1673ffffffffffffffffffffffffffffffffffffffff1673ffffffffffffffffffffffffffffffffffffffff1681526020016002820160149054906101000a900460ff161515151581526020016003820154815260200160048201805461224f906147b2565b80601f016020809104026020016040519081016040528092919081815260200182805461227b906147b2565b80156122c85780601f1061229d576101008083540402835291602001916122c8565b820191906000526020600020905b8154815290600101906020018083116122ab57829003601f168201915b5050505050815250509050919050565b6122e181612c41565b612320576040517f08c379a0000000000000000000000000000000000000000000000000000000008152600401612317906151e7565b60405180910390fd5b3373ffffffffffffffffffffffffffffffffffffffff16612340826115ab565b73ffffffffffffffffffffffffffffffffffffffff1614612396576040517f08c379a000000000000000000000000000000000000000000000000000000000815260040161238d90615624565b60405180910390fd5b600e600082815260200190815260200160002060020160149054906101000a900460ff1615600e600083815260200190815260200160002060020160146101000a81548160ff021916908315150217905550807f10c65bf7a9feb8308f4bd53d052cd5b3b7dcfad9b9e51eb190372786fec643a2600e600084815260200190815260200160002060020160149054906101000a900460ff1660405161243b9190613e15565b60405180910390a250565b61244e612a48565b600073ffffffffffffffffffffffffffffffffffffffff168173ffffffffffffffffffffffffffffffffffffffff16036124bd576040517f08c379a00000000000000000000000000000000000000000000000000000000081526004016124b4906156b6565b60405180910390fd5b6124c681612c82565b50565b600f818051602081018201805184825260208301602085012081835280955050505050506000915090505481565b60116020528160005260406000206020528060005260406000206000915091509054906101000a900460ff1681565b60007f780e9d63000000000000000000000000000000000000000000000000000000007bffffffffffffffffffffffffffffffffffffffffffffffffffffffff1916827bffffffffffffffffffffffffffffffffffffffffffffffffffffffff19161480612599575061259882613022565b5b9050919050565b6125a981612c41565b6125e8576040517f08c379a00000000000000000000000000000000000000000000000000000000081526004016125df9061517b565b60405180910390fd5b50565b600033905090565b816004600083815260200190815260200160002060006101000a81548173ffffffffffffffffffffffffffffffffffffffff021916908373ffffffffffffffffffffffffffffffffffffffff160217905550808273ffffffffffffffffffffffffffffffffffffffff16612666836115ab565b73ffffffffffffffffffffffffffffffffffffffff167f8c5be1e5ebec7d5bd14f71427d1e84f3dd0314c0f7b2291e5b200ac8c7c3b92560405160405180910390a45050565b600081600001549050919050565b6000806126c6836115ab565b90508073ffffffffffffffffffffffffffffffffffffffff168473ffffffffffffffffffffffffffffffffffffffff1614806127085750612707818561200e565b5b8061274657508373ffffffffffffffffffffffffffffffffffffffff1661272e84610b92565b73ffffffffffffffffffffffffffffffffffffffff16145b91505092915050565b8273ffffffffffffffffffffffffffffffffffffffff1661276f826115ab565b73ffffffffffffffffffffffffffffffffffffffff16146127c5576040517f08c379a00000000000000000000000000000000000000000000000000000000081526004016127bc90615748565b60405180910390fd5b600073ffffffffffffffffffffffffffffffffffffffff168273ffffffffffffffffffffffffffffffffffffffff1603612834576040517f08c379a000000000000000000000000000000000000000000000000000000000815260040161282b906157da565b60405180910390fd5b6128418383836001613083565b8273ffffffffffffffffffffffffffffffffffffffff16612861826115ab565b73ffffffffffffffffffffffffffffffffffffffff16146128b7576040517f08c379a00000000000000000000000000000000000000000000000000000000081526004016128ae90615748565b60405180910390fd5b6004600082815260200190815260200160002060006101000a81549073ffffffffffffffffffffffffffffffffffffffff02191690556001600360008573ffffffffffffffffffffffffffffffffffffffff1673ffffffffffffffffffffffffffffffffffffffff168152602001908152602001600020600082825403925050819055506001600360008473ffffffffffffffffffffffffffffffffffffffff1673ffffffffffffffffffffffffffffffffffffffff16815260200190815260200160002060008282540192505081905550816002600083815260200190815260200160002060006101000a81548173ffffffffffffffffffffffffffffffffffffffff021916908373ffffffffffffffffffffffffffffffffffffffff160217905550808273ffffffffffffffffffffffffffffffffffffffff168473ffffffffffffffffffffffffffffffffffffffff167fddf252ad1be2c89b69c2b068fc378daa952ba7f163c4a11628f55a4df523b3ef60405160405180910390a4612a438383836001613095565b505050565b612a506125eb565b73ffffffffffffffffffffffffffffffffffffffff16612a6e611afe565b73ffffffffffffffffffffffffffffffffffffffff1614612ac4576040517f08c379a0000000000000000000000000000000000000000000000000000000008152600401612abb90615846565b60405180910390fd5b565b6000600980549050905090565b6002600b5403612b18576040517f08c379a0000000000000000000000000000000000000000000000000000000008152600401612b0f906158b2565b60405180910390fd5b6002600b81905550565b6001816000016000828254019250508190555050565b612b5282826040518060200160405280600081525061309b565b5050565b612b5f82612c41565b612b9e576040517f08c379a0000000000000000000000000000000000000000000000000000000008152600401612b9590615944565b60405180910390fd5b80600660008481526020019081526020016000209081612bbe9190614fa9565b507ff8e1a15aba9398e019f0b49df1a4fde98ee17ae345cb5f6b5e2c27f5033e8ce782604051612bee919061401c565b60405180910390a15050565b6001600b81905550565b60006002600083815260200190815260200160002060009054906101000a900473ffffffffffffffffffffffffffffffffffffffff169050919050565b60008073ffffffffffffffffffffffffffffffffffffffff16612c6383612c04565b73ffffffffffffffffffffffffffffffffffffffff1614159050919050565b6000600c60009054906101000a900473ffffffffffffffffffffffffffffffffffffffff16905081600c60006101000a81548173ffffffffffffffffffffffffffffffffffffffff021916908373ffffffffffffffffffffffffffffffffffffffff1602179055508173ffffffffffffffffffffffffffffffffffffffff168173ffffffffffffffffffffffffffffffffffffffff167f8be0079c531659141344cd1fd0a4f28419497f9722a3daafe3b4186f6b6457e060405160405180910390a35050565b8173ffffffffffffffffffffffffffffffffffffffff168373ffffffffffffffffffffffffffffffffffffffff1603612db6576040517f08c379a0000000000000000000000000000000000000000000000000000000008152600401612dad906159b0565b60405180910390fd5b80600560008573ffffffffffffffffffffffffffffffffffffffff1673ffffffffffffffffffffffffffffffffffffffff16815260200190815260200160002060008473ffffffffffffffffffffffffffffffffffffffff1673ffffffffffffffffffffffffffffffffffffffff16815260200190815260200160002060006101000a81548160ff0219169083151502179055508173ffffffffffffffffffffffffffffffffffffffff168373ffffffffffffffffffffffffffffffffffffffff167f17307eab39ab6107e8899845ad3d59bd9653f200f220920489ca2b5937696c3183604051612ea79190613e15565b60405180910390a3505050565b612ebf84848461274f565b612ecb848484846130f6565b612f0a576040517f08c379a0000000000000000000000000000000000000000000000000000000008152600401612f0190615a42565b60405180910390fd5b50505050565b6060612f1b826125a0565b6000600660008481526020019081526020016000208054612f3b906147b2565b80601f0160208091040260200160405190810160405280929190818152602001828054612f67906147b2565b8015612fb45780601f10612f8957610100808354040283529160200191612fb4565b820191906000526020600020905b815481529060010190602001808311612f9757829003601f168201915b505050505090506000612fc561327d565b90506000815103612fda57819250505061301d565b60008251111561300f578082604051602001612ff7929190615a62565b6040516020818303038152906040529250505061301d565b61301884613294565b925050505b919050565b6000634906490660e01b7bffffffffffffffffffffffffffffffffffffffffffffffffffffffff1916827bffffffffffffffffffffffffffffffffffffffffffffffffffffffff1916148061307c575061307b826132fc565b5b9050919050565b61308f848484846133de565b50505050565b50505050565b6130a5838361353c565b6130b260008484846130f6565b6130f1576040517f08c379a00000000000000000000000000000000000000000000000000000000081526004016130e890615a42565b60405180910390fd5b505050565b60006131178473ffffffffffffffffffffffffffffffffffffffff16613759565b15613270578373ffffffffffffffffffffffffffffffffffffffff1663150b7a026131406125eb565b8786866040518563ffffffff1660e01b81526004016131629493929190615adb565b6020604051808303816000875af192505050801561319e57506040513d601f19601f8201168201806040525081019061319b9190615b3c565b60015b613220573d80600081146131ce576040519150601f19603f3d011682016040523d82523d6000602084013e6131d3565b606091505b506000815103613218576040517f08c379a000000000000000000000000000000000000000000000000000000000815260040161320f90615a42565b60405180910390fd5b805181602001fd5b63150b7a0260e01b7bffffffffffffffffffffffffffffffffffffffffffffffffffffffff1916817bffffffffffffffffffffffffffffffffffffffffffffffffffffffff191614915050613275565b600190505b949350505050565b606060405180602001604052806000815250905090565b606061329f826125a0565b60006132a961327d565b905060008151116132c957604051806020016040528060008152506132f4565b806132d38461377c565b6040516020016132e4929190615a62565b6040516020818303038152906040525b915050919050565b60007f80ac58cd000000000000000000000000000000000000000000000000000000007bffffffffffffffffffffffffffffffffffffffffffffffffffffffff1916827bffffffffffffffffffffffffffffffffffffffffffffffffffffffff191614806133c757507f5b5e139f000000000000000000000000000000000000000000000000000000007bffffffffffffffffffffffffffffffffffffffffffffffffffffffff1916827bffffffffffffffffffffffffffffffffffffffffffffffffffffffff1916145b806133d757506133d68261384a565b5b9050919050565b6133ea848484846138b4565b600181111561342e576040517f08c379a000000000000000000000000000000000000000000000000000000000815260040161342590615bdb565b60405180910390fd5b6000829050600073ffffffffffffffffffffffffffffffffffffffff168573ffffffffffffffffffffffffffffffffffffffff160361347557613470816138ba565b6134b4565b8373ffffffffffffffffffffffffffffffffffffffff168573ffffffffffffffffffffffffffffffffffffffff16146134b3576134b28582613903565b5b5b600073ffffffffffffffffffffffffffffffffffffffff168473ffffffffffffffffffffffffffffffffffffffff16036134f6576134f181613a70565b613535565b8473ffffffffffffffffffffffffffffffffffffffff168473ffffffffffffffffffffffffffffffffffffffff1614613534576135338482613b41565b5b5b5050505050565b600073ffffffffffffffffffffffffffffffffffffffff168273ffffffffffffffffffffffffffffffffffffffff16036135ab576040517f08c379a00000000000000000000000000000000000000000000000000000000081526004016135a290615c47565b60405180910390fd5b6135b481612c41565b156135f4576040517f08c379a00000000000000000000000000000000000000000000000000000000081526004016135eb90615cb3565b60405180910390fd5b613602600083836001613083565b61360b81612c41565b1561364b576040517f08c379a000000000000000000000000000000000000000000000000000000000815260040161364290615cb3565b60405180910390fd5b6001600360008473ffffffffffffffffffffffffffffffffffffffff1673ffffffffffffffffffffffffffffffffffffffff16815260200190815260200160002060008282540192505081905550816002600083815260200190815260200160002060006101000a81548173ffffffffffffffffffffffffffffffffffffffff021916908373ffffffffffffffffffffffffffffffffffffffff160217905550808273ffffffffffffffffffffffffffffffffffffffff16600073ffffffffffffffffffffffffffffffffffffffff167fddf252ad1be2c89b69c2b068fc378daa952ba7f163c4a11628f55a4df523b3ef60405160405180910390a4613755600083836001613095565b5050565b6000808273ffffffffffffffffffffffffffffffffffffffff163b119050919050565b60606000600161378b84613bc0565b01905060008167ffffffffffffffff8111156137aa576137a96140d4565b5b6040519080825280601f01601f1916602001820160405280156137dc5781602001600182028036833780820191505090505b509050600082602001820190505b60011561383f578080600190039150507f3031323334353637383961626364656600000000000000000000000000000000600a86061a8153600a858161383357613832615578565b5b049450600085036137ea575b819350505050919050565b60007f01ffc9a7000000000000000000000000000000000000000000000000000000007bffffffffffffffffffffffffffffffffffffffffffffffffffffffff1916827bffffffffffffffffffffffffffffffffffffffffffffffffffffffff1916149050919050565b50505050565b600980549050600a600083815260200190815260200160002081905550600981908060018154018082558091505060019003906000526020600020016000909190919091505550565b60006001613910846119cf565b61391a9190614936565b90506000600860008481526020019081526020016000205490508181146139ff576000600760008673ffffffffffffffffffffffffffffffffffffffff1673ffffffffffffffffffffffffffffffffffffffff168152602001908152602001600020600084815260200190815260200160002054905080600760008773ffffffffffffffffffffffffffffffffffffffff1673ffffffffffffffffffffffffffffffffffffffff168152602001908152602001600020600084815260200190815260200160002081905550816008600083815260200190815260200160002081905550505b6008600084815260200190815260200160002060009055600760008573ffffffffffffffffffffffffffffffffffffffff1673ffffffffffffffffffffffffffffffffffffffff16815260200190815260200160002060008381526020019081526020016000206000905550505050565b60006001600980549050613a849190614936565b90506000600a6000848152602001908152602001600020549050600060098381548110613ab457613ab3614b20565b5b906000526020600020015490508060098381548110613ad657613ad5614b20565b5b906000526020600020018190555081600a600083815260200190815260200160002081905550600a6000858152602001908152602001600020600090556009805480613b2557613b24615cd3565b5b6001900381819060005260206000200160009055905550505050565b6000613b4c836119cf565b905081600760008573ffffffffffffffffffffffffffffffffffffffff1673ffffffffffffffffffffffffffffffffffffffff168152602001908152602001600020600083815260200190815260200160002081905550806008600084815260200190815260200160002081905550505050565b600080600090507a184f03e93ff9f4daa797ed6e38ed64bf6a1f0100000000000000008310613c1e577a184f03e93ff9f4daa797ed6e38ed64bf6a1f0100000000000000008381613c1457613c13615578565b5b0492506040810190505b6d04ee2d6d415b85acef81000000008310613c5b576d04ee2d6d415b85acef81000000008381613c5157613c50615578565b5b0492506020810190505b662386f26fc100008310613c8a57662386f26fc100008381613c8057613c7f615578565b5b0492506010810190505b6305f5e1008310613cb3576305f5e1008381613ca957613ca8615578565b5b0492506008810190505b6127108310613cd8576127108381613cce57613ccd615578565b5b0492506004810190505b60648310613cfb5760648381613cf157613cf0615578565b5b0492506002810190505b600a8310613d0a576001810190505b80915050919050565b6040518060c001604052806000815260200160608152602001600073ffffffffffffffffffffffffffffffffffffffff16815260200160001515815260200160008152602001606081525090565b6000604051905090565b600080fd5b600080fd5b60007fffffffff0000000000000000000000000000000000000000000000000000000082169050919050565b613daa81613d75565b8114613db557600080fd5b50565b600081359050613dc781613da1565b92915050565b600060208284031215613de357613de2613d6b565b5b6000613df184828501613db8565b91505092915050565b60008115159050919050565b613e0f81613dfa565b82525050565b6000602082019050613e2a6000830184613e06565b92915050565b600081519050919050565b600082825260208201905092915050565b60005b83811015613e6a578082015181840152602081019050613e4f565b60008484015250505050565b6000601f19601f8301169050919050565b6000613e9282613e30565b613e9c8185613e3b565b9350613eac818560208601613e4c565b613eb581613e76565b840191505092915050565b60006020820190508181036000830152613eda8184613e87565b905092915050565b6000819050919050565b613ef581613ee2565b8114613f0057600080fd5b50565b600081359050613f1281613eec565b92915050565b600060208284031215613f2e57613f2d613d6b565b5b6000613f3c84828501613f03565b91505092915050565b600073ffffffffffffffffffffffffffffffffffffffff82169050919050565b6000613f7082613f45565b9050919050565b613f8081613f65565b82525050565b6000602082019050613f9b6000830184613f77565b92915050565b613faa81613f65565b8114613fb557600080fd5b50565b600081359050613fc781613fa1565b92915050565b60008060408385031215613fe457613fe3613d6b565b5b6000613ff285828601613fb8565b925050602061400385828601613f03565b9150509250929050565b61401681613ee2565b82525050565b6000602082019050614031600083018461400d565b92915050565b6000806000606084860312156140505761404f613d6b565b5b600061405e86828701613fb8565b935050602061406f86828701613fb8565b925050604061408086828701613f03565b9150509250925092565b600080604083850312156140a1576140a0613d6b565b5b60006140af85828601613f03565b92505060206140c085828601613fb8565b9150509250929050565b600080fd5b600080fd5b7f4e487b7100000000000000000000000000000000000000000000000000000000600052604160045260246000fd5b61410c82613e76565b810181811067ffffffffffffffff8211171561412b5761412a6140d4565b5b80604052505050565b600061413e613d61565b905061414a8282614103565b919050565b600067ffffffffffffffff82111561416a576141696140d4565b5b61417382613e76565b9050602081019050919050565b82818337600083830152505050565b60006141a261419d8461414f565b614134565b9050828152602081018484840111156141be576141bd6140cf565b5b6141c9848285614180565b509392505050565b600082601f8301126141e6576141e56140ca565b5b81356141f684826020860161418f565b91505092915050565b60008060008060008060c0878903121561421c5761421b613d6b565b5b600087013567ffffffffffffffff81111561423a57614239613d70565b5b61424689828a016141d1565b965050602061425789828a01613f03565b955050604087013567ffffffffffffffff81111561427857614277613d70565b5b61428489828a016141d1565b945050606087013567ffffffffffffffff8111156142a5576142a4613d70565b5b6142b189828a016141d1565b93505060806142c289828a01613f03565b92505060a06142d389828a01613f03565b9150509295509295509295565b6142e981613dfa565b81146142f457600080fd5b50565b600081359050614306816142e0565b92915050565b6000806040838503121561432357614322613d6b565b5b600061433185828601613fb8565b9250506020614342858286016142f7565b9150509250929050565b6000806040838503121561436357614362613d6b565b5b600061437185828601613f03565b925050602083013567ffffffffffffffff81111561439257614391613d70565b5b61439e858286016141d1565b9150509250929050565b6000602082840312156143be576143bd613d6b565b5b60006143cc84828501613fb8565b91505092915050565b600067ffffffffffffffff8211156143f0576143ef6140d4565b5b6143f982613e76565b9050602081019050919050565b6000614419614414846143d5565b614134565b905082815260208101848484011115614435576144346140cf565b5b614440848285614180565b509392505050565b600082601f83011261445d5761445c6140ca565b5b813561446d848260208601614406565b91505092915050565b600080600080608085870312156144905761448f613d6b565b5b600061449e87828801613fb8565b94505060206144af87828801613fb8565b93505060406144c087828801613f03565b925050606085013567ffffffffffffffff8111156144e1576144e0613d70565b5b6144ed87828801614448565b91505092959194509250565b600080604083850312156145105761450f613d6b565b5b600061451e85828601613f03565b925050602061452f85828601613f03565b9150509250929050565b600060408201905061454e6000830185613f77565b61455b602083018461400d565b9392505050565b600060c082019050614577600083018961400d565b81810360208301526145898188613e87565b90506145986040830187613f77565b6145a56060830186613e06565b6145b2608083018561400d565b81810360a08301526145c48184613e87565b9050979650505050505050565b600080604083850312156145e8576145e7613d6b565b5b60006145f685828601613fb8565b925050602061460785828601613fb8565b9150509250929050565b61461a81613ee2565b82525050565b600082825260208201905092915050565b600061463c82613e30565b6146468185614620565b9350614656818560208601613e4c565b61465f81613e76565b840191505092915050565b61467381613f65565b82525050565b61468281613dfa565b82525050565b600060c0830160008301516146a06000860182614611565b50602083015184820360208601526146b88282614631565b91505060408301516146cd604086018261466a565b5060608301516146e06060860182614679565b5060808301516146f36080860182614611565b5060a083015184820360a086015261470b8282614631565b9150508091505092915050565b600060208201905081810360008301526147328184614688565b905092915050565b6000602082840312156147505761474f613d6b565b5b600082013567ffffffffffffffff81111561476e5761476d613d70565b5b61477a848285016141d1565b91505092915050565b7f4e487b7100000000000000000000000000000000000000000000000000000000600052602260045260246000fd5b600060028204905060018216806147ca57607f821691505b6020821081036147dd576147dc614783565b5b50919050565b7f4552433732313a20617070726f76616c20746f2063757272656e74206f776e6560008201527f7200000000000000000000000000000000000000000000000000000000000000602082015250565b600061483f602183613e3b565b915061484a826147e3565b604082019050919050565b6000602082019050818103600083015261486e81614832565b9050919050565b7f4552433732313a20617070726f76652063616c6c6572206973206e6f7420746f60008201527f6b656e206f776e6572206f7220617070726f76656420666f7220616c6c000000602082015250565b60006148d1603d83613e3b565b91506148dc82614875565b604082019050919050565b60006020820190508181036000830152614900816148c4565b9050919050565b7f4e487b7100000000000000000000000000000000000000000000000000000000600052601160045260246000fd5b600061494182613ee2565b915061494c83613ee2565b925082820390508181111561496457614963614907565b5b92915050565b7f4552433732313a2063616c6c6572206973206e6f7420746f6b656e206f776e6560008201527f72206f7220617070726f76656400000000000000000000000000000000000000602082015250565b60006149c6602d83613e3b565b91506149d18261496a565b604082019050919050565b600060208201905081810360008301526149f5816149b9565b9050919050565b7f455243373231456e756d657261626c653a206f776e657220696e646578206f7560008201527f74206f6620626f756e6473000000000000000000000000000000000000000000602082015250565b6000614a58602b83613e3b565b9150614a63826149fc565b604082019050919050565b60006020820190508181036000830152614a8781614a4b565b9050919050565b7f455243373231456e756d657261626c653a20676c6f62616c20696e646578206f60008201527f7574206f6620626f756e64730000000000000000000000000000000000000000602082015250565b6000614aea602c83613e3b565b9150614af582614a8e565b604082019050919050565b60006020820190508181036000830152614b1981614add565b9050919050565b7f4e487b7100000000000000000000000000000000000000000000000000000000600052603260045260246000fd5b7f4d696e74696e672069732064697361626c656400000000000000000000000000600082015250565b6000614b85601383613e3b565b9150614b9082614b4f565b602082019050919050565b60006020820190508181036000830152614bb481614b78565b9050919050565b7f4d617820737570706c7920726561636865640000000000000000000000000000600082015250565b6000614bf1601283613e3b565b9150614bfc82614bbb565b602082019050919050565b60006020820190508181036000830152614c2081614be4565b9050919050565b7f496e76616c696420677269642073697a65000000000000000000000000000000600082015250565b6000614c5d601183613e3b565b9150614c6882614c27565b602082019050919050565b60006020820190508181036000830152614c8c81614c50565b9050919050565b7f50757a7a6c6520616c72656164792065786973747320666f722074686973204e60008201527f4654000000000000000000000000000000000000000000000000000000000000602082015250565b6000614cef602283613e3b565b9150614cfa82614c93565b604082019050919050565b60006020820190508181036000830152614d1e81614ce2565b9050919050565b7f496e73756666696369656e74207061796d656e74000000000000000000000000600082015250565b6000614d5b601483613e3b565b9150614d6682614d25565b602082019050919050565b60006020820190508181036000830152614d8a81614d4e565b9050919050565b7f45786365656473206d6178207065722077616c6c657400000000000000000000600082015250565b6000614dc7601683613e3b565b9150614dd282614d91565b602082019050919050565b60006020820190508181036000830152614df681614dba565b9050919050565b60008190508160005260206000209050919050565b60006020601f8301049050919050565b600082821b905092915050565b600060088302614e5f7fffffffffffffffffffffffffffffffffffffffffffffffffffffffffffffffff82614e22565b614e698683614e22565b95508019841693508086168417925050509392505050565b6000819050919050565b6000614ea6614ea1614e9c84613ee2565b614e81565b613ee2565b9050919050565b6000819050919050565b614ec083614e8b565b614ed4614ecc82614ead565b848454614e2f565b825550505050565b600090565b614ee9614edc565b614ef4818484614eb7565b505050565b5b81811015614f1857614f0d600082614ee1565b600181019050614efa565b5050565b601f821115614f5d57614f2e81614dfd565b614f3784614e12565b81016020851015614f46578190505b614f5a614f5285614e12565b830182614ef9565b50505b505050565b600082821c905092915050565b6000614f8060001984600802614f62565b1980831691505092915050565b6000614f998383614f6f565b9150826002028217905092915050565b614fb282613e30565b67ffffffffffffffff811115614fcb57614fca6140d4565b5b614fd582546147b2565b614fe0828285614f1c565b600060209050601f8311600181146150135760008415615001578287015190505b61500b8582614f8d565b865550615073565b601f19841661502186614dfd565b60005b8281101561504957848901518255600182019150602085019450602081019050615024565b868310156150665784890151615062601f891682614f6f565b8355505b6001600288020188555050505b505050505050565b600061508682613ee2565b91507fffffffffffffffffffffffffffffffffffffffffffffffffffffffffffffffff82036150b8576150b7614907565b5b600182019050919050565b7f526f79616c747920746f6f206869676800000000000000000000000000000000600082015250565b60006150f9601083613e3b565b9150615104826150c3565b602082019050919050565b60006020820190508181036000830152615128816150ec565b9050919050565b7f4552433732313a20696e76616c696420746f6b656e2049440000000000000000600082015250565b6000615165601883613e3b565b91506151708261512f565b602082019050919050565b6000602082019050818103600083015261519481615158565b9050919050565b7f546f6b656e20646f6573206e6f74206578697374000000000000000000000000600082015250565b60006151d1601483613e3b565b91506151dc8261519b565b602082019050919050565b60006020820190508181036000830152615200816151c4565b9050919050565b7f416c726561647920636f6d706c65746564000000000000000000000000000000600082015250565b600061523d601183613e3b565b915061524882615207565b602082019050919050565b6000602082019050818103600083015261526c81615230565b9050919050565b7f50757a7a6c65206973206c6f636b656400000000000000000000000000000000600082015250565b60006152a9601083613e3b565b91506152b482615273565b602082019050919050565b600060208201905081810360008301526152d88161529c565b9050919050565b600081905092915050565b600081546152f7816147b2565b61530181866152df565b9450600182166000811461531c576001811461533157615364565b60ff1983168652811515820286019350615364565b61533a85614dfd565b60005b8381101561535c5781548189015260018201915060208101905061533d565b838801955050505b50505092915050565b600061537982846152ea565b915081905092915050565b600061538f82613e30565b61539981856152df565b93506153a9818560208601613e4c565b80840191505092915050565b60006153c18284615384565b915081905092915050565b7f496e76616c696420736f6c7574696f6e00000000000000000000000000000000600082015250565b6000615402601083613e3b565b915061540d826153cc565b602082019050919050565b60006020820190508181036000830152615431816153f5565b9050919050565b7f4552433732313a2061646472657373207a65726f206973206e6f74206120766160008201527f6c6964206f776e65720000000000000000000000000000000000000000000000602082015250565b6000615494602983613e3b565b915061549f82615438565b604082019050919050565b600060208201905081810360008301526154c381615487565b9050919050565b7f496e76616c696420616464726573730000000000000000000000000000000000600082015250565b6000615500600f83613e3b565b915061550b826154ca565b602082019050919050565b6000602082019050818103600083015261552f816154f3565b9050919050565b600061554182613ee2565b915061554c83613ee2565b925082820261555a81613ee2565b9150828204841483151761557157615570614907565b5b5092915050565b7f4e487b7100000000000000000000000000000000000000000000000000000000600052601260045260246000fd5b60006155b282613ee2565b91506155bd83613ee2565b9250826155cd576155cc615578565b5b828204905092915050565b7f4e6f7420746f6b656e206f776e65720000000000000000000000000000000000600082015250565b600061560e600f83613e3b565b9150615619826155d8565b602082019050919050565b6000602082019050818103600083015261563d81615601565b9050919050565b7f4f776e61626c653a206e6577206f776e657220697320746865207a65726f206160008201527f6464726573730000000000000000000000000000000000000000000000000000602082015250565b60006156a0602683613e3b565b91506156ab82615644565b604082019050919050565b600060208201905081810360008301526156cf81615693565b9050919050565b7f4552433732313a207472616e736665722066726f6d20696e636f72726563742060008201527f6f776e6572000000000000000000000000000000000000000000000000000000602082015250565b6000615732602583613e3b565b915061573d826156d6565b604082019050919050565b6000602082019050818103600083015261576181615725565b9050919050565b7f4552433732313a207472616e7366657220746f20746865207a65726f2061646460008201527f7265737300000000000000000000000000000000000000000000000000000000602082015250565b60006157c4602483613e3b565b91506157cf82615768565b604082019050919050565b600060208201905081810360008301526157f3816157b7565b9050919050565b7f4f776e61626c653a2063616c6c6572206973206e6f7420746865206f776e6572600082015250565b6000615830602083613e3b565b915061583b826157fa565b602082019050919050565b6000602082019050818103600083015261585f81615823565b9050919050565b7f5265656e7472616e637947756172643a207265656e7472616e742063616c6c00600082015250565b600061589c601f83613e3b565b91506158a782615866565b602082019050919050565b600060208201905081810360008301526158cb8161588f565b9050919050565b7f45524337323155524953746f726167653a2055524920736574206f66206e6f6e60008201527f6578697374656e7420746f6b656e000000000000000000000000000000000000602082015250565b600061592e602e83613e3b565b9150615939826158d2565b604082019050919050565b6000602082019050818103600083015261595d81615921565b9050919050565b7f4552433732313a20617070726f766520746f2063616c6c657200000000000000600082015250565b600061599a601983613e3b565b91506159a582615964565b602082019050919050565b600060208201905081810360008301526159c98161598d565b9050919050565b7f4552433732313a207472616e7366657220746f206e6f6e20455243373231526560008201527f63656976657220696d706c656d656e7465720000000000000000000000000000602082015250565b6000615a2c603283613e3b565b9150615a37826159d0565b604082019050919050565b60006020820190508181036000830152615a5b81615a1f565b9050919050565b6000615a6e8285615384565b9150615a7a8284615384565b91508190509392505050565b600081519050919050565b600082825260208201905092915050565b6000615aad82615a86565b615ab78185615a91565b9350615ac7818560208601613e4c565b615ad081613e76565b840191505092915050565b6000608082019050615af06000830187613f77565b615afd6020830186613f77565b615b0a604083018561400d565b8181036060830152615b1c8184615aa2565b905095945050505050565b600081519050615b3681613da1565b92915050565b600060208284031215615b5257615b51613d6b565b5b6000615b6084828501615b27565b91505092915050565b7f455243373231456e756d657261626c653a20636f6e736563757469766520747260008201527f616e7366657273206e6f7420737570706f727465640000000000000000000000602082015250565b6000615bc5603583613e3b565b9150615bd082615b69565b604082019050919050565b60006020820190508181036000830152615bf481615bb8565b9050919050565b7f4552433732313a206d696e7420746f20746865207a65726f2061646472657373600082015250565b6000615c31602083613e3b565b9150615c3c82615bfb565b602082019050919050565b60006020820190508181036000830152615c6081615c24565b9050919050565b7f4552433732313a20746f6b656e20616c7265616479206d696e74656400000000600082015250565b6000615c9d601c83613e3b565b9150615ca882615c67565b602082019050919050565b60006020820190508181036000830152615ccc81615c90565b9050919050565b7f4e487b7100000000000000000000000000000000000000000000000000000000600052603160045260246000fdfea26469706673582212202921dbdbdc54dbd191bc434cd77231b720d139346ebfc7f7d82f29678ba9f26b64736f6c63430008130033",
  "linkReferences": {},
  "deployedLinkReferences": {}
}